{
  "contracts/test/VirtualBitcoin.sol": {
    "VirtualBitcoin": {
      "abi": [
        {
          "inputs": [],
          "stateMutability": "nonpayable",
          "type": "constructor"
        },
        {
          "anonymous": false,
          "inputs": [
            {
              "indexed": true,
              "internalType": "address",
              "name": "owner",
              "type": "address"
            },
            {
              "indexed": true,
              "internalType": "address",
              "name": "spender",
              "type": "address"
            },
            {
              "indexed": false,
              "internalType": "uint256",
              "name": "amount",
              "type": "uint256"
            }
          ],
          "name": "Approval",
          "type": "event"
        },
        {
          "anonymous": false,
          "inputs": [
            {
              "indexed": true,
              "internalType": "address",
              "name": "owner",
              "type": "address"
            },
            {
              "indexed": true,
              "internalType": "uint256",
              "name": "pizzaId",
              "type": "uint256"
            },
            {
              "indexed": false,
              "internalType": "uint256",
              "name": "power",
              "type": "uint256"
            }
          ],
          "name": "BuyPizza",
          "type": "event"
        },
        {
          "anonymous": false,
          "inputs": [
            {
              "indexed": true,
              "internalType": "address",
              "name": "owner",
              "type": "address"
            },
            {
              "indexed": true,
              "internalType": "uint256",
              "name": "pizzaId",
              "type": "uint256"
            },
            {
              "indexed": false,
              "internalType": "uint256",
              "name": "power",
              "type": "uint256"
            }
          ],
          "name": "ChangePizza",
          "type": "event"
        },
        {
          "anonymous": false,
          "inputs": [
            {
              "indexed": true,
              "internalType": "address",
              "name": "owner",
              "type": "address"
            },
            {
              "indexed": true,
              "internalType": "uint256",
              "name": "pizzaId",
              "type": "uint256"
            },
            {
              "indexed": false,
              "internalType": "uint256",
              "name": "subsidy",
              "type": "uint256"
            }
          ],
          "name": "Mine",
          "type": "event"
        },
        {
          "anonymous": false,
          "inputs": [
            {
              "indexed": true,
              "internalType": "address",
              "name": "owner",
              "type": "address"
            },
            {
              "indexed": true,
              "internalType": "uint256",
              "name": "pizzaId",
              "type": "uint256"
            }
          ],
          "name": "SellPizza",
          "type": "event"
        },
        {
          "anonymous": false,
          "inputs": [
            {
              "indexed": true,
              "internalType": "address",
              "name": "from",
              "type": "address"
            },
            {
              "indexed": true,
              "internalType": "address",
              "name": "to",
              "type": "address"
            },
            {
              "indexed": false,
              "internalType": "uint256",
              "name": "amount",
              "type": "uint256"
            }
          ],
          "name": "Transfer",
          "type": "event"
        },
        {
          "inputs": [],
          "name": "COIN",
          "outputs": [
            {
              "internalType": "uint256",
              "name": "",
              "type": "uint256"
            }
          ],
          "stateMutability": "view",
          "type": "function"
        },
        {
          "inputs": [],
          "name": "DECIMALS",
          "outputs": [
            {
              "internalType": "uint8",
              "name": "",
              "type": "uint8"
            }
          ],
          "stateMutability": "view",
          "type": "function"
        },
        {
          "inputs": [],
          "name": "MAX_COIN",
          "outputs": [
            {
              "internalType": "uint256",
              "name": "",
              "type": "uint256"
            }
          ],
          "stateMutability": "view",
          "type": "function"
        },
        {
          "inputs": [],
          "name": "NAME",
          "outputs": [
            {
              "internalType": "string",
              "name": "",
              "type": "string"
            }
          ],
          "stateMutability": "view",
          "type": "function"
        },
        {
          "inputs": [],
          "name": "PIZZA_POWER_PRICE",
          "outputs": [
            {
              "internalType": "uint256",
              "name": "",
              "type": "uint256"
            }
          ],
          "stateMutability": "view",
          "type": "function"
        },
        {
          "inputs": [],
          "name": "PRECISION",
          "outputs": [
            {
              "internalType": "uint256",
              "name": "",
              "type": "uint256"
            }
          ],
          "stateMutability": "view",
          "type": "function"
        },
        {
          "inputs": [],
          "name": "SUBSIDY_HALVING_INTERVAL",
          "outputs": [
            {
              "internalType": "uint32",
              "name": "",
              "type": "uint32"
            }
          ],
          "stateMutability": "view",
          "type": "function"
        },
        {
          "inputs": [],
          "name": "SYMBOL",
          "outputs": [
            {
              "internalType": "string",
              "name": "",
              "type": "string"
            }
          ],
          "stateMutability": "view",
          "type": "function"
        },
        {
          "inputs": [],
          "name": "accSubsidy",
          "outputs": [
            {
              "internalType": "uint256",
              "name": "",
              "type": "uint256"
            }
          ],
          "stateMutability": "view",
          "type": "function"
        },
        {
          "inputs": [],
          "name": "accSubsidyBlock",
          "outputs": [
            {
              "internalType": "uint256",
              "name": "",
              "type": "uint256"
            }
          ],
          "stateMutability": "view",
          "type": "function"
        },
        {
          "inputs": [
            {
              "internalType": "address",
              "name": "user",
              "type": "address"
            },
            {
              "internalType": "address",
              "name": "spender",
              "type": "address"
            }
          ],
          "name": "allowance",
          "outputs": [
            {
              "internalType": "uint256",
              "name": "remaining",
              "type": "uint256"
            }
          ],
          "stateMutability": "view",
          "type": "function"
        },
        {
          "inputs": [
            {
              "internalType": "address",
              "name": "spender",
              "type": "address"
            },
            {
              "internalType": "uint256",
              "name": "amount",
              "type": "uint256"
            }
          ],
          "name": "approve",
          "outputs": [
            {
              "internalType": "bool",
              "name": "success",
              "type": "bool"
            }
          ],
          "stateMutability": "nonpayable",
          "type": "function"
        },
        {
          "inputs": [
            {
              "internalType": "address",
              "name": "user",
              "type": "address"
            }
          ],
          "name": "balanceOf",
          "outputs": [
            {
              "internalType": "uint256",
              "name": "balance",
              "type": "uint256"
            }
          ],
          "stateMutability": "view",
          "type": "function"
        },
        {
          "inputs": [
            {
              "internalType": "uint256",
              "name": "power",
              "type": "uint256"
            }
          ],
          "name": "buyPizza",
          "outputs": [
            {
              "internalType": "uint256",
              "name": "",
              "type": "uint256"
            }
          ],
          "stateMutability": "nonpayable",
          "type": "function"
        },
        {
          "inputs": [
            {
              "internalType": "uint256",
              "name": "pizzaId",
              "type": "uint256"
            },
            {
              "internalType": "uint256",
              "name": "power",
              "type": "uint256"
            }
          ],
          "name": "changePizza",
          "outputs": [],
          "stateMutability": "nonpayable",
          "type": "function"
        },
        {
          "inputs": [],
          "name": "decimals",
          "outputs": [
            {
              "internalType": "uint8",
              "name": "",
              "type": "uint8"
            }
          ],
          "stateMutability": "pure",
          "type": "function"
        },
        {
          "inputs": [],
          "name": "genesisEthBlock",
          "outputs": [
            {
              "internalType": "uint256",
              "name": "",
              "type": "uint256"
            }
          ],
          "stateMutability": "view",
          "type": "function"
        },
        {
          "inputs": [
            {
              "internalType": "uint256",
              "name": "pizzaId",
              "type": "uint256"
            }
          ],
          "name": "mine",
          "outputs": [
            {
              "internalType": "uint256",
              "name": "",
              "type": "uint256"
            }
          ],
          "stateMutability": "nonpayable",
          "type": "function"
        },
        {
          "inputs": [],
          "name": "name",
          "outputs": [
            {
              "internalType": "string",
              "name": "",
              "type": "string"
            }
          ],
          "stateMutability": "pure",
          "type": "function"
        },
        {
          "inputs": [],
          "name": "pizzaCount",
          "outputs": [
            {
              "internalType": "uint256",
              "name": "",
              "type": "uint256"
            }
          ],
          "stateMutability": "view",
          "type": "function"
        },
        {
          "inputs": [
            {
              "internalType": "uint256",
              "name": "power",
              "type": "uint256"
            }
          ],
          "name": "pizzaPrice",
          "outputs": [
            {
              "internalType": "uint256",
              "name": "",
              "type": "uint256"
            }
          ],
          "stateMutability": "pure",
          "type": "function"
        },
        {
          "inputs": [
            {
              "internalType": "uint256",
              "name": "",
              "type": "uint256"
            }
          ],
          "name": "pizzas",
          "outputs": [
            {
              "internalType": "address",
              "name": "owner",
              "type": "address"
            },
            {
              "internalType": "uint256",
              "name": "power",
              "type": "uint256"
            },
            {
              "internalType": "uint256",
              "name": "accSubsidy",
              "type": "uint256"
            }
          ],
          "stateMutability": "view",
          "type": "function"
        },
        {
          "inputs": [
            {
              "internalType": "uint256",
              "name": "pizzaId",
              "type": "uint256"
            }
          ],
          "name": "powerOf",
          "outputs": [
            {
              "internalType": "uint256",
              "name": "",
              "type": "uint256"
            }
          ],
          "stateMutability": "view",
          "type": "function"
        },
        {
          "inputs": [
            {
              "internalType": "uint256",
              "name": "pizzaId",
              "type": "uint256"
            }
          ],
          "name": "sellPizza",
          "outputs": [],
          "stateMutability": "nonpayable",
          "type": "function"
        },
        {
          "inputs": [
            {
              "internalType": "uint256",
              "name": "blockNumber",
              "type": "uint256"
            }
          ],
          "name": "subsidyAt",
          "outputs": [
            {
              "internalType": "uint256",
              "name": "amount",
              "type": "uint256"
            }
          ],
          "stateMutability": "view",
          "type": "function"
        },
        {
          "inputs": [
            {
              "internalType": "uint256",
              "name": "pizzaId",
              "type": "uint256"
            }
          ],
          "name": "subsidyOf",
          "outputs": [
            {
              "internalType": "uint256",
              "name": "",
              "type": "uint256"
            }
          ],
          "stateMutability": "view",
          "type": "function"
        },
        {
          "inputs": [],
          "name": "symbol",
          "outputs": [
            {
              "internalType": "string",
              "name": "",
              "type": "string"
            }
          ],
          "stateMutability": "pure",
          "type": "function"
        },
        {
          "inputs": [],
          "name": "totalPower",
          "outputs": [
            {
              "internalType": "uint256",
              "name": "",
              "type": "uint256"
            }
          ],
          "stateMutability": "view",
          "type": "function"
        },
        {
          "inputs": [],
          "name": "totalSupply",
          "outputs": [
            {
              "internalType": "uint256",
              "name": "",
              "type": "uint256"
            }
          ],
          "stateMutability": "view",
          "type": "function"
        },
        {
          "inputs": [
            {
              "internalType": "address",
              "name": "to",
              "type": "address"
            },
            {
              "internalType": "uint256",
              "name": "amount",
              "type": "uint256"
            }
          ],
          "name": "transfer",
          "outputs": [
            {
              "internalType": "bool",
              "name": "success",
              "type": "bool"
            }
          ],
          "stateMutability": "nonpayable",
          "type": "function"
        },
        {
          "inputs": [
            {
              "internalType": "address",
              "name": "from",
              "type": "address"
            },
            {
              "internalType": "address",
              "name": "to",
              "type": "address"
            },
            {
              "internalType": "uint256",
              "name": "amount",
              "type": "uint256"
            }
          ],
          "name": "transferFrom",
          "outputs": [
            {
              "internalType": "bool",
              "name": "success",
              "type": "bool"
            }
          ],
          "stateMutability": "nonpayable",
          "type": "function"
        }
      ],
      "evm": {
        "bytecode": {
          "linkReferences": {},
          "object": "60a060405234801561001057600080fd5b504360808181525050600060058190555043600481905550600360405180606001604052803373ffffffffffffffffffffffffffffffffffffffff168152602001600181526020016000815250908060018154018082558091505060019003906000526020600020906003020160009091909190915060008201518160000160006101000a81548173ffffffffffffffffffffffffffffffffffffffff021916908373ffffffffffffffffffffffffffffffffffffffff16021790555060208201518160010155604082015181600201555050600160068190555060805161225e610129600039600081816107cf0152818161084f015281816117cc01528181611810015281816118780152611906015261225e6000f3fe608060405234801561001057600080fd5b50600436106101e55760003560e01c806372f627a71161010f578063b0780cfc116100a2578063ea03174d11610071578063ea03174d146105ec578063eff60e8f1461060a578063f76f8d7814610626578063feeff29314610644576101e5565b8063b0780cfc14610550578063db3ad22c1461056e578063dd62ed3e1461058c578063de8ff63b146105bc576101e5565b8063a3f4df7e116100de578063a3f4df7e146104c6578063a54a72b7146104e4578063a9059cbb14610502578063aaf5eb6814610532576101e5565b806372f627a71461043e5780638c8c9fec1461045c5780638ca42d2a1461048c57806395d89b41146104a8576101e5565b80632e0f2625116101875780634d474898116101565780634d4748981461038e5780636b67a1b2146103be57806370a08231146103f057806372cf105d14610420576101e5565b80632e0f2625146103045780633125e46e14610322578063313ce567146103525780633d55838714610370576101e5565b80630a24470e116101c35780630a24470e14610268578063151aa86a1461029857806318160ddd146102b657806323b872dd146102d4576101e5565b806304eaa113146101ea57806306fdde031461021a578063095ea7b314610238575b600080fd5b61020460048036038101906101ff9190611c5a565b610662565b6040516102119190611dbf565b60405180910390f35b610222610691565b60405161022f9190611d9d565b60405180910390f35b610252600480360381019061024d9190611c1a565b6106ce565b60405161025f9190611d82565b60405180910390f35b610282600480360381019061027d9190611c5a565b6107c0565b60405161028f9190611dbf565b60405180910390f35b6102a061084d565b6040516102ad9190611dbf565b60405180910390f35b6102be610871565b6040516102cb9190611dbf565b60405180910390f35b6102ee60048036038101906102e99190611bc7565b61087a565b6040516102fb9190611d82565b60405180910390f35b61030c610acd565b6040516103199190611df5565b60405180910390f35b61033c60048036038101906103379190611c5a565b610ad2565b6040516103499190611dbf565b60405180910390f35b61035a610b6c565b6040516103679190611df5565b60405180910390f35b610378610b75565b6040516103859190611dbf565b60405180910390f35b6103a860048036038101906103a39190611c5a565b610b7b565b6040516103b59190611dbf565b60405180910390f35b6103d860048036038101906103d39190611c5a565b610ccf565b6040516103e793929190611d4b565b60405180910390f35b61040a60048036038101906104059190611b5a565b610d29565b6040516104179190611dbf565b60405180910390f35b610428610d72565b6040516104359190611dbf565b60405180910390f35b610446610d95565b6040516104539190611dda565b60405180910390f35b61047660048036038101906104719190611c5a565b610d9c565b6040516104839190611dbf565b60405180910390f35b6104a660048036038101906104a19190611c87565b610eb7565b005b6104b0611140565b6040516104bd9190611d9d565b60405180910390f35b6104ce61117d565b6040516104db9190611d9d565b60405180910390f35b6104ec6111b6565b6040516104f99190611dbf565b60405180910390f35b61051c60048036038101906105179190611c1a565b6111ca565b6040516105299190611d82565b60405180910390f35b61053a6112e7565b6040516105479190611dbf565b60405180910390f35b6105586112ed565b6040516105659190611dbf565b60405180910390f35b6105766112fa565b6040516105839190611dbf565b60405180910390f35b6105a660048036038101906105a19190611b87565b611300565b6040516105b39190611dbf565b60405180910390f35b6105d660048036038101906105d19190611c5a565b611387565b6040516105e39190611dbf565b60405180910390f35b6105f46113b9565b6040516106019190611dbf565b60405180910390f35b610624600480360381019061061f9190611c5a565b6113bf565b005b61062e61153a565b60405161063b9190611d9d565b60405180910390f35b61064c611573565b6040516106599190611dbf565b60405180910390f35b600060038281548110610678576106776121a8565b5b9060005260206000209060030201600101549050919050565b60606040518060400160405280600f81526020017f5669727475616c20426974636f696e0000000000000000000000000000000000815250905090565b600081600260003373ffffffffffffffffffffffffffffffffffffffff1673ffffffffffffffffffffffffffffffffffffffff16815260200190815260200160002060008573ffffffffffffffffffffffffffffffffffffffff1673ffffffffffffffffffffffffffffffffffffffff168152602001908152602001600020819055508273ffffffffffffffffffffffffffffffffffffffff163373ffffffffffffffffffffffffffffffffffffffff167f8c5be1e5ebec7d5bd14f71427d1e84f3dd0314c0f7b2291e5b200ac8c7c3b925846040516107ae9190611dbf565b60405180910390a36001905092915050565b6000806240164063ffffffff167f0000000000000000000000000000000000000000000000000000000000000000846107f9919061207e565b6108039190611e82565b90508060026108129190611f06565b600a600860ff16600a6108259190611f06565b60196108319190612024565b61083b9190611e82565b6108459190611e82565b915050919050565b7f000000000000000000000000000000000000000000000000000000000000000081565b60008054905090565b600080600260008673ffffffffffffffffffffffffffffffffffffffff1673ffffffffffffffffffffffffffffffffffffffff16815260200190815260200160002060003373ffffffffffffffffffffffffffffffffffffffff1673ffffffffffffffffffffffffffffffffffffffff1681526020019081526020016000205490507fffffffffffffffffffffffffffffffffffffffffffffffffffffffffffffffff81146109b057828161092f919061207e565b600260008773ffffffffffffffffffffffffffffffffffffffff1673ffffffffffffffffffffffffffffffffffffffff16815260200190815260200160002060003373ffffffffffffffffffffffffffffffffffffffff1673ffffffffffffffffffffffffffffffffffffffff168152602001908152602001600020819055505b82600160008773ffffffffffffffffffffffffffffffffffffffff1673ffffffffffffffffffffffffffffffffffffffff16815260200190815260200160002060008282546109ff919061207e565b9250508190555082600160008673ffffffffffffffffffffffffffffffffffffffff1673ffffffffffffffffffffffffffffffffffffffff1681526020019081526020016000206000828254610a559190611e2c565b925050819055508373ffffffffffffffffffffffffffffffffffffffff168573ffffffffffffffffffffffffffffffffffffffff167fddf252ad1be2c89b69c2b068fc378daa952ba7f163c4a11628f55a4df523b3ef85604051610ab99190611dbf565b60405180910390a360019150509392505050565b600881565b6000610b0630600860ff16600a610ae99190611f06565b612710610af69190612024565b84610b019190612024565b6111ca565b506000610b1283611594565b9050803373ffffffffffffffffffffffffffffffffffffffff167f1d73f6a4197ad5e95d19dffb0c8e64b71bed8f02b744de7becec8f076eec82a985604051610b5b9190611dbf565b60405180910390a380915050919050565b60006008905090565b60055481565b60008060038381548110610b9257610b916121a8565b5b906000526020600020906003020190503373ffffffffffffffffffffffffffffffffffffffff168160000160009054906101000a900473ffffffffffffffffffffffffffffffffffffffff1673ffffffffffffffffffffffffffffffffffffffff1614610bfe57600080fd5b6000816001015490506000610c116116ac565b9050600083600201546127108484610c299190612024565b610c339190611e82565b610c3d919061207e565b90506000811115610c5357610c5233826116dd565b5b6127108383610c629190612024565b610c6c9190611e82565b8460020181905550853373ffffffffffffffffffffffffffffffffffffffff167f4cd36fb76975ab408e67b9ff3c17b4dd03112963aed18ccd8907a0c8b77daec283604051610cbb9190611dbf565b60405180910390a380945050505050919050565b60038181548110610cdf57600080fd5b90600052602060002090600302016000915090508060000160009054906101000a900473ffffffffffffffffffffffffffffffffffffffff16908060010154908060020154905083565b6000600160008373ffffffffffffffffffffffffffffffffffffffff1673ffffffffffffffffffffffffffffffffffffffff168152602001908152602001600020549050919050565b600860ff16600a610d839190611f06565b6301406f40610d929190612024565b81565b6240164081565b60008060038381548110610db357610db26121a8565b5b90600052602060002090600302016040518060600160405290816000820160009054906101000a900473ffffffffffffffffffffffffffffffffffffffff1673ffffffffffffffffffffffffffffffffffffffff1673ffffffffffffffffffffffffffffffffffffffff168152602001600182015481526020016002820154815250509050600073ffffffffffffffffffffffffffffffffffffffff16816000015173ffffffffffffffffffffffffffffffffffffffff161415610e7b576000915050610eb2565b80604001516127108260200151610e906117b5565b610e9a9190612024565b610ea49190611e82565b610eae919061207e565b9150505b919050565b600060038381548110610ecd57610ecc6121a8565b5b906000526020600020906003020190506000831415610eeb57600080fd5b3373ffffffffffffffffffffffffffffffffffffffff168160000160009054906101000a900473ffffffffffffffffffffffffffffffffffffffff1673ffffffffffffffffffffffffffffffffffffffff1614610f4757600080fd5b60008160010154905082811415610f5d57600080fd5b6000610f676116ac565b9050600083600201546127108484610f7f9190612024565b610f899190611e82565b610f93919061207e565b90506000811115610fa957610fa833826116dd565b5b853373ffffffffffffffffffffffffffffffffffffffff167f4cd36fb76975ab408e67b9ff3c17b4dd03112963aed18ccd8907a0c8b77daec283604051610ff09190611dbf565b60405180910390a384831015611062576000838661100e919061207e565b905061104230600860ff16600a6110259190611f06565b6127106110329190612024565b8361103d9190612024565b6111ca565b5080600660008282546110559190611e2c565b92505081905550506110bf565b60008584611070919061207e565b90506110a433600860ff16600a6110879190611f06565b6127106110949190612024565b8361109f9190612024565b611a1b565b80600660008282546110b6919061207e565b92505081905550505b61271085836110ce9190612024565b6110d89190611e82565b8460020181905550848460010181905550853373ffffffffffffffffffffffffffffffffffffffff167fddac5028a22c95d7d47ec1d2f51a72edc856a86565bfbd27c18ce2f31825e851876040516111309190611dbf565b60405180910390a3505050505050565b60606040518060400160405280600481526020017f5642544300000000000000000000000000000000000000000000000000000000815250905090565b6040518060400160405280600f81526020017f5669727475616c20426974636f696e000000000000000000000000000000000081525081565b600860ff16600a6111c79190611f06565b81565b600081600160003373ffffffffffffffffffffffffffffffffffffffff1673ffffffffffffffffffffffffffffffffffffffff168152602001908152602001600020600082825461121b919061207e565b9250508190555081600160008573ffffffffffffffffffffffffffffffffffffffff1673ffffffffffffffffffffffffffffffffffffffff16815260200190815260200160002060008282546112719190611e2c565b925050819055508273ffffffffffffffffffffffffffffffffffffffff163373ffffffffffffffffffffffffffffffffffffffff167fddf252ad1be2c89b69c2b068fc378daa952ba7f163c4a11628f55a4df523b3ef846040516112d59190611dbf565b60405180910390a36001905092915050565b61271081565b6000600380549050905090565b60065481565b6000600260008473ffffffffffffffffffffffffffffffffffffffff1673ffffffffffffffffffffffffffffffffffffffff16815260200190815260200160002060008373ffffffffffffffffffffffffffffffffffffffff1673ffffffffffffffffffffffffffffffffffffffff16815260200190815260200160002054905092915050565b6000600860ff16600a61139a9190611f06565b6127106113a79190612024565b826113b29190612024565b9050919050565b60045481565b6000600382815481106113d5576113d46121a8565b5b9060005260206000209060030201905060008214156113f357600080fd5b3373ffffffffffffffffffffffffffffffffffffffff168160000160009054906101000a900473ffffffffffffffffffffffffffffffffffffffff1673ffffffffffffffffffffffffffffffffffffffff161461144f57600080fd5b60008160010154905061146183610b7b565b5060008260000160006101000a81548173ffffffffffffffffffffffffffffffffffffffff021916908373ffffffffffffffffffffffffffffffffffffffff16021790555080600660008282546114b8919061207e565b925050819055506114f133600860ff16600a6114d49190611f06565b6127106114e19190612024565b836114ec9190612024565b611a1b565b823373ffffffffffffffffffffffffffffffffffffffff167f7443d543988088aa1062dd69a78779c9ea88934042cdc3a63a0452f3df3ad1ac60405160405180910390a3505050565b6040518060400160405280600481526020017f564254430000000000000000000000000000000000000000000000000000000081525081565b600860ff16600a6115849190611f06565b6127106115919190612024565b81565b60008082116115a257600080fd5b6000600380549050905060006115b66116ac565b9050600360405180606001604052803373ffffffffffffffffffffffffffffffffffffffff16815260200186815260200161271087856115f69190612024565b6116009190611e82565b815250908060018154018082558091505060019003906000526020600020906003020160009091909190915060008201518160000160006101000a81548173ffffffffffffffffffffffffffffffffffffffff021916908373ffffffffffffffffffffffffffffffffffffffff16021790555060208201518160010155604082015181600201555050836006600082825461169b9190611e2c565b925050819055508192505050919050565b600043600454146116d4576116bf6117b5565b905080600581905550436004819055506116da565b60055490505b90565b80600160008473ffffffffffffffffffffffffffffffffffffffff1673ffffffffffffffffffffffffffffffffffffffff168152602001908152602001600020600082825461172c9190611e2c565b92505081905550806000808282546117449190611e2c565b925050819055508173ffffffffffffffffffffffffffffffffffffffff16600073ffffffffffffffffffffffffffffffffffffffff167fddf252ad1be2c89b69c2b068fc378daa952ba7f163c4a11628f55a4df523b3ef836040516117a99190611dbf565b60405180910390a35050565b60008060045490506000806240164063ffffffff167f0000000000000000000000000000000000000000000000000000000000000000846117f6919061207e565b6118009190611e82565b905060006240164063ffffffff167f00000000000000000000000000000000000000000000000000000000000000004361183a919061207e565b6118449190611e82565b90508082141561187457611857436107c0565b8443611863919061207e565b61186d9190612024565b92506119ea565b60007f00000000000000000000000000000000000000000000000000000000000000006240164063ffffffff166001856118ae9190611e2c565b6118b89190612024565b6118c29190611e2c565b90506118cd856107c0565b85826118d9919061207e565b6118e39190612024565b9350600083836118f3919061207e565b90506000600190505b818110156119ba577f00000000000000000000000000000000000000000000000000000000000000006240164063ffffffff168260018861193d9190611e2c565b6119479190611e2c565b6119519190612024565b61195b9190611e2c565b9250611985816240164063ffffffff166119759190612024565b886119809190611e2c565b6107c0565b6240164063ffffffff166119999190612024565b866119a49190611e2c565b95506001816119b39190611e2c565b90506118fc565b506119c4436107c0565b82436119d0919061207e565b6119da9190612024565b856119e59190611e2c565b945050505b600654612710846119fb9190612024565b611a059190611e82565b600554611a129190611e2c565b94505050505090565b80600160003073ffffffffffffffffffffffffffffffffffffffff1673ffffffffffffffffffffffffffffffffffffffff1681526020019081526020016000206000828254611a6a919061207e565b9250508190555080600160008473ffffffffffffffffffffffffffffffffffffffff1673ffffffffffffffffffffffffffffffffffffffff1681526020019081526020016000206000828254611ac09190611e2c565b925050819055508173ffffffffffffffffffffffffffffffffffffffff163073ffffffffffffffffffffffffffffffffffffffff167fddf252ad1be2c89b69c2b068fc378daa952ba7f163c4a11628f55a4df523b3ef83604051611b249190611dbf565b60405180910390a35050565b600081359050611b3f816121fa565b92915050565b600081359050611b5481612211565b92915050565b600060208284031215611b7057611b6f6121d7565b5b6000611b7e84828501611b30565b91505092915050565b60008060408385031215611b9e57611b9d6121d7565b5b6000611bac85828601611b30565b9250506020611bbd85828601611b30565b9150509250929050565b600080600060608486031215611be057611bdf6121d7565b5b6000611bee86828701611b30565b9350506020611bff86828701611b30565b9250506040611c1086828701611b45565b9150509250925092565b60008060408385031215611c3157611c306121d7565b5b6000611c3f85828601611b30565b9250506020611c5085828601611b45565b9150509250929050565b600060208284031215611c7057611c6f6121d7565b5b6000611c7e84828501611b45565b91505092915050565b60008060408385031215611c9e57611c9d6121d7565b5b6000611cac85828601611b45565b9250506020611cbd85828601611b45565b9150509250929050565b611cd0816120b2565b82525050565b611cdf816120c4565b82525050565b6000611cf082611e10565b611cfa8185611e1b565b9350611d0a818560208601612117565b611d13816121dc565b840191505092915050565b611d27816120f0565b82525050565b611d36816120fa565b82525050565b611d458161210a565b82525050565b6000606082019050611d606000830186611cc7565b611d6d6020830185611d1e565b611d7a6040830184611d1e565b949350505050565b6000602082019050611d976000830184611cd6565b92915050565b60006020820190508181036000830152611db78184611ce5565b905092915050565b6000602082019050611dd46000830184611d1e565b92915050565b6000602082019050611def6000830184611d2d565b92915050565b6000602082019050611e0a6000830184611d3c565b92915050565b600081519050919050565b600082825260208201905092915050565b6000611e37826120f0565b9150611e42836120f0565b9250827fffffffffffffffffffffffffffffffffffffffffffffffffffffffffffffffff03821115611e7757611e7661214a565b5b828201905092915050565b6000611e8d826120f0565b9150611e98836120f0565b925082611ea857611ea7612179565b5b828204905092915050565b6000808291508390505b6001851115611efd57808604811115611ed957611ed861214a565b5b6001851615611ee85780820291505b8081029050611ef6856121ed565b9450611ebd565b94509492505050565b6000611f11826120f0565b9150611f1c836120f0565b9250611f497fffffffffffffffffffffffffffffffffffffffffffffffffffffffffffffffff8484611f51565b905092915050565b600082611f61576001905061201d565b81611f6f576000905061201d565b8160018114611f855760028114611f8f57611fbe565b600191505061201d565b60ff841115611fa157611fa061214a565b5b8360020a915084821115611fb857611fb761214a565b5b5061201d565b5060208310610133831016604e8410600b8410161715611ff35782820a905083811115611fee57611fed61214a565b5b61201d565b6120008484846001611eb3565b925090508184048111156120175761201661214a565b5b81810290505b9392505050565b600061202f826120f0565b915061203a836120f0565b9250817fffffffffffffffffffffffffffffffffffffffffffffffffffffffffffffffff04831182151516156120735761207261214a565b5b828202905092915050565b6000612089826120f0565b9150612094836120f0565b9250828210156120a7576120a661214a565b5b828203905092915050565b60006120bd826120d0565b9050919050565b60008115159050919050565b600073ffffffffffffffffffffffffffffffffffffffff82169050919050565b6000819050919050565b600063ffffffff82169050919050565b600060ff82169050919050565b60005b8381101561213557808201518184015260208101905061211a565b83811115612144576000848401525b50505050565b7f4e487b7100000000000000000000000000000000000000000000000000000000600052601160045260246000fd5b7f4e487b7100000000000000000000000000000000000000000000000000000000600052601260045260246000fd5b7f4e487b7100000000000000000000000000000000000000000000000000000000600052603260045260246000fd5b600080fd5b6000601f19601f8301169050919050565b60008160011c9050919050565b612203816120b2565b811461220e57600080fd5b50565b61221a816120f0565b811461222557600080fd5b5056fea2646970667358221220db3611435ae44bdb7bd0dbba015110eae227a9905f30a1367be17b4deddd64e364736f6c63430008050033",
          "opcodes": "PUSH1 0xA0 PUSH1 0x40 MSTORE CALLVALUE DUP1 ISZERO PUSH2 0x10 JUMPI PUSH1 0x0 DUP1 REVERT JUMPDEST POP NUMBER PUSH1 0x80 DUP2 DUP2 MSTORE POP POP PUSH1 0x0 PUSH1 0x5 DUP2 SWAP1 SSTORE POP NUMBER PUSH1 0x4 DUP2 SWAP1 SSTORE POP PUSH1 0x3 PUSH1 0x40 MLOAD DUP1 PUSH1 0x60 ADD PUSH1 0x40 MSTORE DUP1 CALLER PUSH20 0xFFFFFFFFFFFFFFFFFFFFFFFFFFFFFFFFFFFFFFFF AND DUP2 MSTORE PUSH1 0x20 ADD PUSH1 0x1 DUP2 MSTORE PUSH1 0x20 ADD PUSH1 0x0 DUP2 MSTORE POP SWAP1 DUP1 PUSH1 0x1 DUP2 SLOAD ADD DUP1 DUP3 SSTORE DUP1 SWAP2 POP POP PUSH1 0x1 SWAP1 SUB SWAP1 PUSH1 0x0 MSTORE PUSH1 0x20 PUSH1 0x0 KECCAK256 SWAP1 PUSH1 0x3 MUL ADD PUSH1 0x0 SWAP1 SWAP2 SWAP1 SWAP2 SWAP1 SWAP2 POP PUSH1 0x0 DUP3 ADD MLOAD DUP2 PUSH1 0x0 ADD PUSH1 0x0 PUSH2 0x100 EXP DUP2 SLOAD DUP2 PUSH20 0xFFFFFFFFFFFFFFFFFFFFFFFFFFFFFFFFFFFFFFFF MUL NOT AND SWAP1 DUP4 PUSH20 0xFFFFFFFFFFFFFFFFFFFFFFFFFFFFFFFFFFFFFFFF AND MUL OR SWAP1 SSTORE POP PUSH1 0x20 DUP3 ADD MLOAD DUP2 PUSH1 0x1 ADD SSTORE PUSH1 0x40 DUP3 ADD MLOAD DUP2 PUSH1 0x2 ADD SSTORE POP POP PUSH1 0x1 PUSH1 0x6 DUP2 SWAP1 SSTORE POP PUSH1 0x80 MLOAD PUSH2 0x225E PUSH2 0x129 PUSH1 0x0 CODECOPY PUSH1 0x0 DUP2 DUP2 PUSH2 0x7CF ADD MSTORE DUP2 DUP2 PUSH2 0x84F ADD MSTORE DUP2 DUP2 PUSH2 0x17CC ADD MSTORE DUP2 DUP2 PUSH2 0x1810 ADD MSTORE DUP2 DUP2 PUSH2 0x1878 ADD MSTORE PUSH2 0x1906 ADD MSTORE PUSH2 0x225E PUSH1 0x0 RETURN INVALID PUSH1 0x80 PUSH1 0x40 MSTORE CALLVALUE DUP1 ISZERO PUSH2 0x10 JUMPI PUSH1 0x0 DUP1 REVERT JUMPDEST POP PUSH1 0x4 CALLDATASIZE LT PUSH2 0x1E5 JUMPI PUSH1 0x0 CALLDATALOAD PUSH1 0xE0 SHR DUP1 PUSH4 0x72F627A7 GT PUSH2 0x10F JUMPI DUP1 PUSH4 0xB0780CFC GT PUSH2 0xA2 JUMPI DUP1 PUSH4 0xEA03174D GT PUSH2 0x71 JUMPI DUP1 PUSH4 0xEA03174D EQ PUSH2 0x5EC JUMPI DUP1 PUSH4 0xEFF60E8F EQ PUSH2 0x60A JUMPI DUP1 PUSH4 0xF76F8D78 EQ PUSH2 0x626 JUMPI DUP1 PUSH4 0xFEEFF293 EQ PUSH2 0x644 JUMPI PUSH2 0x1E5 JUMP JUMPDEST DUP1 PUSH4 0xB0780CFC EQ PUSH2 0x550 JUMPI DUP1 PUSH4 0xDB3AD22C EQ PUSH2 0x56E JUMPI DUP1 PUSH4 0xDD62ED3E EQ PUSH2 0x58C JUMPI DUP1 PUSH4 0xDE8FF63B EQ PUSH2 0x5BC JUMPI PUSH2 0x1E5 JUMP JUMPDEST DUP1 PUSH4 0xA3F4DF7E GT PUSH2 0xDE JUMPI DUP1 PUSH4 0xA3F4DF7E EQ PUSH2 0x4C6 JUMPI DUP1 PUSH4 0xA54A72B7 EQ PUSH2 0x4E4 JUMPI DUP1 PUSH4 0xA9059CBB EQ PUSH2 0x502 JUMPI DUP1 PUSH4 0xAAF5EB68 EQ PUSH2 0x532 JUMPI PUSH2 0x1E5 JUMP JUMPDEST DUP1 PUSH4 0x72F627A7 EQ PUSH2 0x43E JUMPI DUP1 PUSH4 0x8C8C9FEC EQ PUSH2 0x45C JUMPI DUP1 PUSH4 0x8CA42D2A EQ PUSH2 0x48C JUMPI DUP1 PUSH4 0x95D89B41 EQ PUSH2 0x4A8 JUMPI PUSH2 0x1E5 JUMP JUMPDEST DUP1 PUSH4 0x2E0F2625 GT PUSH2 0x187 JUMPI DUP1 PUSH4 0x4D474898 GT PUSH2 0x156 JUMPI DUP1 PUSH4 0x4D474898 EQ PUSH2 0x38E JUMPI DUP1 PUSH4 0x6B67A1B2 EQ PUSH2 0x3BE JUMPI DUP1 PUSH4 0x70A08231 EQ PUSH2 0x3F0 JUMPI DUP1 PUSH4 0x72CF105D EQ PUSH2 0x420 JUMPI PUSH2 0x1E5 JUMP JUMPDEST DUP1 PUSH4 0x2E0F2625 EQ PUSH2 0x304 JUMPI DUP1 PUSH4 0x3125E46E EQ PUSH2 0x322 JUMPI DUP1 PUSH4 0x313CE567 EQ PUSH2 0x352 JUMPI DUP1 PUSH4 0x3D558387 EQ PUSH2 0x370 JUMPI PUSH2 0x1E5 JUMP JUMPDEST DUP1 PUSH4 0xA24470E GT PUSH2 0x1C3 JUMPI DUP1 PUSH4 0xA24470E EQ PUSH2 0x268 JUMPI DUP1 PUSH4 0x151AA86A EQ PUSH2 0x298 JUMPI DUP1 PUSH4 0x18160DDD EQ PUSH2 0x2B6 JUMPI DUP1 PUSH4 0x23B872DD EQ PUSH2 0x2D4 JUMPI PUSH2 0x1E5 JUMP JUMPDEST DUP1 PUSH4 0x4EAA113 EQ PUSH2 0x1EA JUMPI DUP1 PUSH4 0x6FDDE03 EQ PUSH2 0x21A JUMPI DUP1 PUSH4 0x95EA7B3 EQ PUSH2 0x238 JUMPI JUMPDEST PUSH1 0x0 DUP1 REVERT JUMPDEST PUSH2 0x204 PUSH1 0x4 DUP1 CALLDATASIZE SUB DUP2 ADD SWAP1 PUSH2 0x1FF SWAP2 SWAP1 PUSH2 0x1C5A JUMP JUMPDEST PUSH2 0x662 JUMP JUMPDEST PUSH1 0x40 MLOAD PUSH2 0x211 SWAP2 SWAP1 PUSH2 0x1DBF JUMP JUMPDEST PUSH1 0x40 MLOAD DUP1 SWAP2 SUB SWAP1 RETURN JUMPDEST PUSH2 0x222 PUSH2 0x691 JUMP JUMPDEST PUSH1 0x40 MLOAD PUSH2 0x22F SWAP2 SWAP1 PUSH2 0x1D9D JUMP JUMPDEST PUSH1 0x40 MLOAD DUP1 SWAP2 SUB SWAP1 RETURN JUMPDEST PUSH2 0x252 PUSH1 0x4 DUP1 CALLDATASIZE SUB DUP2 ADD SWAP1 PUSH2 0x24D SWAP2 SWAP1 PUSH2 0x1C1A JUMP JUMPDEST PUSH2 0x6CE JUMP JUMPDEST PUSH1 0x40 MLOAD PUSH2 0x25F SWAP2 SWAP1 PUSH2 0x1D82 JUMP JUMPDEST PUSH1 0x40 MLOAD DUP1 SWAP2 SUB SWAP1 RETURN JUMPDEST PUSH2 0x282 PUSH1 0x4 DUP1 CALLDATASIZE SUB DUP2 ADD SWAP1 PUSH2 0x27D SWAP2 SWAP1 PUSH2 0x1C5A JUMP JUMPDEST PUSH2 0x7C0 JUMP JUMPDEST PUSH1 0x40 MLOAD PUSH2 0x28F SWAP2 SWAP1 PUSH2 0x1DBF JUMP JUMPDEST PUSH1 0x40 MLOAD DUP1 SWAP2 SUB SWAP1 RETURN JUMPDEST PUSH2 0x2A0 PUSH2 0x84D JUMP JUMPDEST PUSH1 0x40 MLOAD PUSH2 0x2AD SWAP2 SWAP1 PUSH2 0x1DBF JUMP JUMPDEST PUSH1 0x40 MLOAD DUP1 SWAP2 SUB SWAP1 RETURN JUMPDEST PUSH2 0x2BE PUSH2 0x871 JUMP JUMPDEST PUSH1 0x40 MLOAD PUSH2 0x2CB SWAP2 SWAP1 PUSH2 0x1DBF JUMP JUMPDEST PUSH1 0x40 MLOAD DUP1 SWAP2 SUB SWAP1 RETURN JUMPDEST PUSH2 0x2EE PUSH1 0x4 DUP1 CALLDATASIZE SUB DUP2 ADD SWAP1 PUSH2 0x2E9 SWAP2 SWAP1 PUSH2 0x1BC7 JUMP JUMPDEST PUSH2 0x87A JUMP JUMPDEST PUSH1 0x40 MLOAD PUSH2 0x2FB SWAP2 SWAP1 PUSH2 0x1D82 JUMP JUMPDEST PUSH1 0x40 MLOAD DUP1 SWAP2 SUB SWAP1 RETURN JUMPDEST PUSH2 0x30C PUSH2 0xACD JUMP JUMPDEST PUSH1 0x40 MLOAD PUSH2 0x319 SWAP2 SWAP1 PUSH2 0x1DF5 JUMP JUMPDEST PUSH1 0x40 MLOAD DUP1 SWAP2 SUB SWAP1 RETURN JUMPDEST PUSH2 0x33C PUSH1 0x4 DUP1 CALLDATASIZE SUB DUP2 ADD SWAP1 PUSH2 0x337 SWAP2 SWAP1 PUSH2 0x1C5A JUMP JUMPDEST PUSH2 0xAD2 JUMP JUMPDEST PUSH1 0x40 MLOAD PUSH2 0x349 SWAP2 SWAP1 PUSH2 0x1DBF JUMP JUMPDEST PUSH1 0x40 MLOAD DUP1 SWAP2 SUB SWAP1 RETURN JUMPDEST PUSH2 0x35A PUSH2 0xB6C JUMP JUMPDEST PUSH1 0x40 MLOAD PUSH2 0x367 SWAP2 SWAP1 PUSH2 0x1DF5 JUMP JUMPDEST PUSH1 0x40 MLOAD DUP1 SWAP2 SUB SWAP1 RETURN JUMPDEST PUSH2 0x378 PUSH2 0xB75 JUMP JUMPDEST PUSH1 0x40 MLOAD PUSH2 0x385 SWAP2 SWAP1 PUSH2 0x1DBF JUMP JUMPDEST PUSH1 0x40 MLOAD DUP1 SWAP2 SUB SWAP1 RETURN JUMPDEST PUSH2 0x3A8 PUSH1 0x4 DUP1 CALLDATASIZE SUB DUP2 ADD SWAP1 PUSH2 0x3A3 SWAP2 SWAP1 PUSH2 0x1C5A JUMP JUMPDEST PUSH2 0xB7B JUMP JUMPDEST PUSH1 0x40 MLOAD PUSH2 0x3B5 SWAP2 SWAP1 PUSH2 0x1DBF JUMP JUMPDEST PUSH1 0x40 MLOAD DUP1 SWAP2 SUB SWAP1 RETURN JUMPDEST PUSH2 0x3D8 PUSH1 0x4 DUP1 CALLDATASIZE SUB DUP2 ADD SWAP1 PUSH2 0x3D3 SWAP2 SWAP1 PUSH2 0x1C5A JUMP JUMPDEST PUSH2 0xCCF JUMP JUMPDEST PUSH1 0x40 MLOAD PUSH2 0x3E7 SWAP4 SWAP3 SWAP2 SWAP1 PUSH2 0x1D4B JUMP JUMPDEST PUSH1 0x40 MLOAD DUP1 SWAP2 SUB SWAP1 RETURN JUMPDEST PUSH2 0x40A PUSH1 0x4 DUP1 CALLDATASIZE SUB DUP2 ADD SWAP1 PUSH2 0x405 SWAP2 SWAP1 PUSH2 0x1B5A JUMP JUMPDEST PUSH2 0xD29 JUMP JUMPDEST PUSH1 0x40 MLOAD PUSH2 0x417 SWAP2 SWAP1 PUSH2 0x1DBF JUMP JUMPDEST PUSH1 0x40 MLOAD DUP1 SWAP2 SUB SWAP1 RETURN JUMPDEST PUSH2 0x428 PUSH2 0xD72 JUMP JUMPDEST PUSH1 0x40 MLOAD PUSH2 0x435 SWAP2 SWAP1 PUSH2 0x1DBF JUMP JUMPDEST PUSH1 0x40 MLOAD DUP1 SWAP2 SUB SWAP1 RETURN JUMPDEST PUSH2 0x446 PUSH2 0xD95 JUMP JUMPDEST PUSH1 0x40 MLOAD PUSH2 0x453 SWAP2 SWAP1 PUSH2 0x1DDA JUMP JUMPDEST PUSH1 0x40 MLOAD DUP1 SWAP2 SUB SWAP1 RETURN JUMPDEST PUSH2 0x476 PUSH1 0x4 DUP1 CALLDATASIZE SUB DUP2 ADD SWAP1 PUSH2 0x471 SWAP2 SWAP1 PUSH2 0x1C5A JUMP JUMPDEST PUSH2 0xD9C JUMP JUMPDEST PUSH1 0x40 MLOAD PUSH2 0x483 SWAP2 SWAP1 PUSH2 0x1DBF JUMP JUMPDEST PUSH1 0x40 MLOAD DUP1 SWAP2 SUB SWAP1 RETURN JUMPDEST PUSH2 0x4A6 PUSH1 0x4 DUP1 CALLDATASIZE SUB DUP2 ADD SWAP1 PUSH2 0x4A1 SWAP2 SWAP1 PUSH2 0x1C87 JUMP JUMPDEST PUSH2 0xEB7 JUMP JUMPDEST STOP JUMPDEST PUSH2 0x4B0 PUSH2 0x1140 JUMP JUMPDEST PUSH1 0x40 MLOAD PUSH2 0x4BD SWAP2 SWAP1 PUSH2 0x1D9D JUMP JUMPDEST PUSH1 0x40 MLOAD DUP1 SWAP2 SUB SWAP1 RETURN JUMPDEST PUSH2 0x4CE PUSH2 0x117D JUMP JUMPDEST PUSH1 0x40 MLOAD PUSH2 0x4DB SWAP2 SWAP1 PUSH2 0x1D9D JUMP JUMPDEST PUSH1 0x40 MLOAD DUP1 SWAP2 SUB SWAP1 RETURN JUMPDEST PUSH2 0x4EC PUSH2 0x11B6 JUMP JUMPDEST PUSH1 0x40 MLOAD PUSH2 0x4F9 SWAP2 SWAP1 PUSH2 0x1DBF JUMP JUMPDEST PUSH1 0x40 MLOAD DUP1 SWAP2 SUB SWAP1 RETURN JUMPDEST PUSH2 0x51C PUSH1 0x4 DUP1 CALLDATASIZE SUB DUP2 ADD SWAP1 PUSH2 0x517 SWAP2 SWAP1 PUSH2 0x1C1A JUMP JUMPDEST PUSH2 0x11CA JUMP JUMPDEST PUSH1 0x40 MLOAD PUSH2 0x529 SWAP2 SWAP1 PUSH2 0x1D82 JUMP JUMPDEST PUSH1 0x40 MLOAD DUP1 SWAP2 SUB SWAP1 RETURN JUMPDEST PUSH2 0x53A PUSH2 0x12E7 JUMP JUMPDEST PUSH1 0x40 MLOAD PUSH2 0x547 SWAP2 SWAP1 PUSH2 0x1DBF JUMP JUMPDEST PUSH1 0x40 MLOAD DUP1 SWAP2 SUB SWAP1 RETURN JUMPDEST PUSH2 0x558 PUSH2 0x12ED JUMP JUMPDEST PUSH1 0x40 MLOAD PUSH2 0x565 SWAP2 SWAP1 PUSH2 0x1DBF JUMP JUMPDEST PUSH1 0x40 MLOAD DUP1 SWAP2 SUB SWAP1 RETURN JUMPDEST PUSH2 0x576 PUSH2 0x12FA JUMP JUMPDEST PUSH1 0x40 MLOAD PUSH2 0x583 SWAP2 SWAP1 PUSH2 0x1DBF JUMP JUMPDEST PUSH1 0x40 MLOAD DUP1 SWAP2 SUB SWAP1 RETURN JUMPDEST PUSH2 0x5A6 PUSH1 0x4 DUP1 CALLDATASIZE SUB DUP2 ADD SWAP1 PUSH2 0x5A1 SWAP2 SWAP1 PUSH2 0x1B87 JUMP JUMPDEST PUSH2 0x1300 JUMP JUMPDEST PUSH1 0x40 MLOAD PUSH2 0x5B3 SWAP2 SWAP1 PUSH2 0x1DBF JUMP JUMPDEST PUSH1 0x40 MLOAD DUP1 SWAP2 SUB SWAP1 RETURN JUMPDEST PUSH2 0x5D6 PUSH1 0x4 DUP1 CALLDATASIZE SUB DUP2 ADD SWAP1 PUSH2 0x5D1 SWAP2 SWAP1 PUSH2 0x1C5A JUMP JUMPDEST PUSH2 0x1387 JUMP JUMPDEST PUSH1 0x40 MLOAD PUSH2 0x5E3 SWAP2 SWAP1 PUSH2 0x1DBF JUMP JUMPDEST PUSH1 0x40 MLOAD DUP1 SWAP2 SUB SWAP1 RETURN JUMPDEST PUSH2 0x5F4 PUSH2 0x13B9 JUMP JUMPDEST PUSH1 0x40 MLOAD PUSH2 0x601 SWAP2 SWAP1 PUSH2 0x1DBF JUMP JUMPDEST PUSH1 0x40 MLOAD DUP1 SWAP2 SUB SWAP1 RETURN JUMPDEST PUSH2 0x624 PUSH1 0x4 DUP1 CALLDATASIZE SUB DUP2 ADD SWAP1 PUSH2 0x61F SWAP2 SWAP1 PUSH2 0x1C5A JUMP JUMPDEST PUSH2 0x13BF JUMP JUMPDEST STOP JUMPDEST PUSH2 0x62E PUSH2 0x153A JUMP JUMPDEST PUSH1 0x40 MLOAD PUSH2 0x63B SWAP2 SWAP1 PUSH2 0x1D9D JUMP JUMPDEST PUSH1 0x40 MLOAD DUP1 SWAP2 SUB SWAP1 RETURN JUMPDEST PUSH2 0x64C PUSH2 0x1573 JUMP JUMPDEST PUSH1 0x40 MLOAD PUSH2 0x659 SWAP2 SWAP1 PUSH2 0x1DBF JUMP JUMPDEST PUSH1 0x40 MLOAD DUP1 SWAP2 SUB SWAP1 RETURN JUMPDEST PUSH1 0x0 PUSH1 0x3 DUP3 DUP2 SLOAD DUP2 LT PUSH2 0x678 JUMPI PUSH2 0x677 PUSH2 0x21A8 JUMP JUMPDEST JUMPDEST SWAP1 PUSH1 0x0 MSTORE PUSH1 0x20 PUSH1 0x0 KECCAK256 SWAP1 PUSH1 0x3 MUL ADD PUSH1 0x1 ADD SLOAD SWAP1 POP SWAP2 SWAP1 POP JUMP JUMPDEST PUSH1 0x60 PUSH1 0x40 MLOAD DUP1 PUSH1 0x40 ADD PUSH1 0x40 MSTORE DUP1 PUSH1 0xF DUP2 MSTORE PUSH1 0x20 ADD PUSH32 0x5669727475616C20426974636F696E0000000000000000000000000000000000 DUP2 MSTORE POP SWAP1 POP SWAP1 JUMP JUMPDEST PUSH1 0x0 DUP2 PUSH1 0x2 PUSH1 0x0 CALLER PUSH20 0xFFFFFFFFFFFFFFFFFFFFFFFFFFFFFFFFFFFFFFFF AND PUSH20 0xFFFFFFFFFFFFFFFFFFFFFFFFFFFFFFFFFFFFFFFF AND DUP2 MSTORE PUSH1 0x20 ADD SWAP1 DUP2 MSTORE PUSH1 0x20 ADD PUSH1 0x0 KECCAK256 PUSH1 0x0 DUP6 PUSH20 0xFFFFFFFFFFFFFFFFFFFFFFFFFFFFFFFFFFFFFFFF AND PUSH20 0xFFFFFFFFFFFFFFFFFFFFFFFFFFFFFFFFFFFFFFFF AND DUP2 MSTORE PUSH1 0x20 ADD SWAP1 DUP2 MSTORE PUSH1 0x20 ADD PUSH1 0x0 KECCAK256 DUP2 SWAP1 SSTORE POP DUP3 PUSH20 0xFFFFFFFFFFFFFFFFFFFFFFFFFFFFFFFFFFFFFFFF AND CALLER PUSH20 0xFFFFFFFFFFFFFFFFFFFFFFFFFFFFFFFFFFFFFFFF AND PUSH32 0x8C5BE1E5EBEC7D5BD14F71427D1E84F3DD0314C0F7B2291E5B200AC8C7C3B925 DUP5 PUSH1 0x40 MLOAD PUSH2 0x7AE SWAP2 SWAP1 PUSH2 0x1DBF JUMP JUMPDEST PUSH1 0x40 MLOAD DUP1 SWAP2 SUB SWAP1 LOG3 PUSH1 0x1 SWAP1 POP SWAP3 SWAP2 POP POP JUMP JUMPDEST PUSH1 0x0 DUP1 PUSH3 0x401640 PUSH4 0xFFFFFFFF AND PUSH32 0x0 DUP5 PUSH2 0x7F9 SWAP2 SWAP1 PUSH2 0x207E JUMP JUMPDEST PUSH2 0x803 SWAP2 SWAP1 PUSH2 0x1E82 JUMP JUMPDEST SWAP1 POP DUP1 PUSH1 0x2 PUSH2 0x812 SWAP2 SWAP1 PUSH2 0x1F06 JUMP JUMPDEST PUSH1 0xA PUSH1 0x8 PUSH1 0xFF AND PUSH1 0xA PUSH2 0x825 SWAP2 SWAP1 PUSH2 0x1F06 JUMP JUMPDEST PUSH1 0x19 PUSH2 0x831 SWAP2 SWAP1 PUSH2 0x2024 JUMP JUMPDEST PUSH2 0x83B SWAP2 SWAP1 PUSH2 0x1E82 JUMP JUMPDEST PUSH2 0x845 SWAP2 SWAP1 PUSH2 0x1E82 JUMP JUMPDEST SWAP2 POP POP SWAP2 SWAP1 POP JUMP JUMPDEST PUSH32 0x0 DUP2 JUMP JUMPDEST PUSH1 0x0 DUP1 SLOAD SWAP1 POP SWAP1 JUMP JUMPDEST PUSH1 0x0 DUP1 PUSH1 0x2 PUSH1 0x0 DUP7 PUSH20 0xFFFFFFFFFFFFFFFFFFFFFFFFFFFFFFFFFFFFFFFF AND PUSH20 0xFFFFFFFFFFFFFFFFFFFFFFFFFFFFFFFFFFFFFFFF AND DUP2 MSTORE PUSH1 0x20 ADD SWAP1 DUP2 MSTORE PUSH1 0x20 ADD PUSH1 0x0 KECCAK256 PUSH1 0x0 CALLER PUSH20 0xFFFFFFFFFFFFFFFFFFFFFFFFFFFFFFFFFFFFFFFF AND PUSH20 0xFFFFFFFFFFFFFFFFFFFFFFFFFFFFFFFFFFFFFFFF AND DUP2 MSTORE PUSH1 0x20 ADD SWAP1 DUP2 MSTORE PUSH1 0x20 ADD PUSH1 0x0 KECCAK256 SLOAD SWAP1 POP PUSH32 0xFFFFFFFFFFFFFFFFFFFFFFFFFFFFFFFFFFFFFFFFFFFFFFFFFFFFFFFFFFFFFFFF DUP2 EQ PUSH2 0x9B0 JUMPI DUP3 DUP2 PUSH2 0x92F SWAP2 SWAP1 PUSH2 0x207E JUMP JUMPDEST PUSH1 0x2 PUSH1 0x0 DUP8 PUSH20 0xFFFFFFFFFFFFFFFFFFFFFFFFFFFFFFFFFFFFFFFF AND PUSH20 0xFFFFFFFFFFFFFFFFFFFFFFFFFFFFFFFFFFFFFFFF AND DUP2 MSTORE PUSH1 0x20 ADD SWAP1 DUP2 MSTORE PUSH1 0x20 ADD PUSH1 0x0 KECCAK256 PUSH1 0x0 CALLER PUSH20 0xFFFFFFFFFFFFFFFFFFFFFFFFFFFFFFFFFFFFFFFF AND PUSH20 0xFFFFFFFFFFFFFFFFFFFFFFFFFFFFFFFFFFFFFFFF AND DUP2 MSTORE PUSH1 0x20 ADD SWAP1 DUP2 MSTORE PUSH1 0x20 ADD PUSH1 0x0 KECCAK256 DUP2 SWAP1 SSTORE POP JUMPDEST DUP3 PUSH1 0x1 PUSH1 0x0 DUP8 PUSH20 0xFFFFFFFFFFFFFFFFFFFFFFFFFFFFFFFFFFFFFFFF AND PUSH20 0xFFFFFFFFFFFFFFFFFFFFFFFFFFFFFFFFFFFFFFFF AND DUP2 MSTORE PUSH1 0x20 ADD SWAP1 DUP2 MSTORE PUSH1 0x20 ADD PUSH1 0x0 KECCAK256 PUSH1 0x0 DUP3 DUP3 SLOAD PUSH2 0x9FF SWAP2 SWAP1 PUSH2 0x207E JUMP JUMPDEST SWAP3 POP POP DUP2 SWAP1 SSTORE POP DUP3 PUSH1 0x1 PUSH1 0x0 DUP7 PUSH20 0xFFFFFFFFFFFFFFFFFFFFFFFFFFFFFFFFFFFFFFFF AND PUSH20 0xFFFFFFFFFFFFFFFFFFFFFFFFFFFFFFFFFFFFFFFF AND DUP2 MSTORE PUSH1 0x20 ADD SWAP1 DUP2 MSTORE PUSH1 0x20 ADD PUSH1 0x0 KECCAK256 PUSH1 0x0 DUP3 DUP3 SLOAD PUSH2 0xA55 SWAP2 SWAP1 PUSH2 0x1E2C JUMP JUMPDEST SWAP3 POP POP DUP2 SWAP1 SSTORE POP DUP4 PUSH20 0xFFFFFFFFFFFFFFFFFFFFFFFFFFFFFFFFFFFFFFFF AND DUP6 PUSH20 0xFFFFFFFFFFFFFFFFFFFFFFFFFFFFFFFFFFFFFFFF AND PUSH32 0xDDF252AD1BE2C89B69C2B068FC378DAA952BA7F163C4A11628F55A4DF523B3EF DUP6 PUSH1 0x40 MLOAD PUSH2 0xAB9 SWAP2 SWAP1 PUSH2 0x1DBF JUMP JUMPDEST PUSH1 0x40 MLOAD DUP1 SWAP2 SUB SWAP1 LOG3 PUSH1 0x1 SWAP2 POP POP SWAP4 SWAP3 POP POP POP JUMP JUMPDEST PUSH1 0x8 DUP2 JUMP JUMPDEST PUSH1 0x0 PUSH2 0xB06 ADDRESS PUSH1 0x8 PUSH1 0xFF AND PUSH1 0xA PUSH2 0xAE9 SWAP2 SWAP1 PUSH2 0x1F06 JUMP JUMPDEST PUSH2 0x2710 PUSH2 0xAF6 SWAP2 SWAP1 PUSH2 0x2024 JUMP JUMPDEST DUP5 PUSH2 0xB01 SWAP2 SWAP1 PUSH2 0x2024 JUMP JUMPDEST PUSH2 0x11CA JUMP JUMPDEST POP PUSH1 0x0 PUSH2 0xB12 DUP4 PUSH2 0x1594 JUMP JUMPDEST SWAP1 POP DUP1 CALLER PUSH20 0xFFFFFFFFFFFFFFFFFFFFFFFFFFFFFFFFFFFFFFFF AND PUSH32 0x1D73F6A4197AD5E95D19DFFB0C8E64B71BED8F02B744DE7BECEC8F076EEC82A9 DUP6 PUSH1 0x40 MLOAD PUSH2 0xB5B SWAP2 SWAP1 PUSH2 0x1DBF JUMP JUMPDEST PUSH1 0x40 MLOAD DUP1 SWAP2 SUB SWAP1 LOG3 DUP1 SWAP2 POP POP SWAP2 SWAP1 POP JUMP JUMPDEST PUSH1 0x0 PUSH1 0x8 SWAP1 POP SWAP1 JUMP JUMPDEST PUSH1 0x5 SLOAD DUP2 JUMP JUMPDEST PUSH1 0x0 DUP1 PUSH1 0x3 DUP4 DUP2 SLOAD DUP2 LT PUSH2 0xB92 JUMPI PUSH2 0xB91 PUSH2 0x21A8 JUMP JUMPDEST JUMPDEST SWAP1 PUSH1 0x0 MSTORE PUSH1 0x20 PUSH1 0x0 KECCAK256 SWAP1 PUSH1 0x3 MUL ADD SWAP1 POP CALLER PUSH20 0xFFFFFFFFFFFFFFFFFFFFFFFFFFFFFFFFFFFFFFFF AND DUP2 PUSH1 0x0 ADD PUSH1 0x0 SWAP1 SLOAD SWAP1 PUSH2 0x100 EXP SWAP1 DIV PUSH20 0xFFFFFFFFFFFFFFFFFFFFFFFFFFFFFFFFFFFFFFFF AND PUSH20 0xFFFFFFFFFFFFFFFFFFFFFFFFFFFFFFFFFFFFFFFF AND EQ PUSH2 0xBFE JUMPI PUSH1 0x0 DUP1 REVERT JUMPDEST PUSH1 0x0 DUP2 PUSH1 0x1 ADD SLOAD SWAP1 POP PUSH1 0x0 PUSH2 0xC11 PUSH2 0x16AC JUMP JUMPDEST SWAP1 POP PUSH1 0x0 DUP4 PUSH1 0x2 ADD SLOAD PUSH2 0x2710 DUP5 DUP5 PUSH2 0xC29 SWAP2 SWAP1 PUSH2 0x2024 JUMP JUMPDEST PUSH2 0xC33 SWAP2 SWAP1 PUSH2 0x1E82 JUMP JUMPDEST PUSH2 0xC3D SWAP2 SWAP1 PUSH2 0x207E JUMP JUMPDEST SWAP1 POP PUSH1 0x0 DUP2 GT ISZERO PUSH2 0xC53 JUMPI PUSH2 0xC52 CALLER DUP3 PUSH2 0x16DD JUMP JUMPDEST JUMPDEST PUSH2 0x2710 DUP4 DUP4 PUSH2 0xC62 SWAP2 SWAP1 PUSH2 0x2024 JUMP JUMPDEST PUSH2 0xC6C SWAP2 SWAP1 PUSH2 0x1E82 JUMP JUMPDEST DUP5 PUSH1 0x2 ADD DUP2 SWAP1 SSTORE POP DUP6 CALLER PUSH20 0xFFFFFFFFFFFFFFFFFFFFFFFFFFFFFFFFFFFFFFFF AND PUSH32 0x4CD36FB76975AB408E67B9FF3C17B4DD03112963AED18CCD8907A0C8B77DAEC2 DUP4 PUSH1 0x40 MLOAD PUSH2 0xCBB SWAP2 SWAP1 PUSH2 0x1DBF JUMP JUMPDEST PUSH1 0x40 MLOAD DUP1 SWAP2 SUB SWAP1 LOG3 DUP1 SWAP5 POP POP POP POP POP SWAP2 SWAP1 POP JUMP JUMPDEST PUSH1 0x3 DUP2 DUP2 SLOAD DUP2 LT PUSH2 0xCDF JUMPI PUSH1 0x0 DUP1 REVERT JUMPDEST SWAP1 PUSH1 0x0 MSTORE PUSH1 0x20 PUSH1 0x0 KECCAK256 SWAP1 PUSH1 0x3 MUL ADD PUSH1 0x0 SWAP2 POP SWAP1 POP DUP1 PUSH1 0x0 ADD PUSH1 0x0 SWAP1 SLOAD SWAP1 PUSH2 0x100 EXP SWAP1 DIV PUSH20 0xFFFFFFFFFFFFFFFFFFFFFFFFFFFFFFFFFFFFFFFF AND SWAP1 DUP1 PUSH1 0x1 ADD SLOAD SWAP1 DUP1 PUSH1 0x2 ADD SLOAD SWAP1 POP DUP4 JUMP JUMPDEST PUSH1 0x0 PUSH1 0x1 PUSH1 0x0 DUP4 PUSH20 0xFFFFFFFFFFFFFFFFFFFFFFFFFFFFFFFFFFFFFFFF AND PUSH20 0xFFFFFFFFFFFFFFFFFFFFFFFFFFFFFFFFFFFFFFFF AND DUP2 MSTORE PUSH1 0x20 ADD SWAP1 DUP2 MSTORE PUSH1 0x20 ADD PUSH1 0x0 KECCAK256 SLOAD SWAP1 POP SWAP2 SWAP1 POP JUMP JUMPDEST PUSH1 0x8 PUSH1 0xFF AND PUSH1 0xA PUSH2 0xD83 SWAP2 SWAP1 PUSH2 0x1F06 JUMP JUMPDEST PUSH4 0x1406F40 PUSH2 0xD92 SWAP2 SWAP1 PUSH2 0x2024 JUMP JUMPDEST DUP2 JUMP JUMPDEST PUSH3 0x401640 DUP2 JUMP JUMPDEST PUSH1 0x0 DUP1 PUSH1 0x3 DUP4 DUP2 SLOAD DUP2 LT PUSH2 0xDB3 JUMPI PUSH2 0xDB2 PUSH2 0x21A8 JUMP JUMPDEST JUMPDEST SWAP1 PUSH1 0x0 MSTORE PUSH1 0x20 PUSH1 0x0 KECCAK256 SWAP1 PUSH1 0x3 MUL ADD PUSH1 0x40 MLOAD DUP1 PUSH1 0x60 ADD PUSH1 0x40 MSTORE SWAP1 DUP2 PUSH1 0x0 DUP3 ADD PUSH1 0x0 SWAP1 SLOAD SWAP1 PUSH2 0x100 EXP SWAP1 DIV PUSH20 0xFFFFFFFFFFFFFFFFFFFFFFFFFFFFFFFFFFFFFFFF AND PUSH20 0xFFFFFFFFFFFFFFFFFFFFFFFFFFFFFFFFFFFFFFFF AND PUSH20 0xFFFFFFFFFFFFFFFFFFFFFFFFFFFFFFFFFFFFFFFF AND DUP2 MSTORE PUSH1 0x20 ADD PUSH1 0x1 DUP3 ADD SLOAD DUP2 MSTORE PUSH1 0x20 ADD PUSH1 0x2 DUP3 ADD SLOAD DUP2 MSTORE POP POP SWAP1 POP PUSH1 0x0 PUSH20 0xFFFFFFFFFFFFFFFFFFFFFFFFFFFFFFFFFFFFFFFF AND DUP2 PUSH1 0x0 ADD MLOAD PUSH20 0xFFFFFFFFFFFFFFFFFFFFFFFFFFFFFFFFFFFFFFFF AND EQ ISZERO PUSH2 0xE7B JUMPI PUSH1 0x0 SWAP2 POP POP PUSH2 0xEB2 JUMP JUMPDEST DUP1 PUSH1 0x40 ADD MLOAD PUSH2 0x2710 DUP3 PUSH1 0x20 ADD MLOAD PUSH2 0xE90 PUSH2 0x17B5 JUMP JUMPDEST PUSH2 0xE9A SWAP2 SWAP1 PUSH2 0x2024 JUMP JUMPDEST PUSH2 0xEA4 SWAP2 SWAP1 PUSH2 0x1E82 JUMP JUMPDEST PUSH2 0xEAE SWAP2 SWAP1 PUSH2 0x207E JUMP JUMPDEST SWAP2 POP POP JUMPDEST SWAP2 SWAP1 POP JUMP JUMPDEST PUSH1 0x0 PUSH1 0x3 DUP4 DUP2 SLOAD DUP2 LT PUSH2 0xECD JUMPI PUSH2 0xECC PUSH2 0x21A8 JUMP JUMPDEST JUMPDEST SWAP1 PUSH1 0x0 MSTORE PUSH1 0x20 PUSH1 0x0 KECCAK256 SWAP1 PUSH1 0x3 MUL ADD SWAP1 POP PUSH1 0x0 DUP4 EQ ISZERO PUSH2 0xEEB JUMPI PUSH1 0x0 DUP1 REVERT JUMPDEST CALLER PUSH20 0xFFFFFFFFFFFFFFFFFFFFFFFFFFFFFFFFFFFFFFFF AND DUP2 PUSH1 0x0 ADD PUSH1 0x0 SWAP1 SLOAD SWAP1 PUSH2 0x100 EXP SWAP1 DIV PUSH20 0xFFFFFFFFFFFFFFFFFFFFFFFFFFFFFFFFFFFFFFFF AND PUSH20 0xFFFFFFFFFFFFFFFFFFFFFFFFFFFFFFFFFFFFFFFF AND EQ PUSH2 0xF47 JUMPI PUSH1 0x0 DUP1 REVERT JUMPDEST PUSH1 0x0 DUP2 PUSH1 0x1 ADD SLOAD SWAP1 POP DUP3 DUP2 EQ ISZERO PUSH2 0xF5D JUMPI PUSH1 0x0 DUP1 REVERT JUMPDEST PUSH1 0x0 PUSH2 0xF67 PUSH2 0x16AC JUMP JUMPDEST SWAP1 POP PUSH1 0x0 DUP4 PUSH1 0x2 ADD SLOAD PUSH2 0x2710 DUP5 DUP5 PUSH2 0xF7F SWAP2 SWAP1 PUSH2 0x2024 JUMP JUMPDEST PUSH2 0xF89 SWAP2 SWAP1 PUSH2 0x1E82 JUMP JUMPDEST PUSH2 0xF93 SWAP2 SWAP1 PUSH2 0x207E JUMP JUMPDEST SWAP1 POP PUSH1 0x0 DUP2 GT ISZERO PUSH2 0xFA9 JUMPI PUSH2 0xFA8 CALLER DUP3 PUSH2 0x16DD JUMP JUMPDEST JUMPDEST DUP6 CALLER PUSH20 0xFFFFFFFFFFFFFFFFFFFFFFFFFFFFFFFFFFFFFFFF AND PUSH32 0x4CD36FB76975AB408E67B9FF3C17B4DD03112963AED18CCD8907A0C8B77DAEC2 DUP4 PUSH1 0x40 MLOAD PUSH2 0xFF0 SWAP2 SWAP1 PUSH2 0x1DBF JUMP JUMPDEST PUSH1 0x40 MLOAD DUP1 SWAP2 SUB SWAP1 LOG3 DUP5 DUP4 LT ISZERO PUSH2 0x1062 JUMPI PUSH1 0x0 DUP4 DUP7 PUSH2 0x100E SWAP2 SWAP1 PUSH2 0x207E JUMP JUMPDEST SWAP1 POP PUSH2 0x1042 ADDRESS PUSH1 0x8 PUSH1 0xFF AND PUSH1 0xA PUSH2 0x1025 SWAP2 SWAP1 PUSH2 0x1F06 JUMP JUMPDEST PUSH2 0x2710 PUSH2 0x1032 SWAP2 SWAP1 PUSH2 0x2024 JUMP JUMPDEST DUP4 PUSH2 0x103D SWAP2 SWAP1 PUSH2 0x2024 JUMP JUMPDEST PUSH2 0x11CA JUMP JUMPDEST POP DUP1 PUSH1 0x6 PUSH1 0x0 DUP3 DUP3 SLOAD PUSH2 0x1055 SWAP2 SWAP1 PUSH2 0x1E2C JUMP JUMPDEST SWAP3 POP POP DUP2 SWAP1 SSTORE POP POP PUSH2 0x10BF JUMP JUMPDEST PUSH1 0x0 DUP6 DUP5 PUSH2 0x1070 SWAP2 SWAP1 PUSH2 0x207E JUMP JUMPDEST SWAP1 POP PUSH2 0x10A4 CALLER PUSH1 0x8 PUSH1 0xFF AND PUSH1 0xA PUSH2 0x1087 SWAP2 SWAP1 PUSH2 0x1F06 JUMP JUMPDEST PUSH2 0x2710 PUSH2 0x1094 SWAP2 SWAP1 PUSH2 0x2024 JUMP JUMPDEST DUP4 PUSH2 0x109F SWAP2 SWAP1 PUSH2 0x2024 JUMP JUMPDEST PUSH2 0x1A1B JUMP JUMPDEST DUP1 PUSH1 0x6 PUSH1 0x0 DUP3 DUP3 SLOAD PUSH2 0x10B6 SWAP2 SWAP1 PUSH2 0x207E JUMP JUMPDEST SWAP3 POP POP DUP2 SWAP1 SSTORE POP POP JUMPDEST PUSH2 0x2710 DUP6 DUP4 PUSH2 0x10CE SWAP2 SWAP1 PUSH2 0x2024 JUMP JUMPDEST PUSH2 0x10D8 SWAP2 SWAP1 PUSH2 0x1E82 JUMP JUMPDEST DUP5 PUSH1 0x2 ADD DUP2 SWAP1 SSTORE POP DUP5 DUP5 PUSH1 0x1 ADD DUP2 SWAP1 SSTORE POP DUP6 CALLER PUSH20 0xFFFFFFFFFFFFFFFFFFFFFFFFFFFFFFFFFFFFFFFF AND PUSH32 0xDDAC5028A22C95D7D47EC1D2F51A72EDC856A86565BFBD27C18CE2F31825E851 DUP8 PUSH1 0x40 MLOAD PUSH2 0x1130 SWAP2 SWAP1 PUSH2 0x1DBF JUMP JUMPDEST PUSH1 0x40 MLOAD DUP1 SWAP2 SUB SWAP1 LOG3 POP POP POP POP POP POP JUMP JUMPDEST PUSH1 0x60 PUSH1 0x40 MLOAD DUP1 PUSH1 0x40 ADD PUSH1 0x40 MSTORE DUP1 PUSH1 0x4 DUP2 MSTORE PUSH1 0x20 ADD PUSH32 0x5642544300000000000000000000000000000000000000000000000000000000 DUP2 MSTORE POP SWAP1 POP SWAP1 JUMP JUMPDEST PUSH1 0x40 MLOAD DUP1 PUSH1 0x40 ADD PUSH1 0x40 MSTORE DUP1 PUSH1 0xF DUP2 MSTORE PUSH1 0x20 ADD PUSH32 0x5669727475616C20426974636F696E0000000000000000000000000000000000 DUP2 MSTORE POP DUP2 JUMP JUMPDEST PUSH1 0x8 PUSH1 0xFF AND PUSH1 0xA PUSH2 0x11C7 SWAP2 SWAP1 PUSH2 0x1F06 JUMP JUMPDEST DUP2 JUMP JUMPDEST PUSH1 0x0 DUP2 PUSH1 0x1 PUSH1 0x0 CALLER PUSH20 0xFFFFFFFFFFFFFFFFFFFFFFFFFFFFFFFFFFFFFFFF AND PUSH20 0xFFFFFFFFFFFFFFFFFFFFFFFFFFFFFFFFFFFFFFFF AND DUP2 MSTORE PUSH1 0x20 ADD SWAP1 DUP2 MSTORE PUSH1 0x20 ADD PUSH1 0x0 KECCAK256 PUSH1 0x0 DUP3 DUP3 SLOAD PUSH2 0x121B SWAP2 SWAP1 PUSH2 0x207E JUMP JUMPDEST SWAP3 POP POP DUP2 SWAP1 SSTORE POP DUP2 PUSH1 0x1 PUSH1 0x0 DUP6 PUSH20 0xFFFFFFFFFFFFFFFFFFFFFFFFFFFFFFFFFFFFFFFF AND PUSH20 0xFFFFFFFFFFFFFFFFFFFFFFFFFFFFFFFFFFFFFFFF AND DUP2 MSTORE PUSH1 0x20 ADD SWAP1 DUP2 MSTORE PUSH1 0x20 ADD PUSH1 0x0 KECCAK256 PUSH1 0x0 DUP3 DUP3 SLOAD PUSH2 0x1271 SWAP2 SWAP1 PUSH2 0x1E2C JUMP JUMPDEST SWAP3 POP POP DUP2 SWAP1 SSTORE POP DUP3 PUSH20 0xFFFFFFFFFFFFFFFFFFFFFFFFFFFFFFFFFFFFFFFF AND CALLER PUSH20 0xFFFFFFFFFFFFFFFFFFFFFFFFFFFFFFFFFFFFFFFF AND PUSH32 0xDDF252AD1BE2C89B69C2B068FC378DAA952BA7F163C4A11628F55A4DF523B3EF DUP5 PUSH1 0x40 MLOAD PUSH2 0x12D5 SWAP2 SWAP1 PUSH2 0x1DBF JUMP JUMPDEST PUSH1 0x40 MLOAD DUP1 SWAP2 SUB SWAP1 LOG3 PUSH1 0x1 SWAP1 POP SWAP3 SWAP2 POP POP JUMP JUMPDEST PUSH2 0x2710 DUP2 JUMP JUMPDEST PUSH1 0x0 PUSH1 0x3 DUP1 SLOAD SWAP1 POP SWAP1 POP SWAP1 JUMP JUMPDEST PUSH1 0x6 SLOAD DUP2 JUMP JUMPDEST PUSH1 0x0 PUSH1 0x2 PUSH1 0x0 DUP5 PUSH20 0xFFFFFFFFFFFFFFFFFFFFFFFFFFFFFFFFFFFFFFFF AND PUSH20 0xFFFFFFFFFFFFFFFFFFFFFFFFFFFFFFFFFFFFFFFF AND DUP2 MSTORE PUSH1 0x20 ADD SWAP1 DUP2 MSTORE PUSH1 0x20 ADD PUSH1 0x0 KECCAK256 PUSH1 0x0 DUP4 PUSH20 0xFFFFFFFFFFFFFFFFFFFFFFFFFFFFFFFFFFFFFFFF AND PUSH20 0xFFFFFFFFFFFFFFFFFFFFFFFFFFFFFFFFFFFFFFFF AND DUP2 MSTORE PUSH1 0x20 ADD SWAP1 DUP2 MSTORE PUSH1 0x20 ADD PUSH1 0x0 KECCAK256 SLOAD SWAP1 POP SWAP3 SWAP2 POP POP JUMP JUMPDEST PUSH1 0x0 PUSH1 0x8 PUSH1 0xFF AND PUSH1 0xA PUSH2 0x139A SWAP2 SWAP1 PUSH2 0x1F06 JUMP JUMPDEST PUSH2 0x2710 PUSH2 0x13A7 SWAP2 SWAP1 PUSH2 0x2024 JUMP JUMPDEST DUP3 PUSH2 0x13B2 SWAP2 SWAP1 PUSH2 0x2024 JUMP JUMPDEST SWAP1 POP SWAP2 SWAP1 POP JUMP JUMPDEST PUSH1 0x4 SLOAD DUP2 JUMP JUMPDEST PUSH1 0x0 PUSH1 0x3 DUP3 DUP2 SLOAD DUP2 LT PUSH2 0x13D5 JUMPI PUSH2 0x13D4 PUSH2 0x21A8 JUMP JUMPDEST JUMPDEST SWAP1 PUSH1 0x0 MSTORE PUSH1 0x20 PUSH1 0x0 KECCAK256 SWAP1 PUSH1 0x3 MUL ADD SWAP1 POP PUSH1 0x0 DUP3 EQ ISZERO PUSH2 0x13F3 JUMPI PUSH1 0x0 DUP1 REVERT JUMPDEST CALLER PUSH20 0xFFFFFFFFFFFFFFFFFFFFFFFFFFFFFFFFFFFFFFFF AND DUP2 PUSH1 0x0 ADD PUSH1 0x0 SWAP1 SLOAD SWAP1 PUSH2 0x100 EXP SWAP1 DIV PUSH20 0xFFFFFFFFFFFFFFFFFFFFFFFFFFFFFFFFFFFFFFFF AND PUSH20 0xFFFFFFFFFFFFFFFFFFFFFFFFFFFFFFFFFFFFFFFF AND EQ PUSH2 0x144F JUMPI PUSH1 0x0 DUP1 REVERT JUMPDEST PUSH1 0x0 DUP2 PUSH1 0x1 ADD SLOAD SWAP1 POP PUSH2 0x1461 DUP4 PUSH2 0xB7B JUMP JUMPDEST POP PUSH1 0x0 DUP3 PUSH1 0x0 ADD PUSH1 0x0 PUSH2 0x100 EXP DUP2 SLOAD DUP2 PUSH20 0xFFFFFFFFFFFFFFFFFFFFFFFFFFFFFFFFFFFFFFFF MUL NOT AND SWAP1 DUP4 PUSH20 0xFFFFFFFFFFFFFFFFFFFFFFFFFFFFFFFFFFFFFFFF AND MUL OR SWAP1 SSTORE POP DUP1 PUSH1 0x6 PUSH1 0x0 DUP3 DUP3 SLOAD PUSH2 0x14B8 SWAP2 SWAP1 PUSH2 0x207E JUMP JUMPDEST SWAP3 POP POP DUP2 SWAP1 SSTORE POP PUSH2 0x14F1 CALLER PUSH1 0x8 PUSH1 0xFF AND PUSH1 0xA PUSH2 0x14D4 SWAP2 SWAP1 PUSH2 0x1F06 JUMP JUMPDEST PUSH2 0x2710 PUSH2 0x14E1 SWAP2 SWAP1 PUSH2 0x2024 JUMP JUMPDEST DUP4 PUSH2 0x14EC SWAP2 SWAP1 PUSH2 0x2024 JUMP JUMPDEST PUSH2 0x1A1B JUMP JUMPDEST DUP3 CALLER PUSH20 0xFFFFFFFFFFFFFFFFFFFFFFFFFFFFFFFFFFFFFFFF AND PUSH32 0x7443D543988088AA1062DD69A78779C9EA88934042CDC3A63A0452F3DF3AD1AC PUSH1 0x40 MLOAD PUSH1 0x40 MLOAD DUP1 SWAP2 SUB SWAP1 LOG3 POP POP POP JUMP JUMPDEST PUSH1 0x40 MLOAD DUP1 PUSH1 0x40 ADD PUSH1 0x40 MSTORE DUP1 PUSH1 0x4 DUP2 MSTORE PUSH1 0x20 ADD PUSH32 0x5642544300000000000000000000000000000000000000000000000000000000 DUP2 MSTORE POP DUP2 JUMP JUMPDEST PUSH1 0x8 PUSH1 0xFF AND PUSH1 0xA PUSH2 0x1584 SWAP2 SWAP1 PUSH2 0x1F06 JUMP JUMPDEST PUSH2 0x2710 PUSH2 0x1591 SWAP2 SWAP1 PUSH2 0x2024 JUMP JUMPDEST DUP2 JUMP JUMPDEST PUSH1 0x0 DUP1 DUP3 GT PUSH2 0x15A2 JUMPI PUSH1 0x0 DUP1 REVERT JUMPDEST PUSH1 0x0 PUSH1 0x3 DUP1 SLOAD SWAP1 POP SWAP1 POP PUSH1 0x0 PUSH2 0x15B6 PUSH2 0x16AC JUMP JUMPDEST SWAP1 POP PUSH1 0x3 PUSH1 0x40 MLOAD DUP1 PUSH1 0x60 ADD PUSH1 0x40 MSTORE DUP1 CALLER PUSH20 0xFFFFFFFFFFFFFFFFFFFFFFFFFFFFFFFFFFFFFFFF AND DUP2 MSTORE PUSH1 0x20 ADD DUP7 DUP2 MSTORE PUSH1 0x20 ADD PUSH2 0x2710 DUP8 DUP6 PUSH2 0x15F6 SWAP2 SWAP1 PUSH2 0x2024 JUMP JUMPDEST PUSH2 0x1600 SWAP2 SWAP1 PUSH2 0x1E82 JUMP JUMPDEST DUP2 MSTORE POP SWAP1 DUP1 PUSH1 0x1 DUP2 SLOAD ADD DUP1 DUP3 SSTORE DUP1 SWAP2 POP POP PUSH1 0x1 SWAP1 SUB SWAP1 PUSH1 0x0 MSTORE PUSH1 0x20 PUSH1 0x0 KECCAK256 SWAP1 PUSH1 0x3 MUL ADD PUSH1 0x0 SWAP1 SWAP2 SWAP1 SWAP2 SWAP1 SWAP2 POP PUSH1 0x0 DUP3 ADD MLOAD DUP2 PUSH1 0x0 ADD PUSH1 0x0 PUSH2 0x100 EXP DUP2 SLOAD DUP2 PUSH20 0xFFFFFFFFFFFFFFFFFFFFFFFFFFFFFFFFFFFFFFFF MUL NOT AND SWAP1 DUP4 PUSH20 0xFFFFFFFFFFFFFFFFFFFFFFFFFFFFFFFFFFFFFFFF AND MUL OR SWAP1 SSTORE POP PUSH1 0x20 DUP3 ADD MLOAD DUP2 PUSH1 0x1 ADD SSTORE PUSH1 0x40 DUP3 ADD MLOAD DUP2 PUSH1 0x2 ADD SSTORE POP POP DUP4 PUSH1 0x6 PUSH1 0x0 DUP3 DUP3 SLOAD PUSH2 0x169B SWAP2 SWAP1 PUSH2 0x1E2C JUMP JUMPDEST SWAP3 POP POP DUP2 SWAP1 SSTORE POP DUP2 SWAP3 POP POP POP SWAP2 SWAP1 POP JUMP JUMPDEST PUSH1 0x0 NUMBER PUSH1 0x4 SLOAD EQ PUSH2 0x16D4 JUMPI PUSH2 0x16BF PUSH2 0x17B5 JUMP JUMPDEST SWAP1 POP DUP1 PUSH1 0x5 DUP2 SWAP1 SSTORE POP NUMBER PUSH1 0x4 DUP2 SWAP1 SSTORE POP PUSH2 0x16DA JUMP JUMPDEST PUSH1 0x5 SLOAD SWAP1 POP JUMPDEST SWAP1 JUMP JUMPDEST DUP1 PUSH1 0x1 PUSH1 0x0 DUP5 PUSH20 0xFFFFFFFFFFFFFFFFFFFFFFFFFFFFFFFFFFFFFFFF AND PUSH20 0xFFFFFFFFFFFFFFFFFFFFFFFFFFFFFFFFFFFFFFFF AND DUP2 MSTORE PUSH1 0x20 ADD SWAP1 DUP2 MSTORE PUSH1 0x20 ADD PUSH1 0x0 KECCAK256 PUSH1 0x0 DUP3 DUP3 SLOAD PUSH2 0x172C SWAP2 SWAP1 PUSH2 0x1E2C JUMP JUMPDEST SWAP3 POP POP DUP2 SWAP1 SSTORE POP DUP1 PUSH1 0x0 DUP1 DUP3 DUP3 SLOAD PUSH2 0x1744 SWAP2 SWAP1 PUSH2 0x1E2C JUMP JUMPDEST SWAP3 POP POP DUP2 SWAP1 SSTORE POP DUP2 PUSH20 0xFFFFFFFFFFFFFFFFFFFFFFFFFFFFFFFFFFFFFFFF AND PUSH1 0x0 PUSH20 0xFFFFFFFFFFFFFFFFFFFFFFFFFFFFFFFFFFFFFFFF AND PUSH32 0xDDF252AD1BE2C89B69C2B068FC378DAA952BA7F163C4A11628F55A4DF523B3EF DUP4 PUSH1 0x40 MLOAD PUSH2 0x17A9 SWAP2 SWAP1 PUSH2 0x1DBF JUMP JUMPDEST PUSH1 0x40 MLOAD DUP1 SWAP2 SUB SWAP1 LOG3 POP POP JUMP JUMPDEST PUSH1 0x0 DUP1 PUSH1 0x4 SLOAD SWAP1 POP PUSH1 0x0 DUP1 PUSH3 0x401640 PUSH4 0xFFFFFFFF AND PUSH32 0x0 DUP5 PUSH2 0x17F6 SWAP2 SWAP1 PUSH2 0x207E JUMP JUMPDEST PUSH2 0x1800 SWAP2 SWAP1 PUSH2 0x1E82 JUMP JUMPDEST SWAP1 POP PUSH1 0x0 PUSH3 0x401640 PUSH4 0xFFFFFFFF AND PUSH32 0x0 NUMBER PUSH2 0x183A SWAP2 SWAP1 PUSH2 0x207E JUMP JUMPDEST PUSH2 0x1844 SWAP2 SWAP1 PUSH2 0x1E82 JUMP JUMPDEST SWAP1 POP DUP1 DUP3 EQ ISZERO PUSH2 0x1874 JUMPI PUSH2 0x1857 NUMBER PUSH2 0x7C0 JUMP JUMPDEST DUP5 NUMBER PUSH2 0x1863 SWAP2 SWAP1 PUSH2 0x207E JUMP JUMPDEST PUSH2 0x186D SWAP2 SWAP1 PUSH2 0x2024 JUMP JUMPDEST SWAP3 POP PUSH2 0x19EA JUMP JUMPDEST PUSH1 0x0 PUSH32 0x0 PUSH3 0x401640 PUSH4 0xFFFFFFFF AND PUSH1 0x1 DUP6 PUSH2 0x18AE SWAP2 SWAP1 PUSH2 0x1E2C JUMP JUMPDEST PUSH2 0x18B8 SWAP2 SWAP1 PUSH2 0x2024 JUMP JUMPDEST PUSH2 0x18C2 SWAP2 SWAP1 PUSH2 0x1E2C JUMP JUMPDEST SWAP1 POP PUSH2 0x18CD DUP6 PUSH2 0x7C0 JUMP JUMPDEST DUP6 DUP3 PUSH2 0x18D9 SWAP2 SWAP1 PUSH2 0x207E JUMP JUMPDEST PUSH2 0x18E3 SWAP2 SWAP1 PUSH2 0x2024 JUMP JUMPDEST SWAP4 POP PUSH1 0x0 DUP4 DUP4 PUSH2 0x18F3 SWAP2 SWAP1 PUSH2 0x207E JUMP JUMPDEST SWAP1 POP PUSH1 0x0 PUSH1 0x1 SWAP1 POP JUMPDEST DUP2 DUP2 LT ISZERO PUSH2 0x19BA JUMPI PUSH32 0x0 PUSH3 0x401640 PUSH4 0xFFFFFFFF AND DUP3 PUSH1 0x1 DUP9 PUSH2 0x193D SWAP2 SWAP1 PUSH2 0x1E2C JUMP JUMPDEST PUSH2 0x1947 SWAP2 SWAP1 PUSH2 0x1E2C JUMP JUMPDEST PUSH2 0x1951 SWAP2 SWAP1 PUSH2 0x2024 JUMP JUMPDEST PUSH2 0x195B SWAP2 SWAP1 PUSH2 0x1E2C JUMP JUMPDEST SWAP3 POP PUSH2 0x1985 DUP2 PUSH3 0x401640 PUSH4 0xFFFFFFFF AND PUSH2 0x1975 SWAP2 SWAP1 PUSH2 0x2024 JUMP JUMPDEST DUP9 PUSH2 0x1980 SWAP2 SWAP1 PUSH2 0x1E2C JUMP JUMPDEST PUSH2 0x7C0 JUMP JUMPDEST PUSH3 0x401640 PUSH4 0xFFFFFFFF AND PUSH2 0x1999 SWAP2 SWAP1 PUSH2 0x2024 JUMP JUMPDEST DUP7 PUSH2 0x19A4 SWAP2 SWAP1 PUSH2 0x1E2C JUMP JUMPDEST SWAP6 POP PUSH1 0x1 DUP2 PUSH2 0x19B3 SWAP2 SWAP1 PUSH2 0x1E2C JUMP JUMPDEST SWAP1 POP PUSH2 0x18FC JUMP JUMPDEST POP PUSH2 0x19C4 NUMBER PUSH2 0x7C0 JUMP JUMPDEST DUP3 NUMBER PUSH2 0x19D0 SWAP2 SWAP1 PUSH2 0x207E JUMP JUMPDEST PUSH2 0x19DA SWAP2 SWAP1 PUSH2 0x2024 JUMP JUMPDEST DUP6 PUSH2 0x19E5 SWAP2 SWAP1 PUSH2 0x1E2C JUMP JUMPDEST SWAP5 POP POP POP JUMPDEST PUSH1 0x6 SLOAD PUSH2 0x2710 DUP5 PUSH2 0x19FB SWAP2 SWAP1 PUSH2 0x2024 JUMP JUMPDEST PUSH2 0x1A05 SWAP2 SWAP1 PUSH2 0x1E82 JUMP JUMPDEST PUSH1 0x5 SLOAD PUSH2 0x1A12 SWAP2 SWAP1 PUSH2 0x1E2C JUMP JUMPDEST SWAP5 POP POP POP POP POP SWAP1 JUMP JUMPDEST DUP1 PUSH1 0x1 PUSH1 0x0 ADDRESS PUSH20 0xFFFFFFFFFFFFFFFFFFFFFFFFFFFFFFFFFFFFFFFF AND PUSH20 0xFFFFFFFFFFFFFFFFFFFFFFFFFFFFFFFFFFFFFFFF AND DUP2 MSTORE PUSH1 0x20 ADD SWAP1 DUP2 MSTORE PUSH1 0x20 ADD PUSH1 0x0 KECCAK256 PUSH1 0x0 DUP3 DUP3 SLOAD PUSH2 0x1A6A SWAP2 SWAP1 PUSH2 0x207E JUMP JUMPDEST SWAP3 POP POP DUP2 SWAP1 SSTORE POP DUP1 PUSH1 0x1 PUSH1 0x0 DUP5 PUSH20 0xFFFFFFFFFFFFFFFFFFFFFFFFFFFFFFFFFFFFFFFF AND PUSH20 0xFFFFFFFFFFFFFFFFFFFFFFFFFFFFFFFFFFFFFFFF AND DUP2 MSTORE PUSH1 0x20 ADD SWAP1 DUP2 MSTORE PUSH1 0x20 ADD PUSH1 0x0 KECCAK256 PUSH1 0x0 DUP3 DUP3 SLOAD PUSH2 0x1AC0 SWAP2 SWAP1 PUSH2 0x1E2C JUMP JUMPDEST SWAP3 POP POP DUP2 SWAP1 SSTORE POP DUP2 PUSH20 0xFFFFFFFFFFFFFFFFFFFFFFFFFFFFFFFFFFFFFFFF AND ADDRESS PUSH20 0xFFFFFFFFFFFFFFFFFFFFFFFFFFFFFFFFFFFFFFFF AND PUSH32 0xDDF252AD1BE2C89B69C2B068FC378DAA952BA7F163C4A11628F55A4DF523B3EF DUP4 PUSH1 0x40 MLOAD PUSH2 0x1B24 SWAP2 SWAP1 PUSH2 0x1DBF JUMP JUMPDEST PUSH1 0x40 MLOAD DUP1 SWAP2 SUB SWAP1 LOG3 POP POP JUMP JUMPDEST PUSH1 0x0 DUP2 CALLDATALOAD SWAP1 POP PUSH2 0x1B3F DUP2 PUSH2 0x21FA JUMP JUMPDEST SWAP3 SWAP2 POP POP JUMP JUMPDEST PUSH1 0x0 DUP2 CALLDATALOAD SWAP1 POP PUSH2 0x1B54 DUP2 PUSH2 0x2211 JUMP JUMPDEST SWAP3 SWAP2 POP POP JUMP JUMPDEST PUSH1 0x0 PUSH1 0x20 DUP3 DUP5 SUB SLT ISZERO PUSH2 0x1B70 JUMPI PUSH2 0x1B6F PUSH2 0x21D7 JUMP JUMPDEST JUMPDEST PUSH1 0x0 PUSH2 0x1B7E DUP5 DUP3 DUP6 ADD PUSH2 0x1B30 JUMP JUMPDEST SWAP2 POP POP SWAP3 SWAP2 POP POP JUMP JUMPDEST PUSH1 0x0 DUP1 PUSH1 0x40 DUP4 DUP6 SUB SLT ISZERO PUSH2 0x1B9E JUMPI PUSH2 0x1B9D PUSH2 0x21D7 JUMP JUMPDEST JUMPDEST PUSH1 0x0 PUSH2 0x1BAC DUP6 DUP3 DUP7 ADD PUSH2 0x1B30 JUMP JUMPDEST SWAP3 POP POP PUSH1 0x20 PUSH2 0x1BBD DUP6 DUP3 DUP7 ADD PUSH2 0x1B30 JUMP JUMPDEST SWAP2 POP POP SWAP3 POP SWAP3 SWAP1 POP JUMP JUMPDEST PUSH1 0x0 DUP1 PUSH1 0x0 PUSH1 0x60 DUP5 DUP7 SUB SLT ISZERO PUSH2 0x1BE0 JUMPI PUSH2 0x1BDF PUSH2 0x21D7 JUMP JUMPDEST JUMPDEST PUSH1 0x0 PUSH2 0x1BEE DUP7 DUP3 DUP8 ADD PUSH2 0x1B30 JUMP JUMPDEST SWAP4 POP POP PUSH1 0x20 PUSH2 0x1BFF DUP7 DUP3 DUP8 ADD PUSH2 0x1B30 JUMP JUMPDEST SWAP3 POP POP PUSH1 0x40 PUSH2 0x1C10 DUP7 DUP3 DUP8 ADD PUSH2 0x1B45 JUMP JUMPDEST SWAP2 POP POP SWAP3 POP SWAP3 POP SWAP3 JUMP JUMPDEST PUSH1 0x0 DUP1 PUSH1 0x40 DUP4 DUP6 SUB SLT ISZERO PUSH2 0x1C31 JUMPI PUSH2 0x1C30 PUSH2 0x21D7 JUMP JUMPDEST JUMPDEST PUSH1 0x0 PUSH2 0x1C3F DUP6 DUP3 DUP7 ADD PUSH2 0x1B30 JUMP JUMPDEST SWAP3 POP POP PUSH1 0x20 PUSH2 0x1C50 DUP6 DUP3 DUP7 ADD PUSH2 0x1B45 JUMP JUMPDEST SWAP2 POP POP SWAP3 POP SWAP3 SWAP1 POP JUMP JUMPDEST PUSH1 0x0 PUSH1 0x20 DUP3 DUP5 SUB SLT ISZERO PUSH2 0x1C70 JUMPI PUSH2 0x1C6F PUSH2 0x21D7 JUMP JUMPDEST JUMPDEST PUSH1 0x0 PUSH2 0x1C7E DUP5 DUP3 DUP6 ADD PUSH2 0x1B45 JUMP JUMPDEST SWAP2 POP POP SWAP3 SWAP2 POP POP JUMP JUMPDEST PUSH1 0x0 DUP1 PUSH1 0x40 DUP4 DUP6 SUB SLT ISZERO PUSH2 0x1C9E JUMPI PUSH2 0x1C9D PUSH2 0x21D7 JUMP JUMPDEST JUMPDEST PUSH1 0x0 PUSH2 0x1CAC DUP6 DUP3 DUP7 ADD PUSH2 0x1B45 JUMP JUMPDEST SWAP3 POP POP PUSH1 0x20 PUSH2 0x1CBD DUP6 DUP3 DUP7 ADD PUSH2 0x1B45 JUMP JUMPDEST SWAP2 POP POP SWAP3 POP SWAP3 SWAP1 POP JUMP JUMPDEST PUSH2 0x1CD0 DUP2 PUSH2 0x20B2 JUMP JUMPDEST DUP3 MSTORE POP POP JUMP JUMPDEST PUSH2 0x1CDF DUP2 PUSH2 0x20C4 JUMP JUMPDEST DUP3 MSTORE POP POP JUMP JUMPDEST PUSH1 0x0 PUSH2 0x1CF0 DUP3 PUSH2 0x1E10 JUMP JUMPDEST PUSH2 0x1CFA DUP2 DUP6 PUSH2 0x1E1B JUMP JUMPDEST SWAP4 POP PUSH2 0x1D0A DUP2 DUP6 PUSH1 0x20 DUP7 ADD PUSH2 0x2117 JUMP JUMPDEST PUSH2 0x1D13 DUP2 PUSH2 0x21DC JUMP JUMPDEST DUP5 ADD SWAP2 POP POP SWAP3 SWAP2 POP POP JUMP JUMPDEST PUSH2 0x1D27 DUP2 PUSH2 0x20F0 JUMP JUMPDEST DUP3 MSTORE POP POP JUMP JUMPDEST PUSH2 0x1D36 DUP2 PUSH2 0x20FA JUMP JUMPDEST DUP3 MSTORE POP POP JUMP JUMPDEST PUSH2 0x1D45 DUP2 PUSH2 0x210A JUMP JUMPDEST DUP3 MSTORE POP POP JUMP JUMPDEST PUSH1 0x0 PUSH1 0x60 DUP3 ADD SWAP1 POP PUSH2 0x1D60 PUSH1 0x0 DUP4 ADD DUP7 PUSH2 0x1CC7 JUMP JUMPDEST PUSH2 0x1D6D PUSH1 0x20 DUP4 ADD DUP6 PUSH2 0x1D1E JUMP JUMPDEST PUSH2 0x1D7A PUSH1 0x40 DUP4 ADD DUP5 PUSH2 0x1D1E JUMP JUMPDEST SWAP5 SWAP4 POP POP POP POP JUMP JUMPDEST PUSH1 0x0 PUSH1 0x20 DUP3 ADD SWAP1 POP PUSH2 0x1D97 PUSH1 0x0 DUP4 ADD DUP5 PUSH2 0x1CD6 JUMP JUMPDEST SWAP3 SWAP2 POP POP JUMP JUMPDEST PUSH1 0x0 PUSH1 0x20 DUP3 ADD SWAP1 POP DUP2 DUP2 SUB PUSH1 0x0 DUP4 ADD MSTORE PUSH2 0x1DB7 DUP2 DUP5 PUSH2 0x1CE5 JUMP JUMPDEST SWAP1 POP SWAP3 SWAP2 POP POP JUMP JUMPDEST PUSH1 0x0 PUSH1 0x20 DUP3 ADD SWAP1 POP PUSH2 0x1DD4 PUSH1 0x0 DUP4 ADD DUP5 PUSH2 0x1D1E JUMP JUMPDEST SWAP3 SWAP2 POP POP JUMP JUMPDEST PUSH1 0x0 PUSH1 0x20 DUP3 ADD SWAP1 POP PUSH2 0x1DEF PUSH1 0x0 DUP4 ADD DUP5 PUSH2 0x1D2D JUMP JUMPDEST SWAP3 SWAP2 POP POP JUMP JUMPDEST PUSH1 0x0 PUSH1 0x20 DUP3 ADD SWAP1 POP PUSH2 0x1E0A PUSH1 0x0 DUP4 ADD DUP5 PUSH2 0x1D3C JUMP JUMPDEST SWAP3 SWAP2 POP POP JUMP JUMPDEST PUSH1 0x0 DUP2 MLOAD SWAP1 POP SWAP2 SWAP1 POP JUMP JUMPDEST PUSH1 0x0 DUP3 DUP3 MSTORE PUSH1 0x20 DUP3 ADD SWAP1 POP SWAP3 SWAP2 POP POP JUMP JUMPDEST PUSH1 0x0 PUSH2 0x1E37 DUP3 PUSH2 0x20F0 JUMP JUMPDEST SWAP2 POP PUSH2 0x1E42 DUP4 PUSH2 0x20F0 JUMP JUMPDEST SWAP3 POP DUP3 PUSH32 0xFFFFFFFFFFFFFFFFFFFFFFFFFFFFFFFFFFFFFFFFFFFFFFFFFFFFFFFFFFFFFFFF SUB DUP3 GT ISZERO PUSH2 0x1E77 JUMPI PUSH2 0x1E76 PUSH2 0x214A JUMP JUMPDEST JUMPDEST DUP3 DUP3 ADD SWAP1 POP SWAP3 SWAP2 POP POP JUMP JUMPDEST PUSH1 0x0 PUSH2 0x1E8D DUP3 PUSH2 0x20F0 JUMP JUMPDEST SWAP2 POP PUSH2 0x1E98 DUP4 PUSH2 0x20F0 JUMP JUMPDEST SWAP3 POP DUP3 PUSH2 0x1EA8 JUMPI PUSH2 0x1EA7 PUSH2 0x2179 JUMP JUMPDEST JUMPDEST DUP3 DUP3 DIV SWAP1 POP SWAP3 SWAP2 POP POP JUMP JUMPDEST PUSH1 0x0 DUP1 DUP3 SWAP2 POP DUP4 SWAP1 POP JUMPDEST PUSH1 0x1 DUP6 GT ISZERO PUSH2 0x1EFD JUMPI DUP1 DUP7 DIV DUP2 GT ISZERO PUSH2 0x1ED9 JUMPI PUSH2 0x1ED8 PUSH2 0x214A JUMP JUMPDEST JUMPDEST PUSH1 0x1 DUP6 AND ISZERO PUSH2 0x1EE8 JUMPI DUP1 DUP3 MUL SWAP2 POP JUMPDEST DUP1 DUP2 MUL SWAP1 POP PUSH2 0x1EF6 DUP6 PUSH2 0x21ED JUMP JUMPDEST SWAP5 POP PUSH2 0x1EBD JUMP JUMPDEST SWAP5 POP SWAP5 SWAP3 POP POP POP JUMP JUMPDEST PUSH1 0x0 PUSH2 0x1F11 DUP3 PUSH2 0x20F0 JUMP JUMPDEST SWAP2 POP PUSH2 0x1F1C DUP4 PUSH2 0x20F0 JUMP JUMPDEST SWAP3 POP PUSH2 0x1F49 PUSH32 0xFFFFFFFFFFFFFFFFFFFFFFFFFFFFFFFFFFFFFFFFFFFFFFFFFFFFFFFFFFFFFFFF DUP5 DUP5 PUSH2 0x1F51 JUMP JUMPDEST SWAP1 POP SWAP3 SWAP2 POP POP JUMP JUMPDEST PUSH1 0x0 DUP3 PUSH2 0x1F61 JUMPI PUSH1 0x1 SWAP1 POP PUSH2 0x201D JUMP JUMPDEST DUP2 PUSH2 0x1F6F JUMPI PUSH1 0x0 SWAP1 POP PUSH2 0x201D JUMP JUMPDEST DUP2 PUSH1 0x1 DUP2 EQ PUSH2 0x1F85 JUMPI PUSH1 0x2 DUP2 EQ PUSH2 0x1F8F JUMPI PUSH2 0x1FBE JUMP JUMPDEST PUSH1 0x1 SWAP2 POP POP PUSH2 0x201D JUMP JUMPDEST PUSH1 0xFF DUP5 GT ISZERO PUSH2 0x1FA1 JUMPI PUSH2 0x1FA0 PUSH2 0x214A JUMP JUMPDEST JUMPDEST DUP4 PUSH1 0x2 EXP SWAP2 POP DUP5 DUP3 GT ISZERO PUSH2 0x1FB8 JUMPI PUSH2 0x1FB7 PUSH2 0x214A JUMP JUMPDEST JUMPDEST POP PUSH2 0x201D JUMP JUMPDEST POP PUSH1 0x20 DUP4 LT PUSH2 0x133 DUP4 LT AND PUSH1 0x4E DUP5 LT PUSH1 0xB DUP5 LT AND OR ISZERO PUSH2 0x1FF3 JUMPI DUP3 DUP3 EXP SWAP1 POP DUP4 DUP2 GT ISZERO PUSH2 0x1FEE JUMPI PUSH2 0x1FED PUSH2 0x214A JUMP JUMPDEST JUMPDEST PUSH2 0x201D JUMP JUMPDEST PUSH2 0x2000 DUP5 DUP5 DUP5 PUSH1 0x1 PUSH2 0x1EB3 JUMP JUMPDEST SWAP3 POP SWAP1 POP DUP2 DUP5 DIV DUP2 GT ISZERO PUSH2 0x2017 JUMPI PUSH2 0x2016 PUSH2 0x214A JUMP JUMPDEST JUMPDEST DUP2 DUP2 MUL SWAP1 POP JUMPDEST SWAP4 SWAP3 POP POP POP JUMP JUMPDEST PUSH1 0x0 PUSH2 0x202F DUP3 PUSH2 0x20F0 JUMP JUMPDEST SWAP2 POP PUSH2 0x203A DUP4 PUSH2 0x20F0 JUMP JUMPDEST SWAP3 POP DUP2 PUSH32 0xFFFFFFFFFFFFFFFFFFFFFFFFFFFFFFFFFFFFFFFFFFFFFFFFFFFFFFFFFFFFFFFF DIV DUP4 GT DUP3 ISZERO ISZERO AND ISZERO PUSH2 0x2073 JUMPI PUSH2 0x2072 PUSH2 0x214A JUMP JUMPDEST JUMPDEST DUP3 DUP3 MUL SWAP1 POP SWAP3 SWAP2 POP POP JUMP JUMPDEST PUSH1 0x0 PUSH2 0x2089 DUP3 PUSH2 0x20F0 JUMP JUMPDEST SWAP2 POP PUSH2 0x2094 DUP4 PUSH2 0x20F0 JUMP JUMPDEST SWAP3 POP DUP3 DUP3 LT ISZERO PUSH2 0x20A7 JUMPI PUSH2 0x20A6 PUSH2 0x214A JUMP JUMPDEST JUMPDEST DUP3 DUP3 SUB SWAP1 POP SWAP3 SWAP2 POP POP JUMP JUMPDEST PUSH1 0x0 PUSH2 0x20BD DUP3 PUSH2 0x20D0 JUMP JUMPDEST SWAP1 POP SWAP2 SWAP1 POP JUMP JUMPDEST PUSH1 0x0 DUP2 ISZERO ISZERO SWAP1 POP SWAP2 SWAP1 POP JUMP JUMPDEST PUSH1 0x0 PUSH20 0xFFFFFFFFFFFFFFFFFFFFFFFFFFFFFFFFFFFFFFFF DUP3 AND SWAP1 POP SWAP2 SWAP1 POP JUMP JUMPDEST PUSH1 0x0 DUP2 SWAP1 POP SWAP2 SWAP1 POP JUMP JUMPDEST PUSH1 0x0 PUSH4 0xFFFFFFFF DUP3 AND SWAP1 POP SWAP2 SWAP1 POP JUMP JUMPDEST PUSH1 0x0 PUSH1 0xFF DUP3 AND SWAP1 POP SWAP2 SWAP1 POP JUMP JUMPDEST PUSH1 0x0 JUMPDEST DUP4 DUP2 LT ISZERO PUSH2 0x2135 JUMPI DUP1 DUP3 ADD MLOAD DUP2 DUP5 ADD MSTORE PUSH1 0x20 DUP2 ADD SWAP1 POP PUSH2 0x211A JUMP JUMPDEST DUP4 DUP2 GT ISZERO PUSH2 0x2144 JUMPI PUSH1 0x0 DUP5 DUP5 ADD MSTORE JUMPDEST POP POP POP POP JUMP JUMPDEST PUSH32 0x4E487B7100000000000000000000000000000000000000000000000000000000 PUSH1 0x0 MSTORE PUSH1 0x11 PUSH1 0x4 MSTORE PUSH1 0x24 PUSH1 0x0 REVERT JUMPDEST PUSH32 0x4E487B7100000000000000000000000000000000000000000000000000000000 PUSH1 0x0 MSTORE PUSH1 0x12 PUSH1 0x4 MSTORE PUSH1 0x24 PUSH1 0x0 REVERT JUMPDEST PUSH32 0x4E487B7100000000000000000000000000000000000000000000000000000000 PUSH1 0x0 MSTORE PUSH1 0x32 PUSH1 0x4 MSTORE PUSH1 0x24 PUSH1 0x0 REVERT JUMPDEST PUSH1 0x0 DUP1 REVERT JUMPDEST PUSH1 0x0 PUSH1 0x1F NOT PUSH1 0x1F DUP4 ADD AND SWAP1 POP SWAP2 SWAP1 POP JUMP JUMPDEST PUSH1 0x0 DUP2 PUSH1 0x1 SHR SWAP1 POP SWAP2 SWAP1 POP JUMP JUMPDEST PUSH2 0x2203 DUP2 PUSH2 0x20B2 JUMP JUMPDEST DUP2 EQ PUSH2 0x220E JUMPI PUSH1 0x0 DUP1 REVERT JUMPDEST POP JUMP JUMPDEST PUSH2 0x221A DUP2 PUSH2 0x20F0 JUMP JUMPDEST DUP2 EQ PUSH2 0x2225 JUMPI PUSH1 0x0 DUP1 REVERT JUMPDEST POP JUMP INVALID LOG2 PUSH5 0x6970667358 0x22 SLT KECCAK256 0xDB CALLDATASIZE GT NUMBER GAS 0xE4 0x4B 0xDB PUSH28 0xD0DBBA015110EAE227A9905F30A1367BE17B4DEDDD64E364736F6C63 NUMBER STOP ADDMOD SDIV STOP CALLER "
        },
        "methodIdentifiers": {
          "COIN()": "a54a72b7",
          "DECIMALS()": "2e0f2625",
          "MAX_COIN()": "72cf105d",
          "NAME()": "a3f4df7e",
          "PIZZA_POWER_PRICE()": "feeff293",
          "PRECISION()": "aaf5eb68",
          "SUBSIDY_HALVING_INTERVAL()": "72f627a7",
          "SYMBOL()": "f76f8d78",
          "accSubsidy()": "3d558387",
          "accSubsidyBlock()": "ea03174d",
          "allowance(address,address)": "dd62ed3e",
          "approve(address,uint256)": "095ea7b3",
          "balanceOf(address)": "70a08231",
          "buyPizza(uint256)": "3125e46e",
          "changePizza(uint256,uint256)": "8ca42d2a",
          "decimals()": "313ce567",
          "genesisEthBlock()": "151aa86a",
          "mine(uint256)": "4d474898",
          "name()": "06fdde03",
          "pizzaCount()": "b0780cfc",
          "pizzaPrice(uint256)": "de8ff63b",
          "pizzas(uint256)": "6b67a1b2",
          "powerOf(uint256)": "04eaa113",
          "sellPizza(uint256)": "eff60e8f",
          "subsidyAt(uint256)": "0a24470e",
          "subsidyOf(uint256)": "8c8c9fec",
          "symbol()": "95d89b41",
          "totalPower()": "db3ad22c",
          "totalSupply()": "18160ddd",
          "transfer(address,uint256)": "a9059cbb",
          "transferFrom(address,address,uint256)": "23b872dd"
        }
      }
    }
  }
}