{
  "contracts/test/VirtualBitcoin.sol": {
    "VirtualBitcoin": {
      "abi": [
        {
          "inputs": [],
          "stateMutability": "nonpayable",
          "type": "constructor"
        },
        {
          "anonymous": false,
          "inputs": [
            {
              "indexed": true,
              "internalType": "address",
              "name": "owner",
              "type": "address"
            },
            {
              "indexed": true,
              "internalType": "address",
              "name": "spender",
              "type": "address"
            },
            {
              "indexed": false,
              "internalType": "uint256",
              "name": "amount",
              "type": "uint256"
            }
          ],
          "name": "Approval",
          "type": "event"
        },
        {
          "anonymous": false,
          "inputs": [
            {
              "indexed": true,
              "internalType": "address",
              "name": "owner",
              "type": "address"
            },
            {
              "indexed": true,
              "internalType": "uint256",
              "name": "pizzaId",
              "type": "uint256"
            },
            {
              "indexed": false,
              "internalType": "uint256",
              "name": "power",
              "type": "uint256"
            }
          ],
          "name": "BuyPizza",
          "type": "event"
        },
        {
          "anonymous": false,
          "inputs": [
            {
              "indexed": true,
              "internalType": "address",
              "name": "owner",
              "type": "address"
            },
            {
              "indexed": true,
              "internalType": "uint256",
              "name": "pizzaId",
              "type": "uint256"
            },
            {
              "indexed": false,
              "internalType": "uint256",
              "name": "power",
              "type": "uint256"
            }
          ],
          "name": "ChangePizza",
          "type": "event"
        },
        {
          "anonymous": false,
          "inputs": [
            {
              "indexed": true,
              "internalType": "address",
              "name": "owner",
              "type": "address"
            },
            {
              "indexed": true,
              "internalType": "uint256",
              "name": "pizzaId",
              "type": "uint256"
            },
            {
              "indexed": false,
              "internalType": "uint256",
              "name": "subsidy",
              "type": "uint256"
            }
          ],
          "name": "Mine",
          "type": "event"
        },
        {
          "anonymous": false,
          "inputs": [
            {
              "indexed": true,
              "internalType": "address",
              "name": "owner",
              "type": "address"
            },
            {
              "indexed": true,
              "internalType": "uint256",
              "name": "pizzaId",
              "type": "uint256"
            }
          ],
          "name": "SellPizza",
          "type": "event"
        },
        {
          "anonymous": false,
          "inputs": [
            {
              "indexed": true,
              "internalType": "address",
              "name": "from",
              "type": "address"
            },
            {
              "indexed": true,
              "internalType": "address",
              "name": "to",
              "type": "address"
            },
            {
              "indexed": false,
              "internalType": "uint256",
              "name": "amount",
              "type": "uint256"
            }
          ],
          "name": "Transfer",
          "type": "event"
        },
        {
          "inputs": [],
          "name": "COIN",
          "outputs": [
            {
              "internalType": "uint256",
              "name": "",
              "type": "uint256"
            }
          ],
          "stateMutability": "view",
          "type": "function"
        },
        {
          "inputs": [],
          "name": "DECIMALS",
          "outputs": [
            {
              "internalType": "uint8",
              "name": "",
              "type": "uint8"
            }
          ],
          "stateMutability": "view",
          "type": "function"
        },
        {
          "inputs": [],
          "name": "MAX_COIN",
          "outputs": [
            {
              "internalType": "uint256",
              "name": "",
              "type": "uint256"
            }
          ],
          "stateMutability": "view",
          "type": "function"
        },
        {
          "inputs": [],
          "name": "NAME",
          "outputs": [
            {
              "internalType": "string",
              "name": "",
              "type": "string"
            }
          ],
          "stateMutability": "view",
          "type": "function"
        },
        {
          "inputs": [],
          "name": "PIZZA_POWER_PRICE",
          "outputs": [
            {
              "internalType": "uint256",
              "name": "",
              "type": "uint256"
            }
          ],
          "stateMutability": "view",
          "type": "function"
        },
        {
          "inputs": [],
          "name": "PRECISION",
          "outputs": [
            {
              "internalType": "uint256",
              "name": "",
              "type": "uint256"
            }
          ],
          "stateMutability": "view",
          "type": "function"
        },
        {
          "inputs": [],
          "name": "SUBSIDY_HALVING_INTERVAL",
          "outputs": [
            {
              "internalType": "uint32",
              "name": "",
              "type": "uint32"
            }
          ],
          "stateMutability": "view",
          "type": "function"
        },
        {
          "inputs": [],
          "name": "SYMBOL",
          "outputs": [
            {
              "internalType": "string",
              "name": "",
              "type": "string"
            }
          ],
          "stateMutability": "view",
          "type": "function"
        },
        {
          "inputs": [],
          "name": "accSubsidy",
          "outputs": [
            {
              "internalType": "uint256",
              "name": "",
              "type": "uint256"
            }
          ],
          "stateMutability": "view",
          "type": "function"
        },
        {
          "inputs": [],
          "name": "accSubsidyBlock",
          "outputs": [
            {
              "internalType": "uint256",
              "name": "",
              "type": "uint256"
            }
          ],
          "stateMutability": "view",
          "type": "function"
        },
        {
          "inputs": [
            {
              "internalType": "address",
              "name": "user",
              "type": "address"
            },
            {
              "internalType": "address",
              "name": "spender",
              "type": "address"
            }
          ],
          "name": "allowance",
          "outputs": [
            {
              "internalType": "uint256",
              "name": "remaining",
              "type": "uint256"
            }
          ],
          "stateMutability": "view",
          "type": "function"
        },
        {
          "inputs": [
            {
              "internalType": "address",
              "name": "spender",
              "type": "address"
            },
            {
              "internalType": "uint256",
              "name": "amount",
              "type": "uint256"
            }
          ],
          "name": "approve",
          "outputs": [
            {
              "internalType": "bool",
              "name": "success",
              "type": "bool"
            }
          ],
          "stateMutability": "nonpayable",
          "type": "function"
        },
        {
          "inputs": [
            {
              "internalType": "address",
              "name": "user",
              "type": "address"
            }
          ],
          "name": "balanceOf",
          "outputs": [
            {
              "internalType": "uint256",
              "name": "balance",
              "type": "uint256"
            }
          ],
          "stateMutability": "view",
          "type": "function"
        },
        {
          "inputs": [
            {
              "internalType": "uint256",
              "name": "power",
              "type": "uint256"
            }
          ],
          "name": "buyPizza",
          "outputs": [
            {
              "internalType": "uint256",
              "name": "",
              "type": "uint256"
            }
          ],
          "stateMutability": "nonpayable",
          "type": "function"
        },
        {
          "inputs": [
            {
              "internalType": "uint256",
              "name": "pizzaId",
              "type": "uint256"
            },
            {
              "internalType": "uint256",
              "name": "power",
              "type": "uint256"
            }
          ],
          "name": "changePizza",
          "outputs": [],
          "stateMutability": "nonpayable",
          "type": "function"
        },
        {
          "inputs": [],
          "name": "decimals",
          "outputs": [
            {
              "internalType": "uint8",
              "name": "",
              "type": "uint8"
            }
          ],
          "stateMutability": "pure",
          "type": "function"
        },
        {
          "inputs": [],
          "name": "genesisEthBlock",
          "outputs": [
            {
              "internalType": "uint256",
              "name": "",
              "type": "uint256"
            }
          ],
          "stateMutability": "view",
          "type": "function"
        },
        {
          "inputs": [
            {
              "internalType": "uint256",
              "name": "pizzaId",
              "type": "uint256"
            }
          ],
          "name": "mine",
          "outputs": [
            {
              "internalType": "uint256",
              "name": "",
              "type": "uint256"
            }
          ],
          "stateMutability": "nonpayable",
          "type": "function"
        },
        {
          "inputs": [],
          "name": "name",
          "outputs": [
            {
              "internalType": "string",
              "name": "",
              "type": "string"
            }
          ],
          "stateMutability": "pure",
          "type": "function"
        },
        {
          "inputs": [],
          "name": "pizzaCount",
          "outputs": [
            {
              "internalType": "uint256",
              "name": "",
              "type": "uint256"
            }
          ],
          "stateMutability": "view",
          "type": "function"
        },
        {
          "inputs": [
            {
              "internalType": "uint256",
              "name": "power",
              "type": "uint256"
            }
          ],
          "name": "pizzaPrice",
          "outputs": [
            {
              "internalType": "uint256",
              "name": "",
              "type": "uint256"
            }
          ],
          "stateMutability": "pure",
          "type": "function"
        },
        {
          "inputs": [
            {
              "internalType": "uint256",
              "name": "",
              "type": "uint256"
            }
          ],
          "name": "pizzas",
          "outputs": [
            {
              "internalType": "address",
              "name": "owner",
              "type": "address"
            },
            {
              "internalType": "uint256",
              "name": "power",
              "type": "uint256"
            },
            {
              "internalType": "uint256",
              "name": "accSubsidy",
              "type": "uint256"
            }
          ],
          "stateMutability": "view",
          "type": "function"
        },
        {
          "inputs": [
            {
              "internalType": "uint256",
              "name": "pizzaId",
              "type": "uint256"
            }
          ],
          "name": "powerOf",
          "outputs": [
            {
              "internalType": "uint256",
              "name": "",
              "type": "uint256"
            }
          ],
          "stateMutability": "view",
          "type": "function"
        },
        {
          "inputs": [
            {
              "internalType": "uint256",
              "name": "pizzaId",
              "type": "uint256"
            }
          ],
          "name": "sellPizza",
          "outputs": [],
          "stateMutability": "nonpayable",
          "type": "function"
        },
        {
          "inputs": [
            {
              "internalType": "uint256",
              "name": "blockNumber",
              "type": "uint256"
            }
          ],
          "name": "subsidyAt",
          "outputs": [
            {
              "internalType": "uint256",
              "name": "amount",
              "type": "uint256"
            }
          ],
          "stateMutability": "view",
          "type": "function"
        },
        {
          "inputs": [
            {
              "internalType": "uint256",
              "name": "pizzaId",
              "type": "uint256"
            }
          ],
          "name": "subsidyOf",
          "outputs": [
            {
              "internalType": "uint256",
              "name": "",
              "type": "uint256"
            }
          ],
          "stateMutability": "view",
          "type": "function"
        },
        {
          "inputs": [],
          "name": "symbol",
          "outputs": [
            {
              "internalType": "string",
              "name": "",
              "type": "string"
            }
          ],
          "stateMutability": "pure",
          "type": "function"
        },
        {
          "inputs": [],
          "name": "testMint",
          "outputs": [],
          "stateMutability": "nonpayable",
          "type": "function"
        },
        {
          "inputs": [],
          "name": "totalPower",
          "outputs": [
            {
              "internalType": "uint256",
              "name": "",
              "type": "uint256"
            }
          ],
          "stateMutability": "view",
          "type": "function"
        },
        {
          "inputs": [],
          "name": "totalSupply",
          "outputs": [
            {
              "internalType": "uint256",
              "name": "",
              "type": "uint256"
            }
          ],
          "stateMutability": "view",
          "type": "function"
        },
        {
          "inputs": [
            {
              "internalType": "address",
              "name": "to",
              "type": "address"
            },
            {
              "internalType": "uint256",
              "name": "amount",
              "type": "uint256"
            }
          ],
          "name": "transfer",
          "outputs": [
            {
              "internalType": "bool",
              "name": "success",
              "type": "bool"
            }
          ],
          "stateMutability": "nonpayable",
          "type": "function"
        },
        {
          "inputs": [
            {
              "internalType": "address",
              "name": "from",
              "type": "address"
            },
            {
              "internalType": "address",
              "name": "to",
              "type": "address"
            },
            {
              "internalType": "uint256",
              "name": "amount",
              "type": "uint256"
            }
          ],
          "name": "transferFrom",
          "outputs": [
            {
              "internalType": "bool",
              "name": "success",
              "type": "bool"
            }
          ],
          "stateMutability": "nonpayable",
          "type": "function"
        }
      ],
      "evm": {
        "bytecode": {
          "linkReferences": {},
          "object": "60a060405234801561001057600080fd5b504360808181525050600060058190555043600481905550600360405180606001604052803373ffffffffffffffffffffffffffffffffffffffff168152602001600181526020016000815250908060018154018082558091505060019003906000526020600020906003020160009091909190915060008201518160000160006101000a81548173ffffffffffffffffffffffffffffffffffffffff021916908373ffffffffffffffffffffffffffffffffffffffff16021790555060208201518160010155604082015181600201555050600160068190555060805161239d610129600039600081816107e4015281816108640152818161190b0152818161194f015281816119b70152611a45015261239d6000f3fe608060405234801561001057600080fd5b50600436106101f05760003560e01c80638c8c9fec1161010f578063b0780cfc116100a2578063ea03174d11610071578063ea03174d14610601578063eff60e8f1461061f578063f76f8d781461063b578063feeff29314610659576101f0565b8063b0780cfc14610565578063db3ad22c14610583578063dd62ed3e146105a1578063de8ff63b146105d1576101f0565b8063a3f4df7e116100de578063a3f4df7e146104db578063a54a72b7146104f9578063a9059cbb14610517578063aaf5eb6814610547576101f0565b80638c8c9fec146104675780638ca42d2a1461049757806395d89b41146104b35780639642ddaf146104d1576101f0565b80633125e46e116101875780636b67a1b2116101565780636b67a1b2146103c957806370a08231146103fb57806372cf105d1461042b57806372f627a714610449576101f0565b80633125e46e1461032d578063313ce5671461035d5780633d5583871461037b5780634d47489814610399576101f0565b8063151aa86a116101c3578063151aa86a146102a357806318160ddd146102c157806323b872dd146102df5780632e0f26251461030f576101f0565b806304eaa113146101f557806306fdde0314610225578063095ea7b3146102435780630a24470e14610273575b600080fd5b61020f600480360381019061020a9190611d99565b610677565b60405161021c9190611efe565b60405180910390f35b61022d6106a6565b60405161023a9190611edc565b60405180910390f35b61025d60048036038101906102589190611d59565b6106e3565b60405161026a9190611ec1565b60405180910390f35b61028d60048036038101906102889190611d99565b6107d5565b60405161029a9190611efe565b60405180910390f35b6102ab610862565b6040516102b89190611efe565b60405180910390f35b6102c9610886565b6040516102d69190611efe565b60405180910390f35b6102f960048036038101906102f49190611d06565b61088f565b6040516103069190611ec1565b60405180910390f35b610317610ae2565b6040516103249190611f34565b60405180910390f35b61034760048036038101906103429190611d99565b610ae7565b6040516103549190611efe565b60405180910390f35b610365610b81565b6040516103729190611f34565b60405180910390f35b610383610b8a565b6040516103909190611efe565b60405180910390f35b6103b360048036038101906103ae9190611d99565b610b90565b6040516103c09190611efe565b60405180910390f35b6103e360048036038101906103de9190611d99565b610ce4565b6040516103f293929190611e8a565b60405180910390f35b61041560048036038101906104109190611c99565b610d3e565b6040516104229190611efe565b60405180910390f35b610433610d87565b6040516104409190611efe565b60405180910390f35b610451610daa565b60405161045e9190611f19565b60405180910390f35b610481600480360381019061047c9190611d99565b610db1565b60405161048e9190611efe565b60405180910390f35b6104b160048036038101906104ac9190611dc6565b610ecc565b005b6104bb611155565b6040516104c89190611edc565b60405180910390f35b6104d9611192565b005b6104e36112bc565b6040516104f09190611edc565b60405180910390f35b6105016112f5565b60405161050e9190611efe565b60405180910390f35b610531600480360381019061052c9190611d59565b611309565b60405161053e9190611ec1565b60405180910390f35b61054f611426565b60405161055c9190611efe565b60405180910390f35b61056d61142c565b60405161057a9190611efe565b60405180910390f35b61058b611439565b6040516105989190611efe565b60405180910390f35b6105bb60048036038101906105b69190611cc6565b61143f565b6040516105c89190611efe565b60405180910390f35b6105eb60048036038101906105e69190611d99565b6114c6565b6040516105f89190611efe565b60405180910390f35b6106096114f8565b6040516106169190611efe565b60405180910390f35b61063960048036038101906106349190611d99565b6114fe565b005b610643611679565b6040516106509190611edc565b60405180910390f35b6106616116b2565b60405161066e9190611efe565b60405180910390f35b60006003828154811061068d5761068c6122e7565b5b9060005260206000209060030201600101549050919050565b60606040518060400160405280600f81526020017f5669727475616c20426974636f696e0000000000000000000000000000000000815250905090565b600081600260003373ffffffffffffffffffffffffffffffffffffffff1673ffffffffffffffffffffffffffffffffffffffff16815260200190815260200160002060008573ffffffffffffffffffffffffffffffffffffffff1673ffffffffffffffffffffffffffffffffffffffff168152602001908152602001600020819055508273ffffffffffffffffffffffffffffffffffffffff163373ffffffffffffffffffffffffffffffffffffffff167f8c5be1e5ebec7d5bd14f71427d1e84f3dd0314c0f7b2291e5b200ac8c7c3b925846040516107c39190611efe565b60405180910390a36001905092915050565b6000806240164063ffffffff167f00000000000000000000000000000000000000000000000000000000000000008461080e91906121bd565b6108189190611fc1565b90508060026108279190612045565b600a600860ff16600a61083a9190612045565b60196108469190612163565b6108509190611fc1565b61085a9190611fc1565b915050919050565b7f000000000000000000000000000000000000000000000000000000000000000081565b60008054905090565b600080600260008673ffffffffffffffffffffffffffffffffffffffff1673ffffffffffffffffffffffffffffffffffffffff16815260200190815260200160002060003373ffffffffffffffffffffffffffffffffffffffff1673ffffffffffffffffffffffffffffffffffffffff1681526020019081526020016000205490507fffffffffffffffffffffffffffffffffffffffffffffffffffffffffffffffff81146109c557828161094491906121bd565b600260008773ffffffffffffffffffffffffffffffffffffffff1673ffffffffffffffffffffffffffffffffffffffff16815260200190815260200160002060003373ffffffffffffffffffffffffffffffffffffffff1673ffffffffffffffffffffffffffffffffffffffff168152602001908152602001600020819055505b82600160008773ffffffffffffffffffffffffffffffffffffffff1673ffffffffffffffffffffffffffffffffffffffff1681526020019081526020016000206000828254610a1491906121bd565b9250508190555082600160008673ffffffffffffffffffffffffffffffffffffffff1673ffffffffffffffffffffffffffffffffffffffff1681526020019081526020016000206000828254610a6a9190611f6b565b925050819055508373ffffffffffffffffffffffffffffffffffffffff168573ffffffffffffffffffffffffffffffffffffffff167fddf252ad1be2c89b69c2b068fc378daa952ba7f163c4a11628f55a4df523b3ef85604051610ace9190611efe565b60405180910390a360019150509392505050565b600881565b6000610b1b30600860ff16600a610afe9190612045565b612710610b0b9190612163565b84610b169190612163565b611309565b506000610b27836116d3565b9050803373ffffffffffffffffffffffffffffffffffffffff167f1d73f6a4197ad5e95d19dffb0c8e64b71bed8f02b744de7becec8f076eec82a985604051610b709190611efe565b60405180910390a380915050919050565b60006008905090565b60055481565b60008060038381548110610ba757610ba66122e7565b5b906000526020600020906003020190503373ffffffffffffffffffffffffffffffffffffffff168160000160009054906101000a900473ffffffffffffffffffffffffffffffffffffffff1673ffffffffffffffffffffffffffffffffffffffff1614610c1357600080fd5b6000816001015490506000610c266117eb565b9050600083600201546127108484610c3e9190612163565b610c489190611fc1565b610c5291906121bd565b90506000811115610c6857610c67338261181c565b5b6127108383610c779190612163565b610c819190611fc1565b8460020181905550853373ffffffffffffffffffffffffffffffffffffffff167f4cd36fb76975ab408e67b9ff3c17b4dd03112963aed18ccd8907a0c8b77daec283604051610cd09190611efe565b60405180910390a380945050505050919050565b60038181548110610cf457600080fd5b90600052602060002090600302016000915090508060000160009054906101000a900473ffffffffffffffffffffffffffffffffffffffff16908060010154908060020154905083565b6000600160008373ffffffffffffffffffffffffffffffffffffffff1673ffffffffffffffffffffffffffffffffffffffff168152602001908152602001600020549050919050565b600860ff16600a610d989190612045565b6301406f40610da79190612163565b81565b6240164081565b60008060038381548110610dc857610dc76122e7565b5b90600052602060002090600302016040518060600160405290816000820160009054906101000a900473ffffffffffffffffffffffffffffffffffffffff1673ffffffffffffffffffffffffffffffffffffffff1673ffffffffffffffffffffffffffffffffffffffff168152602001600182015481526020016002820154815250509050600073ffffffffffffffffffffffffffffffffffffffff16816000015173ffffffffffffffffffffffffffffffffffffffff161415610e90576000915050610ec7565b80604001516127108260200151610ea56118f4565b610eaf9190612163565b610eb99190611fc1565b610ec391906121bd565b9150505b919050565b600060038381548110610ee257610ee16122e7565b5b906000526020600020906003020190506000831415610f0057600080fd5b3373ffffffffffffffffffffffffffffffffffffffff168160000160009054906101000a900473ffffffffffffffffffffffffffffffffffffffff1673ffffffffffffffffffffffffffffffffffffffff1614610f5c57600080fd5b60008160010154905082811415610f7257600080fd5b6000610f7c6117eb565b9050600083600201546127108484610f949190612163565b610f9e9190611fc1565b610fa891906121bd565b90506000811115610fbe57610fbd338261181c565b5b853373ffffffffffffffffffffffffffffffffffffffff167f4cd36fb76975ab408e67b9ff3c17b4dd03112963aed18ccd8907a0c8b77daec2836040516110059190611efe565b60405180910390a384831015611077576000838661102391906121bd565b905061105730600860ff16600a61103a9190612045565b6127106110479190612163565b836110529190612163565b611309565b50806006600082825461106a9190611f6b565b92505081905550506110d4565b6000858461108591906121bd565b90506110b933600860ff16600a61109c9190612045565b6127106110a99190612163565b836110b49190612163565b611b5a565b80600660008282546110cb91906121bd565b92505081905550505b61271085836110e39190612163565b6110ed9190611fc1565b8460020181905550848460010181905550853373ffffffffffffffffffffffffffffffffffffffff167fddac5028a22c95d7d47ec1d2f51a72edc856a86565bfbd27c18ce2f31825e851876040516111459190611efe565b60405180910390a3505050505050565b60606040518060400160405280600481526020017f5642544300000000000000000000000000000000000000000000000000000000815250905090565b600860ff16600a6111a39190612045565b60646111af9190612163565b6000808282546111bf9190611f6b565b92505081905550600860ff16600a6111d79190612045565b60646111e39190612163565b600160003373ffffffffffffffffffffffffffffffffffffffff1673ffffffffffffffffffffffffffffffffffffffff16815260200190815260200160002060008282546112319190611f6b565b925050819055503373ffffffffffffffffffffffffffffffffffffffff16600073ffffffffffffffffffffffffffffffffffffffff167fddf252ad1be2c89b69c2b068fc378daa952ba7f163c4a11628f55a4df523b3ef600860ff16600a6112999190612045565b60646112a59190612163565b6040516112b29190611efe565b60405180910390a3565b6040518060400160405280600f81526020017f5669727475616c20426974636f696e000000000000000000000000000000000081525081565b600860ff16600a6113069190612045565b81565b600081600160003373ffffffffffffffffffffffffffffffffffffffff1673ffffffffffffffffffffffffffffffffffffffff168152602001908152602001600020600082825461135a91906121bd565b9250508190555081600160008573ffffffffffffffffffffffffffffffffffffffff1673ffffffffffffffffffffffffffffffffffffffff16815260200190815260200160002060008282546113b09190611f6b565b925050819055508273ffffffffffffffffffffffffffffffffffffffff163373ffffffffffffffffffffffffffffffffffffffff167fddf252ad1be2c89b69c2b068fc378daa952ba7f163c4a11628f55a4df523b3ef846040516114149190611efe565b60405180910390a36001905092915050565b61271081565b6000600380549050905090565b60065481565b6000600260008473ffffffffffffffffffffffffffffffffffffffff1673ffffffffffffffffffffffffffffffffffffffff16815260200190815260200160002060008373ffffffffffffffffffffffffffffffffffffffff1673ffffffffffffffffffffffffffffffffffffffff16815260200190815260200160002054905092915050565b6000600860ff16600a6114d99190612045565b6127106114e69190612163565b826114f19190612163565b9050919050565b60045481565b600060038281548110611514576115136122e7565b5b90600052602060002090600302019050600082141561153257600080fd5b3373ffffffffffffffffffffffffffffffffffffffff168160000160009054906101000a900473ffffffffffffffffffffffffffffffffffffffff1673ffffffffffffffffffffffffffffffffffffffff161461158e57600080fd5b6000816001015490506115a083610b90565b5060008260000160006101000a81548173ffffffffffffffffffffffffffffffffffffffff021916908373ffffffffffffffffffffffffffffffffffffffff16021790555080600660008282546115f791906121bd565b9250508190555061163033600860ff16600a6116139190612045565b6127106116209190612163565b8361162b9190612163565b611b5a565b823373ffffffffffffffffffffffffffffffffffffffff167f7443d543988088aa1062dd69a78779c9ea88934042cdc3a63a0452f3df3ad1ac60405160405180910390a3505050565b6040518060400160405280600481526020017f564254430000000000000000000000000000000000000000000000000000000081525081565b600860ff16600a6116c39190612045565b6127106116d09190612163565b81565b60008082116116e157600080fd5b6000600380549050905060006116f56117eb565b9050600360405180606001604052803373ffffffffffffffffffffffffffffffffffffffff16815260200186815260200161271087856117359190612163565b61173f9190611fc1565b815250908060018154018082558091505060019003906000526020600020906003020160009091909190915060008201518160000160006101000a81548173ffffffffffffffffffffffffffffffffffffffff021916908373ffffffffffffffffffffffffffffffffffffffff1602179055506020820151816001015560408201518160020155505083600660008282546117da9190611f6b565b925050819055508192505050919050565b60004360045414611813576117fe6118f4565b90508060058190555043600481905550611819565b60055490505b90565b80600160008473ffffffffffffffffffffffffffffffffffffffff1673ffffffffffffffffffffffffffffffffffffffff168152602001908152602001600020600082825461186b9190611f6b565b92505081905550806000808282546118839190611f6b565b925050819055508173ffffffffffffffffffffffffffffffffffffffff16600073ffffffffffffffffffffffffffffffffffffffff167fddf252ad1be2c89b69c2b068fc378daa952ba7f163c4a11628f55a4df523b3ef836040516118e89190611efe565b60405180910390a35050565b60008060045490506000806240164063ffffffff167f00000000000000000000000000000000000000000000000000000000000000008461193591906121bd565b61193f9190611fc1565b905060006240164063ffffffff167f00000000000000000000000000000000000000000000000000000000000000004361197991906121bd565b6119839190611fc1565b9050808214156119b357611996436107d5565b84436119a291906121bd565b6119ac9190612163565b9250611b29565b60007f00000000000000000000000000000000000000000000000000000000000000006240164063ffffffff166001856119ed9190611f6b565b6119f79190612163565b611a019190611f6b565b9050611a0c856107d5565b8582611a1891906121bd565b611a229190612163565b935060008383611a3291906121bd565b90506000600190505b81811015611af9577f00000000000000000000000000000000000000000000000000000000000000006240164063ffffffff1682600188611a7c9190611f6b565b611a869190611f6b565b611a909190612163565b611a9a9190611f6b565b9250611ac4816240164063ffffffff16611ab49190612163565b88611abf9190611f6b565b6107d5565b6240164063ffffffff16611ad89190612163565b86611ae39190611f6b565b9550600181611af29190611f6b565b9050611a3b565b50611b03436107d5565b8243611b0f91906121bd565b611b199190612163565b85611b249190611f6b565b945050505b60065461271084611b3a9190612163565b611b449190611fc1565b600554611b519190611f6b565b94505050505090565b80600160003073ffffffffffffffffffffffffffffffffffffffff1673ffffffffffffffffffffffffffffffffffffffff1681526020019081526020016000206000828254611ba991906121bd565b9250508190555080600160008473ffffffffffffffffffffffffffffffffffffffff1673ffffffffffffffffffffffffffffffffffffffff1681526020019081526020016000206000828254611bff9190611f6b565b925050819055508173ffffffffffffffffffffffffffffffffffffffff163073ffffffffffffffffffffffffffffffffffffffff167fddf252ad1be2c89b69c2b068fc378daa952ba7f163c4a11628f55a4df523b3ef83604051611c639190611efe565b60405180910390a35050565b600081359050611c7e81612339565b92915050565b600081359050611c9381612350565b92915050565b600060208284031215611caf57611cae612316565b5b6000611cbd84828501611c6f565b91505092915050565b60008060408385031215611cdd57611cdc612316565b5b6000611ceb85828601611c6f565b9250506020611cfc85828601611c6f565b9150509250929050565b600080600060608486031215611d1f57611d1e612316565b5b6000611d2d86828701611c6f565b9350506020611d3e86828701611c6f565b9250506040611d4f86828701611c84565b9150509250925092565b60008060408385031215611d7057611d6f612316565b5b6000611d7e85828601611c6f565b9250506020611d8f85828601611c84565b9150509250929050565b600060208284031215611daf57611dae612316565b5b6000611dbd84828501611c84565b91505092915050565b60008060408385031215611ddd57611ddc612316565b5b6000611deb85828601611c84565b9250506020611dfc85828601611c84565b9150509250929050565b611e0f816121f1565b82525050565b611e1e81612203565b82525050565b6000611e2f82611f4f565b611e398185611f5a565b9350611e49818560208601612256565b611e528161231b565b840191505092915050565b611e668161222f565b82525050565b611e7581612239565b82525050565b611e8481612249565b82525050565b6000606082019050611e9f6000830186611e06565b611eac6020830185611e5d565b611eb96040830184611e5d565b949350505050565b6000602082019050611ed66000830184611e15565b92915050565b60006020820190508181036000830152611ef68184611e24565b905092915050565b6000602082019050611f136000830184611e5d565b92915050565b6000602082019050611f2e6000830184611e6c565b92915050565b6000602082019050611f496000830184611e7b565b92915050565b600081519050919050565b600082825260208201905092915050565b6000611f768261222f565b9150611f818361222f565b9250827fffffffffffffffffffffffffffffffffffffffffffffffffffffffffffffffff03821115611fb657611fb5612289565b5b828201905092915050565b6000611fcc8261222f565b9150611fd78361222f565b925082611fe757611fe66122b8565b5b828204905092915050565b6000808291508390505b600185111561203c5780860481111561201857612017612289565b5b60018516156120275780820291505b80810290506120358561232c565b9450611ffc565b94509492505050565b60006120508261222f565b915061205b8361222f565b92506120887fffffffffffffffffffffffffffffffffffffffffffffffffffffffffffffffff8484612090565b905092915050565b6000826120a0576001905061215c565b816120ae576000905061215c565b81600181146120c457600281146120ce576120fd565b600191505061215c565b60ff8411156120e0576120df612289565b5b8360020a9150848211156120f7576120f6612289565b5b5061215c565b5060208310610133831016604e8410600b84101617156121325782820a90508381111561212d5761212c612289565b5b61215c565b61213f8484846001611ff2565b9250905081840481111561215657612155612289565b5b81810290505b9392505050565b600061216e8261222f565b91506121798361222f565b9250817fffffffffffffffffffffffffffffffffffffffffffffffffffffffffffffffff04831182151516156121b2576121b1612289565b5b828202905092915050565b60006121c88261222f565b91506121d38361222f565b9250828210156121e6576121e5612289565b5b828203905092915050565b60006121fc8261220f565b9050919050565b60008115159050919050565b600073ffffffffffffffffffffffffffffffffffffffff82169050919050565b6000819050919050565b600063ffffffff82169050919050565b600060ff82169050919050565b60005b83811015612274578082015181840152602081019050612259565b83811115612283576000848401525b50505050565b7f4e487b7100000000000000000000000000000000000000000000000000000000600052601160045260246000fd5b7f4e487b7100000000000000000000000000000000000000000000000000000000600052601260045260246000fd5b7f4e487b7100000000000000000000000000000000000000000000000000000000600052603260045260246000fd5b600080fd5b6000601f19601f8301169050919050565b60008160011c9050919050565b612342816121f1565b811461234d57600080fd5b50565b6123598161222f565b811461236457600080fd5b5056fea2646970667358221220a3d54cdc41e06b464557045f9c1cdd66cfcf011c3f49131f0141273d34c982d564736f6c63430008050033",
          "opcodes": "PUSH1 0xA0 PUSH1 0x40 MSTORE CALLVALUE DUP1 ISZERO PUSH2 0x10 JUMPI PUSH1 0x0 DUP1 REVERT JUMPDEST POP NUMBER PUSH1 0x80 DUP2 DUP2 MSTORE POP POP PUSH1 0x0 PUSH1 0x5 DUP2 SWAP1 SSTORE POP NUMBER PUSH1 0x4 DUP2 SWAP1 SSTORE POP PUSH1 0x3 PUSH1 0x40 MLOAD DUP1 PUSH1 0x60 ADD PUSH1 0x40 MSTORE DUP1 CALLER PUSH20 0xFFFFFFFFFFFFFFFFFFFFFFFFFFFFFFFFFFFFFFFF AND DUP2 MSTORE PUSH1 0x20 ADD PUSH1 0x1 DUP2 MSTORE PUSH1 0x20 ADD PUSH1 0x0 DUP2 MSTORE POP SWAP1 DUP1 PUSH1 0x1 DUP2 SLOAD ADD DUP1 DUP3 SSTORE DUP1 SWAP2 POP POP PUSH1 0x1 SWAP1 SUB SWAP1 PUSH1 0x0 MSTORE PUSH1 0x20 PUSH1 0x0 KECCAK256 SWAP1 PUSH1 0x3 MUL ADD PUSH1 0x0 SWAP1 SWAP2 SWAP1 SWAP2 SWAP1 SWAP2 POP PUSH1 0x0 DUP3 ADD MLOAD DUP2 PUSH1 0x0 ADD PUSH1 0x0 PUSH2 0x100 EXP DUP2 SLOAD DUP2 PUSH20 0xFFFFFFFFFFFFFFFFFFFFFFFFFFFFFFFFFFFFFFFF MUL NOT AND SWAP1 DUP4 PUSH20 0xFFFFFFFFFFFFFFFFFFFFFFFFFFFFFFFFFFFFFFFF AND MUL OR SWAP1 SSTORE POP PUSH1 0x20 DUP3 ADD MLOAD DUP2 PUSH1 0x1 ADD SSTORE PUSH1 0x40 DUP3 ADD MLOAD DUP2 PUSH1 0x2 ADD SSTORE POP POP PUSH1 0x1 PUSH1 0x6 DUP2 SWAP1 SSTORE POP PUSH1 0x80 MLOAD PUSH2 0x239D PUSH2 0x129 PUSH1 0x0 CODECOPY PUSH1 0x0 DUP2 DUP2 PUSH2 0x7E4 ADD MSTORE DUP2 DUP2 PUSH2 0x864 ADD MSTORE DUP2 DUP2 PUSH2 0x190B ADD MSTORE DUP2 DUP2 PUSH2 0x194F ADD MSTORE DUP2 DUP2 PUSH2 0x19B7 ADD MSTORE PUSH2 0x1A45 ADD MSTORE PUSH2 0x239D PUSH1 0x0 RETURN INVALID PUSH1 0x80 PUSH1 0x40 MSTORE CALLVALUE DUP1 ISZERO PUSH2 0x10 JUMPI PUSH1 0x0 DUP1 REVERT JUMPDEST POP PUSH1 0x4 CALLDATASIZE LT PUSH2 0x1F0 JUMPI PUSH1 0x0 CALLDATALOAD PUSH1 0xE0 SHR DUP1 PUSH4 0x8C8C9FEC GT PUSH2 0x10F JUMPI DUP1 PUSH4 0xB0780CFC GT PUSH2 0xA2 JUMPI DUP1 PUSH4 0xEA03174D GT PUSH2 0x71 JUMPI DUP1 PUSH4 0xEA03174D EQ PUSH2 0x601 JUMPI DUP1 PUSH4 0xEFF60E8F EQ PUSH2 0x61F JUMPI DUP1 PUSH4 0xF76F8D78 EQ PUSH2 0x63B JUMPI DUP1 PUSH4 0xFEEFF293 EQ PUSH2 0x659 JUMPI PUSH2 0x1F0 JUMP JUMPDEST DUP1 PUSH4 0xB0780CFC EQ PUSH2 0x565 JUMPI DUP1 PUSH4 0xDB3AD22C EQ PUSH2 0x583 JUMPI DUP1 PUSH4 0xDD62ED3E EQ PUSH2 0x5A1 JUMPI DUP1 PUSH4 0xDE8FF63B EQ PUSH2 0x5D1 JUMPI PUSH2 0x1F0 JUMP JUMPDEST DUP1 PUSH4 0xA3F4DF7E GT PUSH2 0xDE JUMPI DUP1 PUSH4 0xA3F4DF7E EQ PUSH2 0x4DB JUMPI DUP1 PUSH4 0xA54A72B7 EQ PUSH2 0x4F9 JUMPI DUP1 PUSH4 0xA9059CBB EQ PUSH2 0x517 JUMPI DUP1 PUSH4 0xAAF5EB68 EQ PUSH2 0x547 JUMPI PUSH2 0x1F0 JUMP JUMPDEST DUP1 PUSH4 0x8C8C9FEC EQ PUSH2 0x467 JUMPI DUP1 PUSH4 0x8CA42D2A EQ PUSH2 0x497 JUMPI DUP1 PUSH4 0x95D89B41 EQ PUSH2 0x4B3 JUMPI DUP1 PUSH4 0x9642DDAF EQ PUSH2 0x4D1 JUMPI PUSH2 0x1F0 JUMP JUMPDEST DUP1 PUSH4 0x3125E46E GT PUSH2 0x187 JUMPI DUP1 PUSH4 0x6B67A1B2 GT PUSH2 0x156 JUMPI DUP1 PUSH4 0x6B67A1B2 EQ PUSH2 0x3C9 JUMPI DUP1 PUSH4 0x70A08231 EQ PUSH2 0x3FB JUMPI DUP1 PUSH4 0x72CF105D EQ PUSH2 0x42B JUMPI DUP1 PUSH4 0x72F627A7 EQ PUSH2 0x449 JUMPI PUSH2 0x1F0 JUMP JUMPDEST DUP1 PUSH4 0x3125E46E EQ PUSH2 0x32D JUMPI DUP1 PUSH4 0x313CE567 EQ PUSH2 0x35D JUMPI DUP1 PUSH4 0x3D558387 EQ PUSH2 0x37B JUMPI DUP1 PUSH4 0x4D474898 EQ PUSH2 0x399 JUMPI PUSH2 0x1F0 JUMP JUMPDEST DUP1 PUSH4 0x151AA86A GT PUSH2 0x1C3 JUMPI DUP1 PUSH4 0x151AA86A EQ PUSH2 0x2A3 JUMPI DUP1 PUSH4 0x18160DDD EQ PUSH2 0x2C1 JUMPI DUP1 PUSH4 0x23B872DD EQ PUSH2 0x2DF JUMPI DUP1 PUSH4 0x2E0F2625 EQ PUSH2 0x30F JUMPI PUSH2 0x1F0 JUMP JUMPDEST DUP1 PUSH4 0x4EAA113 EQ PUSH2 0x1F5 JUMPI DUP1 PUSH4 0x6FDDE03 EQ PUSH2 0x225 JUMPI DUP1 PUSH4 0x95EA7B3 EQ PUSH2 0x243 JUMPI DUP1 PUSH4 0xA24470E EQ PUSH2 0x273 JUMPI JUMPDEST PUSH1 0x0 DUP1 REVERT JUMPDEST PUSH2 0x20F PUSH1 0x4 DUP1 CALLDATASIZE SUB DUP2 ADD SWAP1 PUSH2 0x20A SWAP2 SWAP1 PUSH2 0x1D99 JUMP JUMPDEST PUSH2 0x677 JUMP JUMPDEST PUSH1 0x40 MLOAD PUSH2 0x21C SWAP2 SWAP1 PUSH2 0x1EFE JUMP JUMPDEST PUSH1 0x40 MLOAD DUP1 SWAP2 SUB SWAP1 RETURN JUMPDEST PUSH2 0x22D PUSH2 0x6A6 JUMP JUMPDEST PUSH1 0x40 MLOAD PUSH2 0x23A SWAP2 SWAP1 PUSH2 0x1EDC JUMP JUMPDEST PUSH1 0x40 MLOAD DUP1 SWAP2 SUB SWAP1 RETURN JUMPDEST PUSH2 0x25D PUSH1 0x4 DUP1 CALLDATASIZE SUB DUP2 ADD SWAP1 PUSH2 0x258 SWAP2 SWAP1 PUSH2 0x1D59 JUMP JUMPDEST PUSH2 0x6E3 JUMP JUMPDEST PUSH1 0x40 MLOAD PUSH2 0x26A SWAP2 SWAP1 PUSH2 0x1EC1 JUMP JUMPDEST PUSH1 0x40 MLOAD DUP1 SWAP2 SUB SWAP1 RETURN JUMPDEST PUSH2 0x28D PUSH1 0x4 DUP1 CALLDATASIZE SUB DUP2 ADD SWAP1 PUSH2 0x288 SWAP2 SWAP1 PUSH2 0x1D99 JUMP JUMPDEST PUSH2 0x7D5 JUMP JUMPDEST PUSH1 0x40 MLOAD PUSH2 0x29A SWAP2 SWAP1 PUSH2 0x1EFE JUMP JUMPDEST PUSH1 0x40 MLOAD DUP1 SWAP2 SUB SWAP1 RETURN JUMPDEST PUSH2 0x2AB PUSH2 0x862 JUMP JUMPDEST PUSH1 0x40 MLOAD PUSH2 0x2B8 SWAP2 SWAP1 PUSH2 0x1EFE JUMP JUMPDEST PUSH1 0x40 MLOAD DUP1 SWAP2 SUB SWAP1 RETURN JUMPDEST PUSH2 0x2C9 PUSH2 0x886 JUMP JUMPDEST PUSH1 0x40 MLOAD PUSH2 0x2D6 SWAP2 SWAP1 PUSH2 0x1EFE JUMP JUMPDEST PUSH1 0x40 MLOAD DUP1 SWAP2 SUB SWAP1 RETURN JUMPDEST PUSH2 0x2F9 PUSH1 0x4 DUP1 CALLDATASIZE SUB DUP2 ADD SWAP1 PUSH2 0x2F4 SWAP2 SWAP1 PUSH2 0x1D06 JUMP JUMPDEST PUSH2 0x88F JUMP JUMPDEST PUSH1 0x40 MLOAD PUSH2 0x306 SWAP2 SWAP1 PUSH2 0x1EC1 JUMP JUMPDEST PUSH1 0x40 MLOAD DUP1 SWAP2 SUB SWAP1 RETURN JUMPDEST PUSH2 0x317 PUSH2 0xAE2 JUMP JUMPDEST PUSH1 0x40 MLOAD PUSH2 0x324 SWAP2 SWAP1 PUSH2 0x1F34 JUMP JUMPDEST PUSH1 0x40 MLOAD DUP1 SWAP2 SUB SWAP1 RETURN JUMPDEST PUSH2 0x347 PUSH1 0x4 DUP1 CALLDATASIZE SUB DUP2 ADD SWAP1 PUSH2 0x342 SWAP2 SWAP1 PUSH2 0x1D99 JUMP JUMPDEST PUSH2 0xAE7 JUMP JUMPDEST PUSH1 0x40 MLOAD PUSH2 0x354 SWAP2 SWAP1 PUSH2 0x1EFE JUMP JUMPDEST PUSH1 0x40 MLOAD DUP1 SWAP2 SUB SWAP1 RETURN JUMPDEST PUSH2 0x365 PUSH2 0xB81 JUMP JUMPDEST PUSH1 0x40 MLOAD PUSH2 0x372 SWAP2 SWAP1 PUSH2 0x1F34 JUMP JUMPDEST PUSH1 0x40 MLOAD DUP1 SWAP2 SUB SWAP1 RETURN JUMPDEST PUSH2 0x383 PUSH2 0xB8A JUMP JUMPDEST PUSH1 0x40 MLOAD PUSH2 0x390 SWAP2 SWAP1 PUSH2 0x1EFE JUMP JUMPDEST PUSH1 0x40 MLOAD DUP1 SWAP2 SUB SWAP1 RETURN JUMPDEST PUSH2 0x3B3 PUSH1 0x4 DUP1 CALLDATASIZE SUB DUP2 ADD SWAP1 PUSH2 0x3AE SWAP2 SWAP1 PUSH2 0x1D99 JUMP JUMPDEST PUSH2 0xB90 JUMP JUMPDEST PUSH1 0x40 MLOAD PUSH2 0x3C0 SWAP2 SWAP1 PUSH2 0x1EFE JUMP JUMPDEST PUSH1 0x40 MLOAD DUP1 SWAP2 SUB SWAP1 RETURN JUMPDEST PUSH2 0x3E3 PUSH1 0x4 DUP1 CALLDATASIZE SUB DUP2 ADD SWAP1 PUSH2 0x3DE SWAP2 SWAP1 PUSH2 0x1D99 JUMP JUMPDEST PUSH2 0xCE4 JUMP JUMPDEST PUSH1 0x40 MLOAD PUSH2 0x3F2 SWAP4 SWAP3 SWAP2 SWAP1 PUSH2 0x1E8A JUMP JUMPDEST PUSH1 0x40 MLOAD DUP1 SWAP2 SUB SWAP1 RETURN JUMPDEST PUSH2 0x415 PUSH1 0x4 DUP1 CALLDATASIZE SUB DUP2 ADD SWAP1 PUSH2 0x410 SWAP2 SWAP1 PUSH2 0x1C99 JUMP JUMPDEST PUSH2 0xD3E JUMP JUMPDEST PUSH1 0x40 MLOAD PUSH2 0x422 SWAP2 SWAP1 PUSH2 0x1EFE JUMP JUMPDEST PUSH1 0x40 MLOAD DUP1 SWAP2 SUB SWAP1 RETURN JUMPDEST PUSH2 0x433 PUSH2 0xD87 JUMP JUMPDEST PUSH1 0x40 MLOAD PUSH2 0x440 SWAP2 SWAP1 PUSH2 0x1EFE JUMP JUMPDEST PUSH1 0x40 MLOAD DUP1 SWAP2 SUB SWAP1 RETURN JUMPDEST PUSH2 0x451 PUSH2 0xDAA JUMP JUMPDEST PUSH1 0x40 MLOAD PUSH2 0x45E SWAP2 SWAP1 PUSH2 0x1F19 JUMP JUMPDEST PUSH1 0x40 MLOAD DUP1 SWAP2 SUB SWAP1 RETURN JUMPDEST PUSH2 0x481 PUSH1 0x4 DUP1 CALLDATASIZE SUB DUP2 ADD SWAP1 PUSH2 0x47C SWAP2 SWAP1 PUSH2 0x1D99 JUMP JUMPDEST PUSH2 0xDB1 JUMP JUMPDEST PUSH1 0x40 MLOAD PUSH2 0x48E SWAP2 SWAP1 PUSH2 0x1EFE JUMP JUMPDEST PUSH1 0x40 MLOAD DUP1 SWAP2 SUB SWAP1 RETURN JUMPDEST PUSH2 0x4B1 PUSH1 0x4 DUP1 CALLDATASIZE SUB DUP2 ADD SWAP1 PUSH2 0x4AC SWAP2 SWAP1 PUSH2 0x1DC6 JUMP JUMPDEST PUSH2 0xECC JUMP JUMPDEST STOP JUMPDEST PUSH2 0x4BB PUSH2 0x1155 JUMP JUMPDEST PUSH1 0x40 MLOAD PUSH2 0x4C8 SWAP2 SWAP1 PUSH2 0x1EDC JUMP JUMPDEST PUSH1 0x40 MLOAD DUP1 SWAP2 SUB SWAP1 RETURN JUMPDEST PUSH2 0x4D9 PUSH2 0x1192 JUMP JUMPDEST STOP JUMPDEST PUSH2 0x4E3 PUSH2 0x12BC JUMP JUMPDEST PUSH1 0x40 MLOAD PUSH2 0x4F0 SWAP2 SWAP1 PUSH2 0x1EDC JUMP JUMPDEST PUSH1 0x40 MLOAD DUP1 SWAP2 SUB SWAP1 RETURN JUMPDEST PUSH2 0x501 PUSH2 0x12F5 JUMP JUMPDEST PUSH1 0x40 MLOAD PUSH2 0x50E SWAP2 SWAP1 PUSH2 0x1EFE JUMP JUMPDEST PUSH1 0x40 MLOAD DUP1 SWAP2 SUB SWAP1 RETURN JUMPDEST PUSH2 0x531 PUSH1 0x4 DUP1 CALLDATASIZE SUB DUP2 ADD SWAP1 PUSH2 0x52C SWAP2 SWAP1 PUSH2 0x1D59 JUMP JUMPDEST PUSH2 0x1309 JUMP JUMPDEST PUSH1 0x40 MLOAD PUSH2 0x53E SWAP2 SWAP1 PUSH2 0x1EC1 JUMP JUMPDEST PUSH1 0x40 MLOAD DUP1 SWAP2 SUB SWAP1 RETURN JUMPDEST PUSH2 0x54F PUSH2 0x1426 JUMP JUMPDEST PUSH1 0x40 MLOAD PUSH2 0x55C SWAP2 SWAP1 PUSH2 0x1EFE JUMP JUMPDEST PUSH1 0x40 MLOAD DUP1 SWAP2 SUB SWAP1 RETURN JUMPDEST PUSH2 0x56D PUSH2 0x142C JUMP JUMPDEST PUSH1 0x40 MLOAD PUSH2 0x57A SWAP2 SWAP1 PUSH2 0x1EFE JUMP JUMPDEST PUSH1 0x40 MLOAD DUP1 SWAP2 SUB SWAP1 RETURN JUMPDEST PUSH2 0x58B PUSH2 0x1439 JUMP JUMPDEST PUSH1 0x40 MLOAD PUSH2 0x598 SWAP2 SWAP1 PUSH2 0x1EFE JUMP JUMPDEST PUSH1 0x40 MLOAD DUP1 SWAP2 SUB SWAP1 RETURN JUMPDEST PUSH2 0x5BB PUSH1 0x4 DUP1 CALLDATASIZE SUB DUP2 ADD SWAP1 PUSH2 0x5B6 SWAP2 SWAP1 PUSH2 0x1CC6 JUMP JUMPDEST PUSH2 0x143F JUMP JUMPDEST PUSH1 0x40 MLOAD PUSH2 0x5C8 SWAP2 SWAP1 PUSH2 0x1EFE JUMP JUMPDEST PUSH1 0x40 MLOAD DUP1 SWAP2 SUB SWAP1 RETURN JUMPDEST PUSH2 0x5EB PUSH1 0x4 DUP1 CALLDATASIZE SUB DUP2 ADD SWAP1 PUSH2 0x5E6 SWAP2 SWAP1 PUSH2 0x1D99 JUMP JUMPDEST PUSH2 0x14C6 JUMP JUMPDEST PUSH1 0x40 MLOAD PUSH2 0x5F8 SWAP2 SWAP1 PUSH2 0x1EFE JUMP JUMPDEST PUSH1 0x40 MLOAD DUP1 SWAP2 SUB SWAP1 RETURN JUMPDEST PUSH2 0x609 PUSH2 0x14F8 JUMP JUMPDEST PUSH1 0x40 MLOAD PUSH2 0x616 SWAP2 SWAP1 PUSH2 0x1EFE JUMP JUMPDEST PUSH1 0x40 MLOAD DUP1 SWAP2 SUB SWAP1 RETURN JUMPDEST PUSH2 0x639 PUSH1 0x4 DUP1 CALLDATASIZE SUB DUP2 ADD SWAP1 PUSH2 0x634 SWAP2 SWAP1 PUSH2 0x1D99 JUMP JUMPDEST PUSH2 0x14FE JUMP JUMPDEST STOP JUMPDEST PUSH2 0x643 PUSH2 0x1679 JUMP JUMPDEST PUSH1 0x40 MLOAD PUSH2 0x650 SWAP2 SWAP1 PUSH2 0x1EDC JUMP JUMPDEST PUSH1 0x40 MLOAD DUP1 SWAP2 SUB SWAP1 RETURN JUMPDEST PUSH2 0x661 PUSH2 0x16B2 JUMP JUMPDEST PUSH1 0x40 MLOAD PUSH2 0x66E SWAP2 SWAP1 PUSH2 0x1EFE JUMP JUMPDEST PUSH1 0x40 MLOAD DUP1 SWAP2 SUB SWAP1 RETURN JUMPDEST PUSH1 0x0 PUSH1 0x3 DUP3 DUP2 SLOAD DUP2 LT PUSH2 0x68D JUMPI PUSH2 0x68C PUSH2 0x22E7 JUMP JUMPDEST JUMPDEST SWAP1 PUSH1 0x0 MSTORE PUSH1 0x20 PUSH1 0x0 KECCAK256 SWAP1 PUSH1 0x3 MUL ADD PUSH1 0x1 ADD SLOAD SWAP1 POP SWAP2 SWAP1 POP JUMP JUMPDEST PUSH1 0x60 PUSH1 0x40 MLOAD DUP1 PUSH1 0x40 ADD PUSH1 0x40 MSTORE DUP1 PUSH1 0xF DUP2 MSTORE PUSH1 0x20 ADD PUSH32 0x5669727475616C20426974636F696E0000000000000000000000000000000000 DUP2 MSTORE POP SWAP1 POP SWAP1 JUMP JUMPDEST PUSH1 0x0 DUP2 PUSH1 0x2 PUSH1 0x0 CALLER PUSH20 0xFFFFFFFFFFFFFFFFFFFFFFFFFFFFFFFFFFFFFFFF AND PUSH20 0xFFFFFFFFFFFFFFFFFFFFFFFFFFFFFFFFFFFFFFFF AND DUP2 MSTORE PUSH1 0x20 ADD SWAP1 DUP2 MSTORE PUSH1 0x20 ADD PUSH1 0x0 KECCAK256 PUSH1 0x0 DUP6 PUSH20 0xFFFFFFFFFFFFFFFFFFFFFFFFFFFFFFFFFFFFFFFF AND PUSH20 0xFFFFFFFFFFFFFFFFFFFFFFFFFFFFFFFFFFFFFFFF AND DUP2 MSTORE PUSH1 0x20 ADD SWAP1 DUP2 MSTORE PUSH1 0x20 ADD PUSH1 0x0 KECCAK256 DUP2 SWAP1 SSTORE POP DUP3 PUSH20 0xFFFFFFFFFFFFFFFFFFFFFFFFFFFFFFFFFFFFFFFF AND CALLER PUSH20 0xFFFFFFFFFFFFFFFFFFFFFFFFFFFFFFFFFFFFFFFF AND PUSH32 0x8C5BE1E5EBEC7D5BD14F71427D1E84F3DD0314C0F7B2291E5B200AC8C7C3B925 DUP5 PUSH1 0x40 MLOAD PUSH2 0x7C3 SWAP2 SWAP1 PUSH2 0x1EFE JUMP JUMPDEST PUSH1 0x40 MLOAD DUP1 SWAP2 SUB SWAP1 LOG3 PUSH1 0x1 SWAP1 POP SWAP3 SWAP2 POP POP JUMP JUMPDEST PUSH1 0x0 DUP1 PUSH3 0x401640 PUSH4 0xFFFFFFFF AND PUSH32 0x0 DUP5 PUSH2 0x80E SWAP2 SWAP1 PUSH2 0x21BD JUMP JUMPDEST PUSH2 0x818 SWAP2 SWAP1 PUSH2 0x1FC1 JUMP JUMPDEST SWAP1 POP DUP1 PUSH1 0x2 PUSH2 0x827 SWAP2 SWAP1 PUSH2 0x2045 JUMP JUMPDEST PUSH1 0xA PUSH1 0x8 PUSH1 0xFF AND PUSH1 0xA PUSH2 0x83A SWAP2 SWAP1 PUSH2 0x2045 JUMP JUMPDEST PUSH1 0x19 PUSH2 0x846 SWAP2 SWAP1 PUSH2 0x2163 JUMP JUMPDEST PUSH2 0x850 SWAP2 SWAP1 PUSH2 0x1FC1 JUMP JUMPDEST PUSH2 0x85A SWAP2 SWAP1 PUSH2 0x1FC1 JUMP JUMPDEST SWAP2 POP POP SWAP2 SWAP1 POP JUMP JUMPDEST PUSH32 0x0 DUP2 JUMP JUMPDEST PUSH1 0x0 DUP1 SLOAD SWAP1 POP SWAP1 JUMP JUMPDEST PUSH1 0x0 DUP1 PUSH1 0x2 PUSH1 0x0 DUP7 PUSH20 0xFFFFFFFFFFFFFFFFFFFFFFFFFFFFFFFFFFFFFFFF AND PUSH20 0xFFFFFFFFFFFFFFFFFFFFFFFFFFFFFFFFFFFFFFFF AND DUP2 MSTORE PUSH1 0x20 ADD SWAP1 DUP2 MSTORE PUSH1 0x20 ADD PUSH1 0x0 KECCAK256 PUSH1 0x0 CALLER PUSH20 0xFFFFFFFFFFFFFFFFFFFFFFFFFFFFFFFFFFFFFFFF AND PUSH20 0xFFFFFFFFFFFFFFFFFFFFFFFFFFFFFFFFFFFFFFFF AND DUP2 MSTORE PUSH1 0x20 ADD SWAP1 DUP2 MSTORE PUSH1 0x20 ADD PUSH1 0x0 KECCAK256 SLOAD SWAP1 POP PUSH32 0xFFFFFFFFFFFFFFFFFFFFFFFFFFFFFFFFFFFFFFFFFFFFFFFFFFFFFFFFFFFFFFFF DUP2 EQ PUSH2 0x9C5 JUMPI DUP3 DUP2 PUSH2 0x944 SWAP2 SWAP1 PUSH2 0x21BD JUMP JUMPDEST PUSH1 0x2 PUSH1 0x0 DUP8 PUSH20 0xFFFFFFFFFFFFFFFFFFFFFFFFFFFFFFFFFFFFFFFF AND PUSH20 0xFFFFFFFFFFFFFFFFFFFFFFFFFFFFFFFFFFFFFFFF AND DUP2 MSTORE PUSH1 0x20 ADD SWAP1 DUP2 MSTORE PUSH1 0x20 ADD PUSH1 0x0 KECCAK256 PUSH1 0x0 CALLER PUSH20 0xFFFFFFFFFFFFFFFFFFFFFFFFFFFFFFFFFFFFFFFF AND PUSH20 0xFFFFFFFFFFFFFFFFFFFFFFFFFFFFFFFFFFFFFFFF AND DUP2 MSTORE PUSH1 0x20 ADD SWAP1 DUP2 MSTORE PUSH1 0x20 ADD PUSH1 0x0 KECCAK256 DUP2 SWAP1 SSTORE POP JUMPDEST DUP3 PUSH1 0x1 PUSH1 0x0 DUP8 PUSH20 0xFFFFFFFFFFFFFFFFFFFFFFFFFFFFFFFFFFFFFFFF AND PUSH20 0xFFFFFFFFFFFFFFFFFFFFFFFFFFFFFFFFFFFFFFFF AND DUP2 MSTORE PUSH1 0x20 ADD SWAP1 DUP2 MSTORE PUSH1 0x20 ADD PUSH1 0x0 KECCAK256 PUSH1 0x0 DUP3 DUP3 SLOAD PUSH2 0xA14 SWAP2 SWAP1 PUSH2 0x21BD JUMP JUMPDEST SWAP3 POP POP DUP2 SWAP1 SSTORE POP DUP3 PUSH1 0x1 PUSH1 0x0 DUP7 PUSH20 0xFFFFFFFFFFFFFFFFFFFFFFFFFFFFFFFFFFFFFFFF AND PUSH20 0xFFFFFFFFFFFFFFFFFFFFFFFFFFFFFFFFFFFFFFFF AND DUP2 MSTORE PUSH1 0x20 ADD SWAP1 DUP2 MSTORE PUSH1 0x20 ADD PUSH1 0x0 KECCAK256 PUSH1 0x0 DUP3 DUP3 SLOAD PUSH2 0xA6A SWAP2 SWAP1 PUSH2 0x1F6B JUMP JUMPDEST SWAP3 POP POP DUP2 SWAP1 SSTORE POP DUP4 PUSH20 0xFFFFFFFFFFFFFFFFFFFFFFFFFFFFFFFFFFFFFFFF AND DUP6 PUSH20 0xFFFFFFFFFFFFFFFFFFFFFFFFFFFFFFFFFFFFFFFF AND PUSH32 0xDDF252AD1BE2C89B69C2B068FC378DAA952BA7F163C4A11628F55A4DF523B3EF DUP6 PUSH1 0x40 MLOAD PUSH2 0xACE SWAP2 SWAP1 PUSH2 0x1EFE JUMP JUMPDEST PUSH1 0x40 MLOAD DUP1 SWAP2 SUB SWAP1 LOG3 PUSH1 0x1 SWAP2 POP POP SWAP4 SWAP3 POP POP POP JUMP JUMPDEST PUSH1 0x8 DUP2 JUMP JUMPDEST PUSH1 0x0 PUSH2 0xB1B ADDRESS PUSH1 0x8 PUSH1 0xFF AND PUSH1 0xA PUSH2 0xAFE SWAP2 SWAP1 PUSH2 0x2045 JUMP JUMPDEST PUSH2 0x2710 PUSH2 0xB0B SWAP2 SWAP1 PUSH2 0x2163 JUMP JUMPDEST DUP5 PUSH2 0xB16 SWAP2 SWAP1 PUSH2 0x2163 JUMP JUMPDEST PUSH2 0x1309 JUMP JUMPDEST POP PUSH1 0x0 PUSH2 0xB27 DUP4 PUSH2 0x16D3 JUMP JUMPDEST SWAP1 POP DUP1 CALLER PUSH20 0xFFFFFFFFFFFFFFFFFFFFFFFFFFFFFFFFFFFFFFFF AND PUSH32 0x1D73F6A4197AD5E95D19DFFB0C8E64B71BED8F02B744DE7BECEC8F076EEC82A9 DUP6 PUSH1 0x40 MLOAD PUSH2 0xB70 SWAP2 SWAP1 PUSH2 0x1EFE JUMP JUMPDEST PUSH1 0x40 MLOAD DUP1 SWAP2 SUB SWAP1 LOG3 DUP1 SWAP2 POP POP SWAP2 SWAP1 POP JUMP JUMPDEST PUSH1 0x0 PUSH1 0x8 SWAP1 POP SWAP1 JUMP JUMPDEST PUSH1 0x5 SLOAD DUP2 JUMP JUMPDEST PUSH1 0x0 DUP1 PUSH1 0x3 DUP4 DUP2 SLOAD DUP2 LT PUSH2 0xBA7 JUMPI PUSH2 0xBA6 PUSH2 0x22E7 JUMP JUMPDEST JUMPDEST SWAP1 PUSH1 0x0 MSTORE PUSH1 0x20 PUSH1 0x0 KECCAK256 SWAP1 PUSH1 0x3 MUL ADD SWAP1 POP CALLER PUSH20 0xFFFFFFFFFFFFFFFFFFFFFFFFFFFFFFFFFFFFFFFF AND DUP2 PUSH1 0x0 ADD PUSH1 0x0 SWAP1 SLOAD SWAP1 PUSH2 0x100 EXP SWAP1 DIV PUSH20 0xFFFFFFFFFFFFFFFFFFFFFFFFFFFFFFFFFFFFFFFF AND PUSH20 0xFFFFFFFFFFFFFFFFFFFFFFFFFFFFFFFFFFFFFFFF AND EQ PUSH2 0xC13 JUMPI PUSH1 0x0 DUP1 REVERT JUMPDEST PUSH1 0x0 DUP2 PUSH1 0x1 ADD SLOAD SWAP1 POP PUSH1 0x0 PUSH2 0xC26 PUSH2 0x17EB JUMP JUMPDEST SWAP1 POP PUSH1 0x0 DUP4 PUSH1 0x2 ADD SLOAD PUSH2 0x2710 DUP5 DUP5 PUSH2 0xC3E SWAP2 SWAP1 PUSH2 0x2163 JUMP JUMPDEST PUSH2 0xC48 SWAP2 SWAP1 PUSH2 0x1FC1 JUMP JUMPDEST PUSH2 0xC52 SWAP2 SWAP1 PUSH2 0x21BD JUMP JUMPDEST SWAP1 POP PUSH1 0x0 DUP2 GT ISZERO PUSH2 0xC68 JUMPI PUSH2 0xC67 CALLER DUP3 PUSH2 0x181C JUMP JUMPDEST JUMPDEST PUSH2 0x2710 DUP4 DUP4 PUSH2 0xC77 SWAP2 SWAP1 PUSH2 0x2163 JUMP JUMPDEST PUSH2 0xC81 SWAP2 SWAP1 PUSH2 0x1FC1 JUMP JUMPDEST DUP5 PUSH1 0x2 ADD DUP2 SWAP1 SSTORE POP DUP6 CALLER PUSH20 0xFFFFFFFFFFFFFFFFFFFFFFFFFFFFFFFFFFFFFFFF AND PUSH32 0x4CD36FB76975AB408E67B9FF3C17B4DD03112963AED18CCD8907A0C8B77DAEC2 DUP4 PUSH1 0x40 MLOAD PUSH2 0xCD0 SWAP2 SWAP1 PUSH2 0x1EFE JUMP JUMPDEST PUSH1 0x40 MLOAD DUP1 SWAP2 SUB SWAP1 LOG3 DUP1 SWAP5 POP POP POP POP POP SWAP2 SWAP1 POP JUMP JUMPDEST PUSH1 0x3 DUP2 DUP2 SLOAD DUP2 LT PUSH2 0xCF4 JUMPI PUSH1 0x0 DUP1 REVERT JUMPDEST SWAP1 PUSH1 0x0 MSTORE PUSH1 0x20 PUSH1 0x0 KECCAK256 SWAP1 PUSH1 0x3 MUL ADD PUSH1 0x0 SWAP2 POP SWAP1 POP DUP1 PUSH1 0x0 ADD PUSH1 0x0 SWAP1 SLOAD SWAP1 PUSH2 0x100 EXP SWAP1 DIV PUSH20 0xFFFFFFFFFFFFFFFFFFFFFFFFFFFFFFFFFFFFFFFF AND SWAP1 DUP1 PUSH1 0x1 ADD SLOAD SWAP1 DUP1 PUSH1 0x2 ADD SLOAD SWAP1 POP DUP4 JUMP JUMPDEST PUSH1 0x0 PUSH1 0x1 PUSH1 0x0 DUP4 PUSH20 0xFFFFFFFFFFFFFFFFFFFFFFFFFFFFFFFFFFFFFFFF AND PUSH20 0xFFFFFFFFFFFFFFFFFFFFFFFFFFFFFFFFFFFFFFFF AND DUP2 MSTORE PUSH1 0x20 ADD SWAP1 DUP2 MSTORE PUSH1 0x20 ADD PUSH1 0x0 KECCAK256 SLOAD SWAP1 POP SWAP2 SWAP1 POP JUMP JUMPDEST PUSH1 0x8 PUSH1 0xFF AND PUSH1 0xA PUSH2 0xD98 SWAP2 SWAP1 PUSH2 0x2045 JUMP JUMPDEST PUSH4 0x1406F40 PUSH2 0xDA7 SWAP2 SWAP1 PUSH2 0x2163 JUMP JUMPDEST DUP2 JUMP JUMPDEST PUSH3 0x401640 DUP2 JUMP JUMPDEST PUSH1 0x0 DUP1 PUSH1 0x3 DUP4 DUP2 SLOAD DUP2 LT PUSH2 0xDC8 JUMPI PUSH2 0xDC7 PUSH2 0x22E7 JUMP JUMPDEST JUMPDEST SWAP1 PUSH1 0x0 MSTORE PUSH1 0x20 PUSH1 0x0 KECCAK256 SWAP1 PUSH1 0x3 MUL ADD PUSH1 0x40 MLOAD DUP1 PUSH1 0x60 ADD PUSH1 0x40 MSTORE SWAP1 DUP2 PUSH1 0x0 DUP3 ADD PUSH1 0x0 SWAP1 SLOAD SWAP1 PUSH2 0x100 EXP SWAP1 DIV PUSH20 0xFFFFFFFFFFFFFFFFFFFFFFFFFFFFFFFFFFFFFFFF AND PUSH20 0xFFFFFFFFFFFFFFFFFFFFFFFFFFFFFFFFFFFFFFFF AND PUSH20 0xFFFFFFFFFFFFFFFFFFFFFFFFFFFFFFFFFFFFFFFF AND DUP2 MSTORE PUSH1 0x20 ADD PUSH1 0x1 DUP3 ADD SLOAD DUP2 MSTORE PUSH1 0x20 ADD PUSH1 0x2 DUP3 ADD SLOAD DUP2 MSTORE POP POP SWAP1 POP PUSH1 0x0 PUSH20 0xFFFFFFFFFFFFFFFFFFFFFFFFFFFFFFFFFFFFFFFF AND DUP2 PUSH1 0x0 ADD MLOAD PUSH20 0xFFFFFFFFFFFFFFFFFFFFFFFFFFFFFFFFFFFFFFFF AND EQ ISZERO PUSH2 0xE90 JUMPI PUSH1 0x0 SWAP2 POP POP PUSH2 0xEC7 JUMP JUMPDEST DUP1 PUSH1 0x40 ADD MLOAD PUSH2 0x2710 DUP3 PUSH1 0x20 ADD MLOAD PUSH2 0xEA5 PUSH2 0x18F4 JUMP JUMPDEST PUSH2 0xEAF SWAP2 SWAP1 PUSH2 0x2163 JUMP JUMPDEST PUSH2 0xEB9 SWAP2 SWAP1 PUSH2 0x1FC1 JUMP JUMPDEST PUSH2 0xEC3 SWAP2 SWAP1 PUSH2 0x21BD JUMP JUMPDEST SWAP2 POP POP JUMPDEST SWAP2 SWAP1 POP JUMP JUMPDEST PUSH1 0x0 PUSH1 0x3 DUP4 DUP2 SLOAD DUP2 LT PUSH2 0xEE2 JUMPI PUSH2 0xEE1 PUSH2 0x22E7 JUMP JUMPDEST JUMPDEST SWAP1 PUSH1 0x0 MSTORE PUSH1 0x20 PUSH1 0x0 KECCAK256 SWAP1 PUSH1 0x3 MUL ADD SWAP1 POP PUSH1 0x0 DUP4 EQ ISZERO PUSH2 0xF00 JUMPI PUSH1 0x0 DUP1 REVERT JUMPDEST CALLER PUSH20 0xFFFFFFFFFFFFFFFFFFFFFFFFFFFFFFFFFFFFFFFF AND DUP2 PUSH1 0x0 ADD PUSH1 0x0 SWAP1 SLOAD SWAP1 PUSH2 0x100 EXP SWAP1 DIV PUSH20 0xFFFFFFFFFFFFFFFFFFFFFFFFFFFFFFFFFFFFFFFF AND PUSH20 0xFFFFFFFFFFFFFFFFFFFFFFFFFFFFFFFFFFFFFFFF AND EQ PUSH2 0xF5C JUMPI PUSH1 0x0 DUP1 REVERT JUMPDEST PUSH1 0x0 DUP2 PUSH1 0x1 ADD SLOAD SWAP1 POP DUP3 DUP2 EQ ISZERO PUSH2 0xF72 JUMPI PUSH1 0x0 DUP1 REVERT JUMPDEST PUSH1 0x0 PUSH2 0xF7C PUSH2 0x17EB JUMP JUMPDEST SWAP1 POP PUSH1 0x0 DUP4 PUSH1 0x2 ADD SLOAD PUSH2 0x2710 DUP5 DUP5 PUSH2 0xF94 SWAP2 SWAP1 PUSH2 0x2163 JUMP JUMPDEST PUSH2 0xF9E SWAP2 SWAP1 PUSH2 0x1FC1 JUMP JUMPDEST PUSH2 0xFA8 SWAP2 SWAP1 PUSH2 0x21BD JUMP JUMPDEST SWAP1 POP PUSH1 0x0 DUP2 GT ISZERO PUSH2 0xFBE JUMPI PUSH2 0xFBD CALLER DUP3 PUSH2 0x181C JUMP JUMPDEST JUMPDEST DUP6 CALLER PUSH20 0xFFFFFFFFFFFFFFFFFFFFFFFFFFFFFFFFFFFFFFFF AND PUSH32 0x4CD36FB76975AB408E67B9FF3C17B4DD03112963AED18CCD8907A0C8B77DAEC2 DUP4 PUSH1 0x40 MLOAD PUSH2 0x1005 SWAP2 SWAP1 PUSH2 0x1EFE JUMP JUMPDEST PUSH1 0x40 MLOAD DUP1 SWAP2 SUB SWAP1 LOG3 DUP5 DUP4 LT ISZERO PUSH2 0x1077 JUMPI PUSH1 0x0 DUP4 DUP7 PUSH2 0x1023 SWAP2 SWAP1 PUSH2 0x21BD JUMP JUMPDEST SWAP1 POP PUSH2 0x1057 ADDRESS PUSH1 0x8 PUSH1 0xFF AND PUSH1 0xA PUSH2 0x103A SWAP2 SWAP1 PUSH2 0x2045 JUMP JUMPDEST PUSH2 0x2710 PUSH2 0x1047 SWAP2 SWAP1 PUSH2 0x2163 JUMP JUMPDEST DUP4 PUSH2 0x1052 SWAP2 SWAP1 PUSH2 0x2163 JUMP JUMPDEST PUSH2 0x1309 JUMP JUMPDEST POP DUP1 PUSH1 0x6 PUSH1 0x0 DUP3 DUP3 SLOAD PUSH2 0x106A SWAP2 SWAP1 PUSH2 0x1F6B JUMP JUMPDEST SWAP3 POP POP DUP2 SWAP1 SSTORE POP POP PUSH2 0x10D4 JUMP JUMPDEST PUSH1 0x0 DUP6 DUP5 PUSH2 0x1085 SWAP2 SWAP1 PUSH2 0x21BD JUMP JUMPDEST SWAP1 POP PUSH2 0x10B9 CALLER PUSH1 0x8 PUSH1 0xFF AND PUSH1 0xA PUSH2 0x109C SWAP2 SWAP1 PUSH2 0x2045 JUMP JUMPDEST PUSH2 0x2710 PUSH2 0x10A9 SWAP2 SWAP1 PUSH2 0x2163 JUMP JUMPDEST DUP4 PUSH2 0x10B4 SWAP2 SWAP1 PUSH2 0x2163 JUMP JUMPDEST PUSH2 0x1B5A JUMP JUMPDEST DUP1 PUSH1 0x6 PUSH1 0x0 DUP3 DUP3 SLOAD PUSH2 0x10CB SWAP2 SWAP1 PUSH2 0x21BD JUMP JUMPDEST SWAP3 POP POP DUP2 SWAP1 SSTORE POP POP JUMPDEST PUSH2 0x2710 DUP6 DUP4 PUSH2 0x10E3 SWAP2 SWAP1 PUSH2 0x2163 JUMP JUMPDEST PUSH2 0x10ED SWAP2 SWAP1 PUSH2 0x1FC1 JUMP JUMPDEST DUP5 PUSH1 0x2 ADD DUP2 SWAP1 SSTORE POP DUP5 DUP5 PUSH1 0x1 ADD DUP2 SWAP1 SSTORE POP DUP6 CALLER PUSH20 0xFFFFFFFFFFFFFFFFFFFFFFFFFFFFFFFFFFFFFFFF AND PUSH32 0xDDAC5028A22C95D7D47EC1D2F51A72EDC856A86565BFBD27C18CE2F31825E851 DUP8 PUSH1 0x40 MLOAD PUSH2 0x1145 SWAP2 SWAP1 PUSH2 0x1EFE JUMP JUMPDEST PUSH1 0x40 MLOAD DUP1 SWAP2 SUB SWAP1 LOG3 POP POP POP POP POP POP JUMP JUMPDEST PUSH1 0x60 PUSH1 0x40 MLOAD DUP1 PUSH1 0x40 ADD PUSH1 0x40 MSTORE DUP1 PUSH1 0x4 DUP2 MSTORE PUSH1 0x20 ADD PUSH32 0x5642544300000000000000000000000000000000000000000000000000000000 DUP2 MSTORE POP SWAP1 POP SWAP1 JUMP JUMPDEST PUSH1 0x8 PUSH1 0xFF AND PUSH1 0xA PUSH2 0x11A3 SWAP2 SWAP1 PUSH2 0x2045 JUMP JUMPDEST PUSH1 0x64 PUSH2 0x11AF SWAP2 SWAP1 PUSH2 0x2163 JUMP JUMPDEST PUSH1 0x0 DUP1 DUP3 DUP3 SLOAD PUSH2 0x11BF SWAP2 SWAP1 PUSH2 0x1F6B JUMP JUMPDEST SWAP3 POP POP DUP2 SWAP1 SSTORE POP PUSH1 0x8 PUSH1 0xFF AND PUSH1 0xA PUSH2 0x11D7 SWAP2 SWAP1 PUSH2 0x2045 JUMP JUMPDEST PUSH1 0x64 PUSH2 0x11E3 SWAP2 SWAP1 PUSH2 0x2163 JUMP JUMPDEST PUSH1 0x1 PUSH1 0x0 CALLER PUSH20 0xFFFFFFFFFFFFFFFFFFFFFFFFFFFFFFFFFFFFFFFF AND PUSH20 0xFFFFFFFFFFFFFFFFFFFFFFFFFFFFFFFFFFFFFFFF AND DUP2 MSTORE PUSH1 0x20 ADD SWAP1 DUP2 MSTORE PUSH1 0x20 ADD PUSH1 0x0 KECCAK256 PUSH1 0x0 DUP3 DUP3 SLOAD PUSH2 0x1231 SWAP2 SWAP1 PUSH2 0x1F6B JUMP JUMPDEST SWAP3 POP POP DUP2 SWAP1 SSTORE POP CALLER PUSH20 0xFFFFFFFFFFFFFFFFFFFFFFFFFFFFFFFFFFFFFFFF AND PUSH1 0x0 PUSH20 0xFFFFFFFFFFFFFFFFFFFFFFFFFFFFFFFFFFFFFFFF AND PUSH32 0xDDF252AD1BE2C89B69C2B068FC378DAA952BA7F163C4A11628F55A4DF523B3EF PUSH1 0x8 PUSH1 0xFF AND PUSH1 0xA PUSH2 0x1299 SWAP2 SWAP1 PUSH2 0x2045 JUMP JUMPDEST PUSH1 0x64 PUSH2 0x12A5 SWAP2 SWAP1 PUSH2 0x2163 JUMP JUMPDEST PUSH1 0x40 MLOAD PUSH2 0x12B2 SWAP2 SWAP1 PUSH2 0x1EFE JUMP JUMPDEST PUSH1 0x40 MLOAD DUP1 SWAP2 SUB SWAP1 LOG3 JUMP JUMPDEST PUSH1 0x40 MLOAD DUP1 PUSH1 0x40 ADD PUSH1 0x40 MSTORE DUP1 PUSH1 0xF DUP2 MSTORE PUSH1 0x20 ADD PUSH32 0x5669727475616C20426974636F696E0000000000000000000000000000000000 DUP2 MSTORE POP DUP2 JUMP JUMPDEST PUSH1 0x8 PUSH1 0xFF AND PUSH1 0xA PUSH2 0x1306 SWAP2 SWAP1 PUSH2 0x2045 JUMP JUMPDEST DUP2 JUMP JUMPDEST PUSH1 0x0 DUP2 PUSH1 0x1 PUSH1 0x0 CALLER PUSH20 0xFFFFFFFFFFFFFFFFFFFFFFFFFFFFFFFFFFFFFFFF AND PUSH20 0xFFFFFFFFFFFFFFFFFFFFFFFFFFFFFFFFFFFFFFFF AND DUP2 MSTORE PUSH1 0x20 ADD SWAP1 DUP2 MSTORE PUSH1 0x20 ADD PUSH1 0x0 KECCAK256 PUSH1 0x0 DUP3 DUP3 SLOAD PUSH2 0x135A SWAP2 SWAP1 PUSH2 0x21BD JUMP JUMPDEST SWAP3 POP POP DUP2 SWAP1 SSTORE POP DUP2 PUSH1 0x1 PUSH1 0x0 DUP6 PUSH20 0xFFFFFFFFFFFFFFFFFFFFFFFFFFFFFFFFFFFFFFFF AND PUSH20 0xFFFFFFFFFFFFFFFFFFFFFFFFFFFFFFFFFFFFFFFF AND DUP2 MSTORE PUSH1 0x20 ADD SWAP1 DUP2 MSTORE PUSH1 0x20 ADD PUSH1 0x0 KECCAK256 PUSH1 0x0 DUP3 DUP3 SLOAD PUSH2 0x13B0 SWAP2 SWAP1 PUSH2 0x1F6B JUMP JUMPDEST SWAP3 POP POP DUP2 SWAP1 SSTORE POP DUP3 PUSH20 0xFFFFFFFFFFFFFFFFFFFFFFFFFFFFFFFFFFFFFFFF AND CALLER PUSH20 0xFFFFFFFFFFFFFFFFFFFFFFFFFFFFFFFFFFFFFFFF AND PUSH32 0xDDF252AD1BE2C89B69C2B068FC378DAA952BA7F163C4A11628F55A4DF523B3EF DUP5 PUSH1 0x40 MLOAD PUSH2 0x1414 SWAP2 SWAP1 PUSH2 0x1EFE JUMP JUMPDEST PUSH1 0x40 MLOAD DUP1 SWAP2 SUB SWAP1 LOG3 PUSH1 0x1 SWAP1 POP SWAP3 SWAP2 POP POP JUMP JUMPDEST PUSH2 0x2710 DUP2 JUMP JUMPDEST PUSH1 0x0 PUSH1 0x3 DUP1 SLOAD SWAP1 POP SWAP1 POP SWAP1 JUMP JUMPDEST PUSH1 0x6 SLOAD DUP2 JUMP JUMPDEST PUSH1 0x0 PUSH1 0x2 PUSH1 0x0 DUP5 PUSH20 0xFFFFFFFFFFFFFFFFFFFFFFFFFFFFFFFFFFFFFFFF AND PUSH20 0xFFFFFFFFFFFFFFFFFFFFFFFFFFFFFFFFFFFFFFFF AND DUP2 MSTORE PUSH1 0x20 ADD SWAP1 DUP2 MSTORE PUSH1 0x20 ADD PUSH1 0x0 KECCAK256 PUSH1 0x0 DUP4 PUSH20 0xFFFFFFFFFFFFFFFFFFFFFFFFFFFFFFFFFFFFFFFF AND PUSH20 0xFFFFFFFFFFFFFFFFFFFFFFFFFFFFFFFFFFFFFFFF AND DUP2 MSTORE PUSH1 0x20 ADD SWAP1 DUP2 MSTORE PUSH1 0x20 ADD PUSH1 0x0 KECCAK256 SLOAD SWAP1 POP SWAP3 SWAP2 POP POP JUMP JUMPDEST PUSH1 0x0 PUSH1 0x8 PUSH1 0xFF AND PUSH1 0xA PUSH2 0x14D9 SWAP2 SWAP1 PUSH2 0x2045 JUMP JUMPDEST PUSH2 0x2710 PUSH2 0x14E6 SWAP2 SWAP1 PUSH2 0x2163 JUMP JUMPDEST DUP3 PUSH2 0x14F1 SWAP2 SWAP1 PUSH2 0x2163 JUMP JUMPDEST SWAP1 POP SWAP2 SWAP1 POP JUMP JUMPDEST PUSH1 0x4 SLOAD DUP2 JUMP JUMPDEST PUSH1 0x0 PUSH1 0x3 DUP3 DUP2 SLOAD DUP2 LT PUSH2 0x1514 JUMPI PUSH2 0x1513 PUSH2 0x22E7 JUMP JUMPDEST JUMPDEST SWAP1 PUSH1 0x0 MSTORE PUSH1 0x20 PUSH1 0x0 KECCAK256 SWAP1 PUSH1 0x3 MUL ADD SWAP1 POP PUSH1 0x0 DUP3 EQ ISZERO PUSH2 0x1532 JUMPI PUSH1 0x0 DUP1 REVERT JUMPDEST CALLER PUSH20 0xFFFFFFFFFFFFFFFFFFFFFFFFFFFFFFFFFFFFFFFF AND DUP2 PUSH1 0x0 ADD PUSH1 0x0 SWAP1 SLOAD SWAP1 PUSH2 0x100 EXP SWAP1 DIV PUSH20 0xFFFFFFFFFFFFFFFFFFFFFFFFFFFFFFFFFFFFFFFF AND PUSH20 0xFFFFFFFFFFFFFFFFFFFFFFFFFFFFFFFFFFFFFFFF AND EQ PUSH2 0x158E JUMPI PUSH1 0x0 DUP1 REVERT JUMPDEST PUSH1 0x0 DUP2 PUSH1 0x1 ADD SLOAD SWAP1 POP PUSH2 0x15A0 DUP4 PUSH2 0xB90 JUMP JUMPDEST POP PUSH1 0x0 DUP3 PUSH1 0x0 ADD PUSH1 0x0 PUSH2 0x100 EXP DUP2 SLOAD DUP2 PUSH20 0xFFFFFFFFFFFFFFFFFFFFFFFFFFFFFFFFFFFFFFFF MUL NOT AND SWAP1 DUP4 PUSH20 0xFFFFFFFFFFFFFFFFFFFFFFFFFFFFFFFFFFFFFFFF AND MUL OR SWAP1 SSTORE POP DUP1 PUSH1 0x6 PUSH1 0x0 DUP3 DUP3 SLOAD PUSH2 0x15F7 SWAP2 SWAP1 PUSH2 0x21BD JUMP JUMPDEST SWAP3 POP POP DUP2 SWAP1 SSTORE POP PUSH2 0x1630 CALLER PUSH1 0x8 PUSH1 0xFF AND PUSH1 0xA PUSH2 0x1613 SWAP2 SWAP1 PUSH2 0x2045 JUMP JUMPDEST PUSH2 0x2710 PUSH2 0x1620 SWAP2 SWAP1 PUSH2 0x2163 JUMP JUMPDEST DUP4 PUSH2 0x162B SWAP2 SWAP1 PUSH2 0x2163 JUMP JUMPDEST PUSH2 0x1B5A JUMP JUMPDEST DUP3 CALLER PUSH20 0xFFFFFFFFFFFFFFFFFFFFFFFFFFFFFFFFFFFFFFFF AND PUSH32 0x7443D543988088AA1062DD69A78779C9EA88934042CDC3A63A0452F3DF3AD1AC PUSH1 0x40 MLOAD PUSH1 0x40 MLOAD DUP1 SWAP2 SUB SWAP1 LOG3 POP POP POP JUMP JUMPDEST PUSH1 0x40 MLOAD DUP1 PUSH1 0x40 ADD PUSH1 0x40 MSTORE DUP1 PUSH1 0x4 DUP2 MSTORE PUSH1 0x20 ADD PUSH32 0x5642544300000000000000000000000000000000000000000000000000000000 DUP2 MSTORE POP DUP2 JUMP JUMPDEST PUSH1 0x8 PUSH1 0xFF AND PUSH1 0xA PUSH2 0x16C3 SWAP2 SWAP1 PUSH2 0x2045 JUMP JUMPDEST PUSH2 0x2710 PUSH2 0x16D0 SWAP2 SWAP1 PUSH2 0x2163 JUMP JUMPDEST DUP2 JUMP JUMPDEST PUSH1 0x0 DUP1 DUP3 GT PUSH2 0x16E1 JUMPI PUSH1 0x0 DUP1 REVERT JUMPDEST PUSH1 0x0 PUSH1 0x3 DUP1 SLOAD SWAP1 POP SWAP1 POP PUSH1 0x0 PUSH2 0x16F5 PUSH2 0x17EB JUMP JUMPDEST SWAP1 POP PUSH1 0x3 PUSH1 0x40 MLOAD DUP1 PUSH1 0x60 ADD PUSH1 0x40 MSTORE DUP1 CALLER PUSH20 0xFFFFFFFFFFFFFFFFFFFFFFFFFFFFFFFFFFFFFFFF AND DUP2 MSTORE PUSH1 0x20 ADD DUP7 DUP2 MSTORE PUSH1 0x20 ADD PUSH2 0x2710 DUP8 DUP6 PUSH2 0x1735 SWAP2 SWAP1 PUSH2 0x2163 JUMP JUMPDEST PUSH2 0x173F SWAP2 SWAP1 PUSH2 0x1FC1 JUMP JUMPDEST DUP2 MSTORE POP SWAP1 DUP1 PUSH1 0x1 DUP2 SLOAD ADD DUP1 DUP3 SSTORE DUP1 SWAP2 POP POP PUSH1 0x1 SWAP1 SUB SWAP1 PUSH1 0x0 MSTORE PUSH1 0x20 PUSH1 0x0 KECCAK256 SWAP1 PUSH1 0x3 MUL ADD PUSH1 0x0 SWAP1 SWAP2 SWAP1 SWAP2 SWAP1 SWAP2 POP PUSH1 0x0 DUP3 ADD MLOAD DUP2 PUSH1 0x0 ADD PUSH1 0x0 PUSH2 0x100 EXP DUP2 SLOAD DUP2 PUSH20 0xFFFFFFFFFFFFFFFFFFFFFFFFFFFFFFFFFFFFFFFF MUL NOT AND SWAP1 DUP4 PUSH20 0xFFFFFFFFFFFFFFFFFFFFFFFFFFFFFFFFFFFFFFFF AND MUL OR SWAP1 SSTORE POP PUSH1 0x20 DUP3 ADD MLOAD DUP2 PUSH1 0x1 ADD SSTORE PUSH1 0x40 DUP3 ADD MLOAD DUP2 PUSH1 0x2 ADD SSTORE POP POP DUP4 PUSH1 0x6 PUSH1 0x0 DUP3 DUP3 SLOAD PUSH2 0x17DA SWAP2 SWAP1 PUSH2 0x1F6B JUMP JUMPDEST SWAP3 POP POP DUP2 SWAP1 SSTORE POP DUP2 SWAP3 POP POP POP SWAP2 SWAP1 POP JUMP JUMPDEST PUSH1 0x0 NUMBER PUSH1 0x4 SLOAD EQ PUSH2 0x1813 JUMPI PUSH2 0x17FE PUSH2 0x18F4 JUMP JUMPDEST SWAP1 POP DUP1 PUSH1 0x5 DUP2 SWAP1 SSTORE POP NUMBER PUSH1 0x4 DUP2 SWAP1 SSTORE POP PUSH2 0x1819 JUMP JUMPDEST PUSH1 0x5 SLOAD SWAP1 POP JUMPDEST SWAP1 JUMP JUMPDEST DUP1 PUSH1 0x1 PUSH1 0x0 DUP5 PUSH20 0xFFFFFFFFFFFFFFFFFFFFFFFFFFFFFFFFFFFFFFFF AND PUSH20 0xFFFFFFFFFFFFFFFFFFFFFFFFFFFFFFFFFFFFFFFF AND DUP2 MSTORE PUSH1 0x20 ADD SWAP1 DUP2 MSTORE PUSH1 0x20 ADD PUSH1 0x0 KECCAK256 PUSH1 0x0 DUP3 DUP3 SLOAD PUSH2 0x186B SWAP2 SWAP1 PUSH2 0x1F6B JUMP JUMPDEST SWAP3 POP POP DUP2 SWAP1 SSTORE POP DUP1 PUSH1 0x0 DUP1 DUP3 DUP3 SLOAD PUSH2 0x1883 SWAP2 SWAP1 PUSH2 0x1F6B JUMP JUMPDEST SWAP3 POP POP DUP2 SWAP1 SSTORE POP DUP2 PUSH20 0xFFFFFFFFFFFFFFFFFFFFFFFFFFFFFFFFFFFFFFFF AND PUSH1 0x0 PUSH20 0xFFFFFFFFFFFFFFFFFFFFFFFFFFFFFFFFFFFFFFFF AND PUSH32 0xDDF252AD1BE2C89B69C2B068FC378DAA952BA7F163C4A11628F55A4DF523B3EF DUP4 PUSH1 0x40 MLOAD PUSH2 0x18E8 SWAP2 SWAP1 PUSH2 0x1EFE JUMP JUMPDEST PUSH1 0x40 MLOAD DUP1 SWAP2 SUB SWAP1 LOG3 POP POP JUMP JUMPDEST PUSH1 0x0 DUP1 PUSH1 0x4 SLOAD SWAP1 POP PUSH1 0x0 DUP1 PUSH3 0x401640 PUSH4 0xFFFFFFFF AND PUSH32 0x0 DUP5 PUSH2 0x1935 SWAP2 SWAP1 PUSH2 0x21BD JUMP JUMPDEST PUSH2 0x193F SWAP2 SWAP1 PUSH2 0x1FC1 JUMP JUMPDEST SWAP1 POP PUSH1 0x0 PUSH3 0x401640 PUSH4 0xFFFFFFFF AND PUSH32 0x0 NUMBER PUSH2 0x1979 SWAP2 SWAP1 PUSH2 0x21BD JUMP JUMPDEST PUSH2 0x1983 SWAP2 SWAP1 PUSH2 0x1FC1 JUMP JUMPDEST SWAP1 POP DUP1 DUP3 EQ ISZERO PUSH2 0x19B3 JUMPI PUSH2 0x1996 NUMBER PUSH2 0x7D5 JUMP JUMPDEST DUP5 NUMBER PUSH2 0x19A2 SWAP2 SWAP1 PUSH2 0x21BD JUMP JUMPDEST PUSH2 0x19AC SWAP2 SWAP1 PUSH2 0x2163 JUMP JUMPDEST SWAP3 POP PUSH2 0x1B29 JUMP JUMPDEST PUSH1 0x0 PUSH32 0x0 PUSH3 0x401640 PUSH4 0xFFFFFFFF AND PUSH1 0x1 DUP6 PUSH2 0x19ED SWAP2 SWAP1 PUSH2 0x1F6B JUMP JUMPDEST PUSH2 0x19F7 SWAP2 SWAP1 PUSH2 0x2163 JUMP JUMPDEST PUSH2 0x1A01 SWAP2 SWAP1 PUSH2 0x1F6B JUMP JUMPDEST SWAP1 POP PUSH2 0x1A0C DUP6 PUSH2 0x7D5 JUMP JUMPDEST DUP6 DUP3 PUSH2 0x1A18 SWAP2 SWAP1 PUSH2 0x21BD JUMP JUMPDEST PUSH2 0x1A22 SWAP2 SWAP1 PUSH2 0x2163 JUMP JUMPDEST SWAP4 POP PUSH1 0x0 DUP4 DUP4 PUSH2 0x1A32 SWAP2 SWAP1 PUSH2 0x21BD JUMP JUMPDEST SWAP1 POP PUSH1 0x0 PUSH1 0x1 SWAP1 POP JUMPDEST DUP2 DUP2 LT ISZERO PUSH2 0x1AF9 JUMPI PUSH32 0x0 PUSH3 0x401640 PUSH4 0xFFFFFFFF AND DUP3 PUSH1 0x1 DUP9 PUSH2 0x1A7C SWAP2 SWAP1 PUSH2 0x1F6B JUMP JUMPDEST PUSH2 0x1A86 SWAP2 SWAP1 PUSH2 0x1F6B JUMP JUMPDEST PUSH2 0x1A90 SWAP2 SWAP1 PUSH2 0x2163 JUMP JUMPDEST PUSH2 0x1A9A SWAP2 SWAP1 PUSH2 0x1F6B JUMP JUMPDEST SWAP3 POP PUSH2 0x1AC4 DUP2 PUSH3 0x401640 PUSH4 0xFFFFFFFF AND PUSH2 0x1AB4 SWAP2 SWAP1 PUSH2 0x2163 JUMP JUMPDEST DUP9 PUSH2 0x1ABF SWAP2 SWAP1 PUSH2 0x1F6B JUMP JUMPDEST PUSH2 0x7D5 JUMP JUMPDEST PUSH3 0x401640 PUSH4 0xFFFFFFFF AND PUSH2 0x1AD8 SWAP2 SWAP1 PUSH2 0x2163 JUMP JUMPDEST DUP7 PUSH2 0x1AE3 SWAP2 SWAP1 PUSH2 0x1F6B JUMP JUMPDEST SWAP6 POP PUSH1 0x1 DUP2 PUSH2 0x1AF2 SWAP2 SWAP1 PUSH2 0x1F6B JUMP JUMPDEST SWAP1 POP PUSH2 0x1A3B JUMP JUMPDEST POP PUSH2 0x1B03 NUMBER PUSH2 0x7D5 JUMP JUMPDEST DUP3 NUMBER PUSH2 0x1B0F SWAP2 SWAP1 PUSH2 0x21BD JUMP JUMPDEST PUSH2 0x1B19 SWAP2 SWAP1 PUSH2 0x2163 JUMP JUMPDEST DUP6 PUSH2 0x1B24 SWAP2 SWAP1 PUSH2 0x1F6B JUMP JUMPDEST SWAP5 POP POP POP JUMPDEST PUSH1 0x6 SLOAD PUSH2 0x2710 DUP5 PUSH2 0x1B3A SWAP2 SWAP1 PUSH2 0x2163 JUMP JUMPDEST PUSH2 0x1B44 SWAP2 SWAP1 PUSH2 0x1FC1 JUMP JUMPDEST PUSH1 0x5 SLOAD PUSH2 0x1B51 SWAP2 SWAP1 PUSH2 0x1F6B JUMP JUMPDEST SWAP5 POP POP POP POP POP SWAP1 JUMP JUMPDEST DUP1 PUSH1 0x1 PUSH1 0x0 ADDRESS PUSH20 0xFFFFFFFFFFFFFFFFFFFFFFFFFFFFFFFFFFFFFFFF AND PUSH20 0xFFFFFFFFFFFFFFFFFFFFFFFFFFFFFFFFFFFFFFFF AND DUP2 MSTORE PUSH1 0x20 ADD SWAP1 DUP2 MSTORE PUSH1 0x20 ADD PUSH1 0x0 KECCAK256 PUSH1 0x0 DUP3 DUP3 SLOAD PUSH2 0x1BA9 SWAP2 SWAP1 PUSH2 0x21BD JUMP JUMPDEST SWAP3 POP POP DUP2 SWAP1 SSTORE POP DUP1 PUSH1 0x1 PUSH1 0x0 DUP5 PUSH20 0xFFFFFFFFFFFFFFFFFFFFFFFFFFFFFFFFFFFFFFFF AND PUSH20 0xFFFFFFFFFFFFFFFFFFFFFFFFFFFFFFFFFFFFFFFF AND DUP2 MSTORE PUSH1 0x20 ADD SWAP1 DUP2 MSTORE PUSH1 0x20 ADD PUSH1 0x0 KECCAK256 PUSH1 0x0 DUP3 DUP3 SLOAD PUSH2 0x1BFF SWAP2 SWAP1 PUSH2 0x1F6B JUMP JUMPDEST SWAP3 POP POP DUP2 SWAP1 SSTORE POP DUP2 PUSH20 0xFFFFFFFFFFFFFFFFFFFFFFFFFFFFFFFFFFFFFFFF AND ADDRESS PUSH20 0xFFFFFFFFFFFFFFFFFFFFFFFFFFFFFFFFFFFFFFFF AND PUSH32 0xDDF252AD1BE2C89B69C2B068FC378DAA952BA7F163C4A11628F55A4DF523B3EF DUP4 PUSH1 0x40 MLOAD PUSH2 0x1C63 SWAP2 SWAP1 PUSH2 0x1EFE JUMP JUMPDEST PUSH1 0x40 MLOAD DUP1 SWAP2 SUB SWAP1 LOG3 POP POP JUMP JUMPDEST PUSH1 0x0 DUP2 CALLDATALOAD SWAP1 POP PUSH2 0x1C7E DUP2 PUSH2 0x2339 JUMP JUMPDEST SWAP3 SWAP2 POP POP JUMP JUMPDEST PUSH1 0x0 DUP2 CALLDATALOAD SWAP1 POP PUSH2 0x1C93 DUP2 PUSH2 0x2350 JUMP JUMPDEST SWAP3 SWAP2 POP POP JUMP JUMPDEST PUSH1 0x0 PUSH1 0x20 DUP3 DUP5 SUB SLT ISZERO PUSH2 0x1CAF JUMPI PUSH2 0x1CAE PUSH2 0x2316 JUMP JUMPDEST JUMPDEST PUSH1 0x0 PUSH2 0x1CBD DUP5 DUP3 DUP6 ADD PUSH2 0x1C6F JUMP JUMPDEST SWAP2 POP POP SWAP3 SWAP2 POP POP JUMP JUMPDEST PUSH1 0x0 DUP1 PUSH1 0x40 DUP4 DUP6 SUB SLT ISZERO PUSH2 0x1CDD JUMPI PUSH2 0x1CDC PUSH2 0x2316 JUMP JUMPDEST JUMPDEST PUSH1 0x0 PUSH2 0x1CEB DUP6 DUP3 DUP7 ADD PUSH2 0x1C6F JUMP JUMPDEST SWAP3 POP POP PUSH1 0x20 PUSH2 0x1CFC DUP6 DUP3 DUP7 ADD PUSH2 0x1C6F JUMP JUMPDEST SWAP2 POP POP SWAP3 POP SWAP3 SWAP1 POP JUMP JUMPDEST PUSH1 0x0 DUP1 PUSH1 0x0 PUSH1 0x60 DUP5 DUP7 SUB SLT ISZERO PUSH2 0x1D1F JUMPI PUSH2 0x1D1E PUSH2 0x2316 JUMP JUMPDEST JUMPDEST PUSH1 0x0 PUSH2 0x1D2D DUP7 DUP3 DUP8 ADD PUSH2 0x1C6F JUMP JUMPDEST SWAP4 POP POP PUSH1 0x20 PUSH2 0x1D3E DUP7 DUP3 DUP8 ADD PUSH2 0x1C6F JUMP JUMPDEST SWAP3 POP POP PUSH1 0x40 PUSH2 0x1D4F DUP7 DUP3 DUP8 ADD PUSH2 0x1C84 JUMP JUMPDEST SWAP2 POP POP SWAP3 POP SWAP3 POP SWAP3 JUMP JUMPDEST PUSH1 0x0 DUP1 PUSH1 0x40 DUP4 DUP6 SUB SLT ISZERO PUSH2 0x1D70 JUMPI PUSH2 0x1D6F PUSH2 0x2316 JUMP JUMPDEST JUMPDEST PUSH1 0x0 PUSH2 0x1D7E DUP6 DUP3 DUP7 ADD PUSH2 0x1C6F JUMP JUMPDEST SWAP3 POP POP PUSH1 0x20 PUSH2 0x1D8F DUP6 DUP3 DUP7 ADD PUSH2 0x1C84 JUMP JUMPDEST SWAP2 POP POP SWAP3 POP SWAP3 SWAP1 POP JUMP JUMPDEST PUSH1 0x0 PUSH1 0x20 DUP3 DUP5 SUB SLT ISZERO PUSH2 0x1DAF JUMPI PUSH2 0x1DAE PUSH2 0x2316 JUMP JUMPDEST JUMPDEST PUSH1 0x0 PUSH2 0x1DBD DUP5 DUP3 DUP6 ADD PUSH2 0x1C84 JUMP JUMPDEST SWAP2 POP POP SWAP3 SWAP2 POP POP JUMP JUMPDEST PUSH1 0x0 DUP1 PUSH1 0x40 DUP4 DUP6 SUB SLT ISZERO PUSH2 0x1DDD JUMPI PUSH2 0x1DDC PUSH2 0x2316 JUMP JUMPDEST JUMPDEST PUSH1 0x0 PUSH2 0x1DEB DUP6 DUP3 DUP7 ADD PUSH2 0x1C84 JUMP JUMPDEST SWAP3 POP POP PUSH1 0x20 PUSH2 0x1DFC DUP6 DUP3 DUP7 ADD PUSH2 0x1C84 JUMP JUMPDEST SWAP2 POP POP SWAP3 POP SWAP3 SWAP1 POP JUMP JUMPDEST PUSH2 0x1E0F DUP2 PUSH2 0x21F1 JUMP JUMPDEST DUP3 MSTORE POP POP JUMP JUMPDEST PUSH2 0x1E1E DUP2 PUSH2 0x2203 JUMP JUMPDEST DUP3 MSTORE POP POP JUMP JUMPDEST PUSH1 0x0 PUSH2 0x1E2F DUP3 PUSH2 0x1F4F JUMP JUMPDEST PUSH2 0x1E39 DUP2 DUP6 PUSH2 0x1F5A JUMP JUMPDEST SWAP4 POP PUSH2 0x1E49 DUP2 DUP6 PUSH1 0x20 DUP7 ADD PUSH2 0x2256 JUMP JUMPDEST PUSH2 0x1E52 DUP2 PUSH2 0x231B JUMP JUMPDEST DUP5 ADD SWAP2 POP POP SWAP3 SWAP2 POP POP JUMP JUMPDEST PUSH2 0x1E66 DUP2 PUSH2 0x222F JUMP JUMPDEST DUP3 MSTORE POP POP JUMP JUMPDEST PUSH2 0x1E75 DUP2 PUSH2 0x2239 JUMP JUMPDEST DUP3 MSTORE POP POP JUMP JUMPDEST PUSH2 0x1E84 DUP2 PUSH2 0x2249 JUMP JUMPDEST DUP3 MSTORE POP POP JUMP JUMPDEST PUSH1 0x0 PUSH1 0x60 DUP3 ADD SWAP1 POP PUSH2 0x1E9F PUSH1 0x0 DUP4 ADD DUP7 PUSH2 0x1E06 JUMP JUMPDEST PUSH2 0x1EAC PUSH1 0x20 DUP4 ADD DUP6 PUSH2 0x1E5D JUMP JUMPDEST PUSH2 0x1EB9 PUSH1 0x40 DUP4 ADD DUP5 PUSH2 0x1E5D JUMP JUMPDEST SWAP5 SWAP4 POP POP POP POP JUMP JUMPDEST PUSH1 0x0 PUSH1 0x20 DUP3 ADD SWAP1 POP PUSH2 0x1ED6 PUSH1 0x0 DUP4 ADD DUP5 PUSH2 0x1E15 JUMP JUMPDEST SWAP3 SWAP2 POP POP JUMP JUMPDEST PUSH1 0x0 PUSH1 0x20 DUP3 ADD SWAP1 POP DUP2 DUP2 SUB PUSH1 0x0 DUP4 ADD MSTORE PUSH2 0x1EF6 DUP2 DUP5 PUSH2 0x1E24 JUMP JUMPDEST SWAP1 POP SWAP3 SWAP2 POP POP JUMP JUMPDEST PUSH1 0x0 PUSH1 0x20 DUP3 ADD SWAP1 POP PUSH2 0x1F13 PUSH1 0x0 DUP4 ADD DUP5 PUSH2 0x1E5D JUMP JUMPDEST SWAP3 SWAP2 POP POP JUMP JUMPDEST PUSH1 0x0 PUSH1 0x20 DUP3 ADD SWAP1 POP PUSH2 0x1F2E PUSH1 0x0 DUP4 ADD DUP5 PUSH2 0x1E6C JUMP JUMPDEST SWAP3 SWAP2 POP POP JUMP JUMPDEST PUSH1 0x0 PUSH1 0x20 DUP3 ADD SWAP1 POP PUSH2 0x1F49 PUSH1 0x0 DUP4 ADD DUP5 PUSH2 0x1E7B JUMP JUMPDEST SWAP3 SWAP2 POP POP JUMP JUMPDEST PUSH1 0x0 DUP2 MLOAD SWAP1 POP SWAP2 SWAP1 POP JUMP JUMPDEST PUSH1 0x0 DUP3 DUP3 MSTORE PUSH1 0x20 DUP3 ADD SWAP1 POP SWAP3 SWAP2 POP POP JUMP JUMPDEST PUSH1 0x0 PUSH2 0x1F76 DUP3 PUSH2 0x222F JUMP JUMPDEST SWAP2 POP PUSH2 0x1F81 DUP4 PUSH2 0x222F JUMP JUMPDEST SWAP3 POP DUP3 PUSH32 0xFFFFFFFFFFFFFFFFFFFFFFFFFFFFFFFFFFFFFFFFFFFFFFFFFFFFFFFFFFFFFFFF SUB DUP3 GT ISZERO PUSH2 0x1FB6 JUMPI PUSH2 0x1FB5 PUSH2 0x2289 JUMP JUMPDEST JUMPDEST DUP3 DUP3 ADD SWAP1 POP SWAP3 SWAP2 POP POP JUMP JUMPDEST PUSH1 0x0 PUSH2 0x1FCC DUP3 PUSH2 0x222F JUMP JUMPDEST SWAP2 POP PUSH2 0x1FD7 DUP4 PUSH2 0x222F JUMP JUMPDEST SWAP3 POP DUP3 PUSH2 0x1FE7 JUMPI PUSH2 0x1FE6 PUSH2 0x22B8 JUMP JUMPDEST JUMPDEST DUP3 DUP3 DIV SWAP1 POP SWAP3 SWAP2 POP POP JUMP JUMPDEST PUSH1 0x0 DUP1 DUP3 SWAP2 POP DUP4 SWAP1 POP JUMPDEST PUSH1 0x1 DUP6 GT ISZERO PUSH2 0x203C JUMPI DUP1 DUP7 DIV DUP2 GT ISZERO PUSH2 0x2018 JUMPI PUSH2 0x2017 PUSH2 0x2289 JUMP JUMPDEST JUMPDEST PUSH1 0x1 DUP6 AND ISZERO PUSH2 0x2027 JUMPI DUP1 DUP3 MUL SWAP2 POP JUMPDEST DUP1 DUP2 MUL SWAP1 POP PUSH2 0x2035 DUP6 PUSH2 0x232C JUMP JUMPDEST SWAP5 POP PUSH2 0x1FFC JUMP JUMPDEST SWAP5 POP SWAP5 SWAP3 POP POP POP JUMP JUMPDEST PUSH1 0x0 PUSH2 0x2050 DUP3 PUSH2 0x222F JUMP JUMPDEST SWAP2 POP PUSH2 0x205B DUP4 PUSH2 0x222F JUMP JUMPDEST SWAP3 POP PUSH2 0x2088 PUSH32 0xFFFFFFFFFFFFFFFFFFFFFFFFFFFFFFFFFFFFFFFFFFFFFFFFFFFFFFFFFFFFFFFF DUP5 DUP5 PUSH2 0x2090 JUMP JUMPDEST SWAP1 POP SWAP3 SWAP2 POP POP JUMP JUMPDEST PUSH1 0x0 DUP3 PUSH2 0x20A0 JUMPI PUSH1 0x1 SWAP1 POP PUSH2 0x215C JUMP JUMPDEST DUP2 PUSH2 0x20AE JUMPI PUSH1 0x0 SWAP1 POP PUSH2 0x215C JUMP JUMPDEST DUP2 PUSH1 0x1 DUP2 EQ PUSH2 0x20C4 JUMPI PUSH1 0x2 DUP2 EQ PUSH2 0x20CE JUMPI PUSH2 0x20FD JUMP JUMPDEST PUSH1 0x1 SWAP2 POP POP PUSH2 0x215C JUMP JUMPDEST PUSH1 0xFF DUP5 GT ISZERO PUSH2 0x20E0 JUMPI PUSH2 0x20DF PUSH2 0x2289 JUMP JUMPDEST JUMPDEST DUP4 PUSH1 0x2 EXP SWAP2 POP DUP5 DUP3 GT ISZERO PUSH2 0x20F7 JUMPI PUSH2 0x20F6 PUSH2 0x2289 JUMP JUMPDEST JUMPDEST POP PUSH2 0x215C JUMP JUMPDEST POP PUSH1 0x20 DUP4 LT PUSH2 0x133 DUP4 LT AND PUSH1 0x4E DUP5 LT PUSH1 0xB DUP5 LT AND OR ISZERO PUSH2 0x2132 JUMPI DUP3 DUP3 EXP SWAP1 POP DUP4 DUP2 GT ISZERO PUSH2 0x212D JUMPI PUSH2 0x212C PUSH2 0x2289 JUMP JUMPDEST JUMPDEST PUSH2 0x215C JUMP JUMPDEST PUSH2 0x213F DUP5 DUP5 DUP5 PUSH1 0x1 PUSH2 0x1FF2 JUMP JUMPDEST SWAP3 POP SWAP1 POP DUP2 DUP5 DIV DUP2 GT ISZERO PUSH2 0x2156 JUMPI PUSH2 0x2155 PUSH2 0x2289 JUMP JUMPDEST JUMPDEST DUP2 DUP2 MUL SWAP1 POP JUMPDEST SWAP4 SWAP3 POP POP POP JUMP JUMPDEST PUSH1 0x0 PUSH2 0x216E DUP3 PUSH2 0x222F JUMP JUMPDEST SWAP2 POP PUSH2 0x2179 DUP4 PUSH2 0x222F JUMP JUMPDEST SWAP3 POP DUP2 PUSH32 0xFFFFFFFFFFFFFFFFFFFFFFFFFFFFFFFFFFFFFFFFFFFFFFFFFFFFFFFFFFFFFFFF DIV DUP4 GT DUP3 ISZERO ISZERO AND ISZERO PUSH2 0x21B2 JUMPI PUSH2 0x21B1 PUSH2 0x2289 JUMP JUMPDEST JUMPDEST DUP3 DUP3 MUL SWAP1 POP SWAP3 SWAP2 POP POP JUMP JUMPDEST PUSH1 0x0 PUSH2 0x21C8 DUP3 PUSH2 0x222F JUMP JUMPDEST SWAP2 POP PUSH2 0x21D3 DUP4 PUSH2 0x222F JUMP JUMPDEST SWAP3 POP DUP3 DUP3 LT ISZERO PUSH2 0x21E6 JUMPI PUSH2 0x21E5 PUSH2 0x2289 JUMP JUMPDEST JUMPDEST DUP3 DUP3 SUB SWAP1 POP SWAP3 SWAP2 POP POP JUMP JUMPDEST PUSH1 0x0 PUSH2 0x21FC DUP3 PUSH2 0x220F JUMP JUMPDEST SWAP1 POP SWAP2 SWAP1 POP JUMP JUMPDEST PUSH1 0x0 DUP2 ISZERO ISZERO SWAP1 POP SWAP2 SWAP1 POP JUMP JUMPDEST PUSH1 0x0 PUSH20 0xFFFFFFFFFFFFFFFFFFFFFFFFFFFFFFFFFFFFFFFF DUP3 AND SWAP1 POP SWAP2 SWAP1 POP JUMP JUMPDEST PUSH1 0x0 DUP2 SWAP1 POP SWAP2 SWAP1 POP JUMP JUMPDEST PUSH1 0x0 PUSH4 0xFFFFFFFF DUP3 AND SWAP1 POP SWAP2 SWAP1 POP JUMP JUMPDEST PUSH1 0x0 PUSH1 0xFF DUP3 AND SWAP1 POP SWAP2 SWAP1 POP JUMP JUMPDEST PUSH1 0x0 JUMPDEST DUP4 DUP2 LT ISZERO PUSH2 0x2274 JUMPI DUP1 DUP3 ADD MLOAD DUP2 DUP5 ADD MSTORE PUSH1 0x20 DUP2 ADD SWAP1 POP PUSH2 0x2259 JUMP JUMPDEST DUP4 DUP2 GT ISZERO PUSH2 0x2283 JUMPI PUSH1 0x0 DUP5 DUP5 ADD MSTORE JUMPDEST POP POP POP POP JUMP JUMPDEST PUSH32 0x4E487B7100000000000000000000000000000000000000000000000000000000 PUSH1 0x0 MSTORE PUSH1 0x11 PUSH1 0x4 MSTORE PUSH1 0x24 PUSH1 0x0 REVERT JUMPDEST PUSH32 0x4E487B7100000000000000000000000000000000000000000000000000000000 PUSH1 0x0 MSTORE PUSH1 0x12 PUSH1 0x4 MSTORE PUSH1 0x24 PUSH1 0x0 REVERT JUMPDEST PUSH32 0x4E487B7100000000000000000000000000000000000000000000000000000000 PUSH1 0x0 MSTORE PUSH1 0x32 PUSH1 0x4 MSTORE PUSH1 0x24 PUSH1 0x0 REVERT JUMPDEST PUSH1 0x0 DUP1 REVERT JUMPDEST PUSH1 0x0 PUSH1 0x1F NOT PUSH1 0x1F DUP4 ADD AND SWAP1 POP SWAP2 SWAP1 POP JUMP JUMPDEST PUSH1 0x0 DUP2 PUSH1 0x1 SHR SWAP1 POP SWAP2 SWAP1 POP JUMP JUMPDEST PUSH2 0x2342 DUP2 PUSH2 0x21F1 JUMP JUMPDEST DUP2 EQ PUSH2 0x234D JUMPI PUSH1 0x0 DUP1 REVERT JUMPDEST POP JUMP JUMPDEST PUSH2 0x2359 DUP2 PUSH2 0x222F JUMP JUMPDEST DUP2 EQ PUSH2 0x2364 JUMPI PUSH1 0x0 DUP1 REVERT JUMPDEST POP JUMP INVALID LOG2 PUSH5 0x6970667358 0x22 SLT KECCAK256 LOG3 0xD5 0x4C 0xDC COINBASE 0xE0 PUSH12 0x464557045F9C1CDD66CFCF01 SHR EXTCODEHASH 0x49 SGT 0x1F ADD COINBASE 0x27 RETURNDATASIZE CALLVALUE 0xC9 DUP3 0xD5 PUSH5 0x736F6C6343 STOP ADDMOD SDIV STOP CALLER "
        },
        "methodIdentifiers": {
          "COIN()": "a54a72b7",
          "DECIMALS()": "2e0f2625",
          "MAX_COIN()": "72cf105d",
          "NAME()": "a3f4df7e",
          "PIZZA_POWER_PRICE()": "feeff293",
          "PRECISION()": "aaf5eb68",
          "SUBSIDY_HALVING_INTERVAL()": "72f627a7",
          "SYMBOL()": "f76f8d78",
          "accSubsidy()": "3d558387",
          "accSubsidyBlock()": "ea03174d",
          "allowance(address,address)": "dd62ed3e",
          "approve(address,uint256)": "095ea7b3",
          "balanceOf(address)": "70a08231",
          "buyPizza(uint256)": "3125e46e",
          "changePizza(uint256,uint256)": "8ca42d2a",
          "decimals()": "313ce567",
          "genesisEthBlock()": "151aa86a",
          "mine(uint256)": "4d474898",
          "name()": "06fdde03",
          "pizzaCount()": "b0780cfc",
          "pizzaPrice(uint256)": "de8ff63b",
          "pizzas(uint256)": "6b67a1b2",
          "powerOf(uint256)": "04eaa113",
          "sellPizza(uint256)": "eff60e8f",
          "subsidyAt(uint256)": "0a24470e",
          "subsidyOf(uint256)": "8c8c9fec",
          "symbol()": "95d89b41",
          "testMint()": "9642ddaf",
          "totalPower()": "db3ad22c",
          "totalSupply()": "18160ddd",
          "transfer(address,uint256)": "a9059cbb",
          "transferFrom(address,address,uint256)": "23b872dd"
        }
      }
    }
  }
}